:100000000C94B1000C94C3000C94C3000C94C30076
:100010000C94C3000C94C3000C94C3000C94C30054
:100020000C94C3000C94C3000C94C3000C94C30044
:100030000C94C3000C94C3000C94C3000C94C30034
:100040000C94C3000C94C3000C9449010C94C3009D
:100050000C94C3000C94C3000C94C3000C94C30014
:100060000C94C3000C94C30000407A10F35A00A013
:10007000724E18090010A5D4E80000E87648170071
:1000800000E40B54020000CA9A3B000000E1F505B1
:10009000000080969800000040420F000000A086FB
:1000A00001000000102700000000E803000000002D
:1000B0006400000000000A000000000001000000D1
:1000C00000002C76D888DC674F0823DFC1DFAE59EB
:1000D000E1B1B796E5E3E453C63AE651997696E87E
:1000E000E6C28426EB898C9B62ED407C6FFCEFBC02
:1000F0009C9F40F2BAA56FA5F490055A2AF75C932D
:100100006B6CF9676DC11BFCE0E40D47FEF520E662
:10011000B500D0ED902E0300943577050080841E45
:10012000080000204E0A000000C80C333333330FA0
:10013000986E12831141EF8D2114893BE65516CF3D
:10014000FEE6DB18D1844B381BF77C1D901DA4BB49
:10015000E424203284725E228100C9F124ECA1E5FE
:100160003D2711241FBECFEFD8E0DEBFCDBF21E079
:10017000A0E0B1E001C01D92AF30B207E1F70E94EC
:1001800090020C94BB050C940000CF92DF92EF928A
:10019000FF920F931F93CF93DF93EC017C018C01AF
:1001A0000A5F1F4F6801F70181917F010E94710171
:1001B000E016F106C1F78601F12CE12C8A819B81C2
:1001C000E816F90648F0DF91CF911F910F91FF904B
:1001D000EF90DF90CF900895F80181918F010E94F8
:1001E0007101FFEFEF1AFF0AE9CFFC018BEA808370
:1001F00081EF611180EF8183138212828EEF8583FC
:10020000809100018483CF010C94C500FC018181A1
:10021000823091F050F422813381811115C0232B5B
:1002200041F060E0CF010C94F500803281F061E094
:10023000F9CF10920001FBCF82819381019789F75A
:10024000868180930001F3CF232B89F3EACF82814B
:100250009381019761F3E5CF41E051E064E070E004
:1002600085E091E00E94CC011092C50081E080936E
:10027000C40088E98093C10086E08093C200809129
:10028000C6008091C00087FDFACF82EC8093C00049
:1002900008951F920F920FB60F9211242F933F9340
:1002A0004F935F936F937F938F939F93AF93BF937E
:1002B000EF93FF936091C60085E091E00E94D80122
:1002C000FF91EF91BF91AF919F918F917F916F912E
:1002D0005F914F913F912F910F900FBE0F901F9004
:1002E00018959091C00095FFFCCF8093C6000895AB
:1002F000CF93DF93EC018991811103C0DF91CF91FE
:1003000008950E947101F7CFCF93DF9300D000D002
:1003100000D00F92CDB7DEB7362F272F4AE0BE01AF
:100320006F5F7F4F832F922F0E941803CE0101969B
:100330000E94780127960FB6F894DEBF0FBECDBF9E
:10034000DF91CF9108950F931F93CF93DF93CDB794
:10035000DEB769970FB6F894DEBF0FBECDBF8E0132
:100360000F5F1F4F2AE044E16E8B7F8B888F998F40
:100370006E897F89888D998D0E94EB02C8010E9449
:10038000780169960FB6F894DEBF0FBECDBFDF913E
:10039000CF911F910F910895FC01408751874483AD
:1003A0005583468357831382128271836083089535
:1003B000FC01F89482819381208131818217930717
:1003C00010F078940895019693838283A681B78173
:1003D0006C938681978101969783868340855185AA
:1003E00020813181240F351F8217930751F75783DE
:1003F0004683E7CFEF92FF920F931F93CF93DF9344
:10040000F82EE92EEB018B01040F151FC017D10741
:1004100039F4DF91CF911F910F91FF90EF900895E4
:1004200069918F2D9E2D0E94D801F0CFFC01F89488
:1004300024813581D9018C91428153814115510527
:1004400019F4789480E00895415051095383428310
:100450002F5F3F4F358324836085718540815181B3
:10046000460F571F2417350711F47583648378945A
:100470000895FC01F894828193817894892BD1F3BB
:10048000CF010C941602EF92FF920F931F93CF931C
:10049000DF93F82EE92EEB018B01040F151FC01717
:1004A000D10739F4DF91CF911F910F91FF90EF9019
:1004B00008958F2D9E2D0E9416028993F0CFDC01A6
:1004C000F8941496ED91FC911597E60FF71F2D9176
:1004D0003C91119718968D919C911997820F931FBB
:1004E000E817F90710F0E21BF30B12968D919C911F
:1004F000892B19F4789480E0089578948081089588
:10050000FC01F8948281938178940895FC018081A4
:100510009181F894228133817894821B930B089502
:10052000CDB7DEB7C650D1400FB6F894DEBF0FBED0
:10053000CDBF0E942C017894259A80E2B82E6E01DE
:1005400087E0C80ED11C85B18B2585B985E091E087
:100550000E9439028B3AD1F789837E01E2E0EE0EE8
:10056000F11C8E010F5F1F4F902EA12E85E091E0B0
:100570000E943902F70181937F01EC15FD05B1F767
:10058000EB80FC80F1E0EF16FF06E8F6E00EF11ECE
:10059000E016F106B9F48E818F3F21F090910001B1
:1005A000891721F0892D9A2D0E94C5008E81909186
:1005B0000001891711F08F3F31F6892D9A2D0E9485
:1005C0000601C1CF85E091E00E943902F8018683DF
:1005D0000F5F1F4FDDCFEF920F931F93CF93DF93EA
:1005E00000D000D00F92CDB7DEB7322F0D8354E08C
:1005F00047FD54E1242F27FD2195E52E032F4D8142
:10060000512F69837A838B839C8369817A818B8163
:100610009C810E943D038D81912F0F900F900F9030
:100620000F900F90DF91CF911F910F91EF90089550
:10063000BB274A3031F4992322F4BDE2909581958D
:100640009F4F0C942403BB27FB015527AA27880F33
:10065000991FAA1FA41710F0A41B83955051B9F736
:10066000A05DAA3308F0A95DA193009779F7B111B5
:10067000B1931192CB010C947405ADE0B0E0E3E4CA
:10068000F3E00C9484056A01F22E402E2E2C102FDC
:100690002BE3201708F41BE31F5F012F27E0AE01B7
:1006A0004F5F5F4F6A877B878C879D876A857B85D5
:1006B0008C859D850E9495044C015980852D8970FB
:1006C0000DE2813039F00BE221FC04C0022D0170F3
:1006D00020FC00E2422D4071342E952D987053FE7F
:1006E00041C083E0011184E08F1598F5F81A3110AC
:1006F0000BC0EF2CF12CA70160E270E0C6010E9454
:100700006D05CE0CDF1CF12C002319F0F6010193CE
:100710006F0186010D5F1F4F22FE1DC08EE4D601C2
:100720008C9391E411969C93119712968C93EF2CD5
:10073000F12CA70160E270E0C8010E946D05E00E97
:10074000F11ED7011C928EEF9FEF2D96E2E10C94E3
:10075000A005F12CCCCF8EE6F601808391E6918343
:100760008283E5CF52FE3EC083E0011184E08F1505
:1007700010F49F2D981B31100BC0E92EF12CA7010E
:1007800060E270E0C6010E946D05CE0CDF1C90E0B7
:10079000002319F0F60101936F017601B3E0EB0E2F
:1007A000F11C22FE14C089E4F60180838EE481836B
:1007B00086E48283092F10E0A80160E270E0C7019F
:1007C0000E946D05F701E00FF11F1082BCCF89E692
:1007D000D6018C938EE611968C93119786E612962D
:1007E0008C93E8CF540197FE02C0B12CA12C81E07C
:1007F00090E0011102C090E080E095012F5F3F4F33
:10080000820F931F642C712C93012F5F3F4F411077
:1008100002C030E020E0820F931FF816190609F09D
:100820000CF45FC0F81A31107DC023FC0BC0EF2C14
:10083000F12CA70160E270E0C6010E946D05CE0CAC
:10084000DF1CF12C002329F0F60101936F01311018
:100850000BC0EF2CF12CA70160E370E0C6010E94F1
:100860006D05CE0CDF1CF12C180D9A81252D207101
:1008700054FE03C0913309F411501116A4F5193038
:1008800008F018E0F401EA19FB0941E050E04C0FD0
:100890005D1FE40FF51FA401411B51097194619480
:1008A00071083EE28A149B0404F14A155B05ECF4DE
:1008B0008181B1E0AB1AB10886010F5F1F4FA6140A
:1008C000B704ACF0D6018C93BFEFAB16BB0631F486
:1008D00086010E5F1F4FD60111963C933196680139
:1008E000E1CFF12CA0CF11E0CDCF80E3E2CF8A148D
:1008F0009B0439F4963320F4953319F4211101C087
:1009000081E3F6018083EF2CF12CA70160E270E017
:10091000C8010E946D050E0D1F1DD8011C9290E0AC
:1009200080E013CF011190CF9FCF283008F027E04F
:100930003327DA01990F311D87FD9160009661051B
:10094000710539F432602E5F3D9330E32A95E1F76B
:1009500008959F3F30F080387105610509F03C5FD4
:100960003C5F3D93913008F08068911DDF93CF93F9
:100970001F930F93FF92EF92192F987F9695E92F6F
:1009800096959695E90FFF27EE53FF4F992733274A
:10099000EE24FF24A701E70105900894079428F4AA
:1009A000360FE71EF81E491F511D660F771F881F5F
:1009B000991F0694A1F70590079428F4E70EF81EF6
:1009C000491F561FC11D770F881F991F661F069468
:1009D000A1F70590079428F4F80E491F561FC71F6A
:1009E000D11D880F991F661F771F0694A1F70590E8
:1009F000079420F4490F561FC71FD81F990F661F71
:100A0000771F881F0694A9F784911095177041F0FD
:100A1000D695C79557954795F794E7941A95C1F7DA
:100A2000E8E6F0E0689415901591359165919591FF
:100A300005907FE27395E118F10A430B560BC90B41
:100A4000D009C0F7E10CF11E431F561FC91FD01D6E
:100A50007EF4703311F48A95E6CFE894015030F0BB
:100A6000080F0AF40027021708F4202F2395022FFD
:100A70007A3328F079E37D932A95E9F710C07D93C6
:100A80002A9589F606949795679537951795179443
:100A9000E118F10A430B560BC90BD00998F02395C6
:100AA0007E9173957A3308F070E37C932013B8F746
:100AB0007E9170617D9330F0839571E37D9370E357
:100AC0002A95E1F71124EF90FF900F911F91CF919C
:100AD000DF91992787FD90950895DC0101C06D9302
:100AE00041505040E0F70895DC01FC01672F7191FF
:100AF0007723E1F7329704C07C916D937083629104
:100B0000AE17BF07C8F308952F923F924F925F929E
:100B10006F927F928F929F92AF92BF92CF92DF920D
:100B2000EF92FF920F931F93CF93DF93CDB7DEB772
:100B3000CA1BDB0B0FB6F894DEBF0FBECDBF099406
:100B40002A88398848885F846E847D848C849B845D
:100B5000AA84B984C884DF80EE80FD800C811B816B
:100B6000AA81B981CE0FD11D0FB6F894DEBF0FBE9A
:0A0B7000CDBFED010895F894FFCF0A
:00000001FF
