:100000000C9434000C9451000C9451000C94510049
:100010000C9451000C9451000C9451000C9451001C
:100020000C9451000C9451000C9451000C9451000C
:100030000C9451000C9451000C9451000C945100FC
:100040000C9451000C9451000C94B0020C9451008B
:100050000C9451000C9451000C9451000C945100DC
:100060000C9451000C94510011241FBECFEFD8E026
:10007000DEBFCDBF11E0A0E0B1E0EEE4F1E102C0EF
:1000800005900D92A63AB107D9F724E0A6EAB1E0AF
:1000900001C01D92AC37B207E1F70E94E0070C9453
:1000A000A5080C9400000F931F93CF938C01FC01C3
:1000B000848195810696A1F0C0E090E080E0800FF9
:1000C000911FFC0180810E94D802CF5F8C2F90E0AD
:1000D000F801248135812A5F3F4F8217930778F317
:1000E000CF911F910F910895EF92FF920F931F935D
:1000F000CF93DF9300D000D000D0CDB7DEB79BEA1E
:100100009983811127C081EF8A831E821D828EEF21
:100110008C8380912F028B838E010E5F1F4F7E0197
:1001200087E0E80EF11C8BEA03C0F80181918F0192
:100130000E94D8020E151F05C1F726960FB6F89437
:10014000DEBF0FBECDBFDF91CF911F910F91FF900A
:10015000EF90089580EFD8CFCF93DF93CDB7DEB780
:1001600068970FB6F894DEBF0FBECDBF90E0FE01DA
:10017000319650E040E09C01042E02C0220F331F54
:100180000A94E2F7359527953595279520722083B7
:10019000118212824F5F5F4F33964830510559F7F5
:1001A00068E0CE0101960E942F048FEC97E0019742
:1001B000F1F700C0000068960FB6F894DEBF0FBEDE
:1001C000CDBFDF91CF910895EF92FF920F931F93D0
:1001D000CF93DF9300D000D000D0CDB7DEB7FC01C5
:1001E0009181903409F479C0A8F5913109F480C067
:1001F00008F465C09033E9F584819581019709F48D
:1002000068C08BEA898381EF8A831E821D828EEF0C
:100210008C8380912F028B838E010E5F1F4F7E0196
:10022000F7E0EF0EF11C8BEA03C0F80181918F011A
:100230000E94D8020E151F05C1F726960FB6F89436
:10024000DEBF0FBECDBFDF91CF911F910F91FF9009
:10025000EF900895903509F452C0913539F56DE26B
:1002600088EA91E00E942F0467E888EA91E00E9402
:10027000A7078BEA898380EF8A831E821D828EEF17
:100280008C8380912F028B838E010E5F1F4F7E0126
:10029000F7E0EF0EF11C8BEA03C0F80181918F01AA
:1002A0000E94D802E016F106C1F7C7CF913409F7D2
:1002B00064817581CF0106960E946D06DACF99237D
:1002C00079F09031B1F684819581892B01F5289AD6
:1002D000B4CF86810E94AC00CCCF0E944406C9CF27
:1002E00084819581019781F5868180932F02A5CF26
:1002F00084819581892B09F044C02898BACF0E9447
:10030000830767E888EA91E00E94A707B2CF8BEAEB
:10031000898381EF8A831E821D828EEF8C83809178
:100320002F028B838E010E5F1F4F7E01F7E0EF0ED1
:10033000F11C8BEA03C0F80181918F010E94D80261
:10034000E016F106C1F779CF8BEA898381EF8A83C2
:100350001E821D828EEF8C8380912F028B838E01F3
:100360000E5F1F4F7E0187E0E80EF11C8BEA03C091
:10037000F80181918F010E94D802E016F106C1F7C1
:100380005CCF8BEA898381EF8A831E821D828EEF88
:100390008C8380912F028B838E010E5F1F4F7E0115
:1003A000F7E0EF0EF11C8BEA03C0F80181918F0199
:1003B0000E94D8020E151F05C1F73FCF0F931F9360
:1003C000CF93DF93CDB7DEB7DA950FB6F894DEBFE3
:1003D0000FBECDBF28982FEF81EE94E021508040D2
:1003E0009040E1F700C000000E94CC050E94250764
:1003F0002FEF80E792E0215080409040E1F700C06D
:1004000000000E9425070E94FA050E9425070E940D
:1004100044060E94250760E071E0CE0101960E942B
:100420006D060E9425070E9444060E94250760E091
:1004300071E0CE0101960E946D060E94250701E23F
:1004400010E060E071E0CE0101960E946D0601505F
:100450001109B9F70E942507D3950FB6F894DEBFAE
:100460000FBECDBFDF91CF911F910F910895CF9314
:10047000DF93CDB7DEB7C150D1400FB6F894DEBFE1
:100480000FBECDBF289880E091E00E94DF020E945D
:1004900023058CE091E00E94DF028FE0EAE1F1E0C9
:1004A000DE01119601900D928A95E1F7BE016F5F12
:1004B0007F4F81E090E00E94340589E291E00E9444
:1004C000DF0240E051E068E770E0CE0101960E9453
:1004D000740881E090E00E948D0586E391E00E941F
:1004E000DF0202C00E94D80261E0CE018F5F9E4F02
:1004F0000E94A405CF5FDE4F8881C150D1409FEF9D
:10050000980F9E3F78F30E94B80585E491E00E9421
:10051000DF02CF5FDE4F0FB6F894DEBF0FBECDBF58
:10052000DF91CF91089546E353E06CE271E082E6FB
:1005300094E00E9429031092C50081E08093C400DA
:1005400088E98093C10086E08093C2008091C60054
:100550008091C00087FDFACF82EC8093C00008959F
:100560001F920F920FB60F9211242F933F934F9328
:100570005F936F937F938F939F93AF93BF93EF930B
:10058000FF936091C60082E694E00E943A03FF91D7
:10059000EF91BF91AF919F918F917F916F915F91FB
:1005A0004F913F912F910F900FBE0F901F90189574
:1005B0009091C00095FFFCCF8093C6000895FC0188
:1005C0009081992351F031968091C00085FFFCCF36
:1005D0009093C60091919111F7CF0895CF93DF9337
:1005E00000D000D000D00F92CDB7DEB7362F272F26
:1005F0004AE0BE016F5F7F4F832F922F0E947B08DE
:100600009981992359F0FE0132968091C00085FFAF
:10061000FCCF9093C60091919111F7CF27960FB61A
:10062000F894DEBF0FBECDBFDF91CF910895882330
:1006300041F08091C00085FFFCCF81E38093C6002C
:1006400008958091C00085FFFCCF80E38093C600B1
:100650000895FC01CA01518740875583448357831D
:1006600046831382128271836083860F971F93875C
:1006700082870895FC01F8948281938120813181E1
:100680008217930780F4019693838283A681B781B2
:100690006C93868197810196978386832285338523
:1006A0008217930711F07894089580859185978338
:1006B000868378940895CF93DF93FC01CA01009755
:1006C00051F1DB01AB01480F591F04C07894A41706
:1006D000B50709F16D91F894828193812081318170
:1006E0008217930798F7019693838283C681D781F7
:1006F00068838681978101969783868322853385D7
:100700008217930719F7808591859783868378945C
:10071000A417B507F9F6DF91CF910895FC01F8947D
:10072000228133812115310581F0A481B5818D911C
:100730002150310933832283B583A48322853385F5
:10074000A217B30729F078940895789480E008956B
:10075000208531853583248378940895FC01F894AD
:10076000828193817894892BD1F3F894228133810B
:100770002115310581F0A481B5818D912150310978
:1007800033832283B583A48322853385A217B307DD
:1007900029F078940895789480E008952085318533
:1007A0003583248378940895CF93DF93FC01CA01A5
:1007B000009711F1DB01AB01480F591F12C0C48132
:1007C000D5812991019793838283D583C4838285C0
:1007D0009385C817D90799F078942D93A417B50776
:1007E00059F0F89482819381009749F7789420E03A
:1007F0002D93A417B507A9F7DF91CF9108958085B0
:10080000918595838483E8CFFC01F894A481B58118
:10081000A60FB71F82859385A817B90720F080819E
:100820009181A81BB90B82819381892B19F078944F
:100830008C910895789480E00895FC01F894828169
:10084000938178940895FC0180819181F8942281AC
:1008500033817894821B930B0895219A0895DC01CB
:1008600095B145B1E62FEE0FE60F9D7F42602D91C9
:1008700045B9000027FF95B90000000095B90000B8
:100880000000000045B9000026FF95B900000000F7
:1008900095B900000000000045B9000025FF95B99A
:1008A0000000000095B900000000000045B90000FC
:1008B00024FF95B90000000095B900000000000079
:1008C00045B9000023FF95B90000000095B900006C
:1008D0000000000045B9000022FF95B900000000AB
:1008E00095B900000000000045B9000021FF95B94E
:1008F0000000000095B900003D9145B9000020FFBF
:1009000095B9232FEA9595B909F0B2CF08952998A2
:100910008FE891E00197F1F700C0000008955C9A1C
:10092000549A5B9A539A5A9A529A239A259A229ADF
:1009300080E58CBD81E08DBD5C9889E98EBD0DB4EC
:1009400007FEFDCF8EB55C9A08958EBD0DB407FEEF
:10095000FDCF8EB508958FEF8EBD0DB407FEFDCF90
:100960008EB508955C9885E08EBD0DB407FEFDCF71
:100970008EB58FEF8EBD0DB407FEFDCF8EB55C9AA0
:1009800008955C9889E98EBD0DB407FEFDCF8EB544
:100990005C9A08955C988FE98EBD0DB407FEFDCF7B
:1009A0008EB58FEF8EBD0DB407FEFDCF8EB55C9A70
:1009B00008955C9885E08EBD0DB407FEFDCF8EB521
:1009C0008FEF8EBD0DB407FEFDCF8EB55C9A8170A2
:1009D000089525E09FEF5C982EBD0DB407FEFDCF76
:1009E0008EB59EBD0DB407FEFDCF8EB55C9A80FD21
:1009F000F2CF08955C9886E08EBD0DB407FEFDCF62
:100A00008EB55C9A08955C9826E02EBD0DB407FE65
:100A1000FDCF2EB55C9A5C9820E22EBD0DB407FE8A
:100A2000FDCF2EB59EBD0DB407FEFDCF9EB58EBD8C
:100A30000DB407FEFDCF8EB51EBC0DB407FEFDCF75
:100A40008EB55C9A08955C9886E08EBD0DB407FE65
:100A5000FDCF8EB55C9A5C9887EC8EBD0DB407FE19
:100A6000FDCF8EB55C9A08959C01962F872F5C98D8
:100A700046E04EBD0DB407FEFDCF4EB55C9A5C98C6
:100A800042E04EBD0DB407FEFDCF4EB53EBD0DB4E8
:100A900007FEFDCF3EB52EBD0DB407FEFDCF2EB532
:100AA0001EBC0DB407FEFDCF2EB5E92FF82F9F0118
:100AB000339581918EBD0DB407FEFDCF8EB5E21743
:100AC000F307B9F75C9A08959C01962F872F5C98DD
:100AD00043E04EBD0DB407FEFDCF4EB53EBD0DB497
:100AE00007FEFDCF3EB52EBD0DB407FEFDCF2EB5E2
:100AF0001EBC0DB407FEFDCF2EB5E92FF82F9F01C8
:100B000033959FEF9EBD0DB407FEFDCF8EB581934B
:100B1000E217F307B9F75C9A08955C9823E02EBDBD
:100B20000DB407FEFDCF2EB59EBD0DB407FEFDCF63
:100B30009EB58EBD0DB407FEFDCF8EB51EBC0DB4A7
:100B400007FEFDCF8EB50895662389F0FC019C0158
:100B50002F5F3F4F6150260F311D9FEF9EBD0DB49B
:100B600007FEFDCF8EB58193E217F307B9F708951D
:100B70005C9A08955C9885E78EBD0DB407FEFDCFA5
:100B80008EB55C9A08955C988AE78EBD0DB407FE19
:100B9000FDCF8EB55C9A089510927B0410927A0472
:100BA00010927904109278041092770410927604CF
:100BB00010927504109274041092730410927204CF
:100BC00090E080E00E9403050E94E90480E190E04B
:100BD00090936F0480936E048091780490917904CF
:100BE000409739F080E190E00E94030581E0809316
:100BF0007B04089580917A0481111EC080917B044A
:100C0000811111C080916E0490916F04209178043D
:100C1000309179042817390771F00E94030581E0AB
:100C200080937B0408950E94D904882381F08091E9
:100C30007B04882339F308950E94B80510927A0442
:100C400080917B048823F1F20E94C305D7CF1092D4
:100C50007B0480916E0490916F04409690936F0492
:100C600080936E04D3CF80916E0490916F04209195
:100C70007804309179048217930729F00E940305C4
:100C800081E080937B0408958091780490917904A9
:100C90002091760430917704820F931F909379040A
:100CA0008093780410927704109276041092750461
:100CB00010927404109273041092720408950E94AA
:100CC000E90410927B0480916E0490916F04409629
:100CD00090936F0480936E040895CF92DF92EF9209
:100CE000FF920F931F93CF93DF93D82EC92E8B01C2
:100CF00020917A04211151C0209178043091790417
:100D0000C0917604D0917704C20FD31FE0906E0497
:100D1000F0906F0480917B04EC16FD0609F46FC01F
:100D2000811184C06D2D7C2DCE010E9434050E945E
:100D3000E90480917604909177040196909377046A
:100D4000809376042091720430917304200F311F38
:100D5000309373042093720427383105A8F08091F2
:100D6000740490917504019627583109582F492F22
:100D7000019627383105C0F75093740440937504E9
:100D80003093730420937204DF91CF911F910F91E0
:100D9000FF90EF90DF90CF9008950E94B8051092D9
:100DA0007A0480917B0481114DC0209178043091A8
:100DB0007904C0917604D0917704C20FD31F80913B
:100DC0006E0490916F048C179D0709F0ABCF7E01E4
:100DD000E216F30631F0C7010E94030581E080931B
:100DE0007B040E94E90410927B0480916E04909130
:100DF0006F04409690936F0480936E0493CF882382
:100E000039F30E94E90410927B0480916E04909162
:100E10006F04409690936F0480936E046D2D7C2D2B
:100E2000C7010E9434050E94E90483CF0E94BA05DD
:100E30006D2D7C2DCE010E9434050E94E9040E9494
:100E4000C30577CF0E94C30557CFCF93DF9300D060
:100E500000D0CDB7DEB781E591E00E94DF0280913E
:100E60007804909179049C0150E040E0CA01B901F6
:100E70000E94EE028FE591E00E94DF0280917604ED
:100E8000909177049C0150E040E0CA01B9010E94B2
:100E9000EE0285E791E00E94DF0280917B040E94D0
:100EA000170381E891E00E94DF0280917A040E949A
:100EB00017038DE891E00E94DF0280916E0490910B
:100EC0006F049C0150E040E029833A834B835C83AC
:100ED000CA01B9010E94EE028CE991E00E94DF0292
:100EE0000E94D904982F81E0911101C080E00E94F6
:100EF000170387E291E00F900F900F900F90DF9112
:100F0000CF910C94DF0280917A04811115C08091F9
:100F10007B0481110EC080917804909179040E9425
:100F20008D0581E080937A04109271041092700410
:100F300008950E94BA05EFCF0E94B80510927A0476
:100F400080917B04882339F30E94C305E0CF1F936F
:100F5000CF93DF93D82FC92F162F80917A0488233F
:100F6000C9F02091700430917104809174049091C3
:100F700075042817390791F0612F8D2F9C2F0E943F
:100F8000A40580917004909171040196909371046E
:100F900080937004DF91CF911F9108950E94830781
:100FA000EBCF80917A04811101C008950E94B805A9
:100FB00010927A0480917B048823B9F30C94C305C2
:100FC000289A209A88B1807188B93C9A3A9A2FEF72
:100FD00081EE94E0215080409040E1F700C0000095
:100FE000449A0E942D040E9493020E948F047894D8
:100FF0008FEF0E94AC00EFEFF4E32CE0E150F04003
:101000002040E1F700C0000080E00E94AC000AEF41
:101010001FEF0053124082E694E00E94AE038B3A29
:10102000D1F780933002C1E3D2E082E694E00E94DF
:10103000AE03899382E0C633D807B9F780913402B2
:10104000909135028130E1E09E0728F7C6E3D2E0B7
:10105000892B79F082E694E00E94AE038993C8015F
:101060008C0F9D1F20913402309135028217930717
:1010700088F380913102813499F18091330290910B
:101080002F028917F9F08F3FE9F080913402909197
:101090003502069609F4BFCFC0E080E090E0805DA5
:1010A0009D4FFC0180810E94D802CF5F8C2F90E081
:1010B00020913402309135022A5F3F4F8217930707
:1010C00070F3A9CF80E392E00E94E40080913302A4
:1010D0008F3FD9F290912F02891709F49CCFD5CF79
:1010E00080EF0E94AC00C9CFDC0101C06D9341507C
:1010F0005040E0F70895BB27FB015527AA27880F2A
:10110000991FAA1FA41710F0A41B83955051B9F77B
:10111000A05DAA3308F0A95DA193009779F7B111FA
:10112000B1931192CB010C949508DC01FC01672F5F
:1011300071917723E1F7329704C07C916D937083AE
:0E1140006291AE17BF07C8F30895F894FFCF71
:10114E000D0A537461727465640D0A004368697008
:10115E00206572617365640D0A0048656C6C6F20C2
:10116E00776F726C64210D0A005772697465206482
:10117E006F6E650D0A00526561642073746172743E
:10118E0065640D0A005265616420646F6E650D0A18
:10119E0000696D6167655F73746172743A20002C2B
:1011AE0020696D6167655F6C656E6774685F7061FD
:1011BE0067653A20002C2065726173696E673A206C
:1011CE00002C2072656164696E673A20002C2065E0
:1011DE00726173655F6E6578743A20002C206275BB
:0611EE0073793A200000B5
:00000001FF
