:100000000C9434000C9451000C9451000C94510049
:100010000C94D4010C9451000C9451000C94510098
:100020000C9451000C9451000C9451000C9451000C
:100030000C9451000C9451000C9451000C945100FC
:100040000C9451000C9451000C9443030C945100F7
:100050000C9451000C9451000C9451000C945100DC
:100060000C9451000C94510011241FBECFEFD8E026
:10007000DEBFCDBF11E0A0E0B1E0E4EBF2E102C0F1
:1000800005900D92A63FB107D9F724E0A6EFB1E0A5
:1000900001C01D92AC3CB207E1F70E949A080C9493
:1000A00058090C9400000F931F93CF938C01FC010F
:1000B000848195810696A1F0C0E090E080E0800FF9
:1000C000911FFC0180810E946B03CF5F8C2F90E019
:1000D000F801248135812A5F3F4F8217930778F317
:1000E000CF911F910F910895EF92FF920F931F935D
:1000F000CF93DF9300D000D000D0CDB7DEB79BEA1E
:100100009983811127C081EF8A831E821D828EEF21
:100110008C8380917F028B838E010E5F1F4F7E0147
:1001200087E0E80EF11C8BEA03C0F80181918F0192
:100130000E946B030E151F05C1F726960FB6F894A3
:10014000DEBF0FBECDBFDF91CF911F910F91FF900A
:10015000EF90089580EFD8CF482F50E0E8EFF1E01E
:1001600030E020E0CA01022E02C0880F991F0A94D5
:10017000E2F7959587959595879580728083118292
:1001800012822F5F3F4F33962830310559F7E0E157
:10019000F2E08FE6DF011D928A95E9F76DE288EFC4
:1001A00091E00E94C2048FEC97E00197F1F700C044
:1001B00000000895EF92FF920F931F93CF93DF9368
:1001C00000D000D000D0CDB7DEB7FC0191819034D3
:1001D00009F479C0A8F5913109F480C008F465C02C
:1001E0009033E9F584819581019709F468C08BEA21
:1001F000898381EF8A831E821D828EEF8C8380919A
:100200007F028B838E010E5F1F4F7E01F7E0EF0EA2
:10021000F11C8BEA03C0F80181918F010E946B03EE
:100220000E151F05C1F726960FB6F894DEBF0FBE58
:10023000CDBFDF91CF911F910F91FF90EF90089567
:10024000903509F452C0913539F56DE288EF91E0AF
:100250000E94C20467E888EF91E00E9461088BEA7F
:10026000898380EF8A831E821D828EEF8C8380912A
:100270007F028B838E010E5F1F4F7E01F7E0EF0E32
:10028000F11C8BEA03C0F80181918F010E946B037E
:10029000E016F106C1F7C7CF913409F76481758183
:1002A000CF0106960E940007DACF992379F09031AA
:1002B000B1F684819581892B01F5289AB4CF868186
:1002C0000E94AC00CCCF0E94D706C9CF8481958113
:1002D000019781F5868180937F02A5CF84819581E6
:1002E000892B09F044C02898BACF0E943D0867E8DE
:1002F00088EF91E00E946108B2CF8BEA898381EF99
:100300008A831E821D828EEF8C8380917F028B8375
:100310008E010E5F1F4F7E01F7E0EF0EF11C8BEA9E
:1003200003C0F80181918F010E946B03E016F10672
:10033000C1F779CF8BEA898381EF8A831E821D8280
:100340008EEF8C8380917F028B838E010E5F1F4F17
:100350007E0187E0E80EF11C8BEA03C0F801819171
:100360008F010E946B03E016F106C1F75CCF8BEAA8
:10037000898381EF8A831E821D828EEF8C83809118
:100380007F028B838E010E5F1F4F7E01F7E0EF0E21
:10039000F11C8BEA03C0F80181918F010E946B036D
:1003A0000E151F05C1F73FCF1F920F920FB60F9288
:1003B00011242F933F934F935F936F937F938F936A
:1003C0009F93AF93BF93EF93FF938091CA048823C9
:1003D00051F06DE288EF91E00E94C20467E888EF77
:1003E00091E00E946108FF91EF91BF91AF919F91C1
:1003F0008F917F916F915F914F913F912F910F90CE
:100400000FBE0F901F9018950F931F93CF93DF93FC
:10041000CDB7DEB7DA950FB6F894DEBF0FBECDBF0D
:1004200028982FEF81EE94E0215080409040E1F732
:1004300000C000000E945F060E94B8072FEF80E70F
:1004400092E0215080409040E1F700C000000E94FF
:10045000B8070E948D060E94B8070E94D7060E9426
:10046000B80760E071E0CE0101960E9400070E948B
:10047000B8070E94D7060E94B80760E071E0CE017D
:1004800001960E9400070E94B80701E210E060E0B8
:1004900071E0CE0101960E94000701501109B9F7E1
:1004A0000E94B807D3950FB6F894DEBF0FBECDBF3C
:1004B000DF91CF911F910F910895CF93DF93CDB727
:1004C000DEB7C450D1400FB6F894DEBF0FBECDBF2B
:1004D0008AE289838BE28A838CE28B830E945F06A7
:1004E0000E94B8070E948D060E94B8070E94D70696
:1004F00060E071E0CE0101960E94000760E170E0CB
:10050000CE0101960E9400070E94B8070E943D0894
:100510000E94B80781E0898382E08A8383E08B832D
:1005200067E8CE0101960E94610880E091E00E9498
:1005300072038981282F30E050E040E0CA01B90100
:100540000E9481038AE091E00E9472038A81282F31
:1005500030E050E040E0CA01B9010E94810386E129
:1005600091E00E9472038B81282F30E050E040E040
:10057000CA01B9010E94810389E491E00E947203DB
:10058000CC5FDE4F0FB6F894DEBF0FBECDBFDF915C
:10059000CF910895CF93DF93CDB7DEB7C150D1404F
:1005A0000FB6F894DEBF0FBECDBF289882E291E06F
:1005B0000E9472030E94B6058EE291E00E947203CF
:1005C0008FE0ECE3F1E0DE01119601900D928A9547
:1005D000E1F7BE016F5F7F4F81E090E00E94C705A9
:1005E0008BE491E00E94720340E051E068E770E024
:1005F000CE0101960E94270981E090E00E9420062A
:1006000088E591E00E94720302C00E946B0361E0E2
:10061000CE018F5F9E4F0E943706CF5FDE4F8881ED
:10062000C150D1409FEF980F9E3F78F30E944B0638
:1006300087E691E00E947203CF5FDE4F0FB6F89419
:10064000DEBF0FBECDBFDF91CF91089546E853E0E6
:100650006CE271E082EB94E00E94BC031092C50052
:1006600081E08093C40088E98093C10086E0809394
:10067000C2008091C6008091C00087FDFACF82EC55
:100680008093C00008951F920F920FB60F9211240D
:100690002F933F934F935F936F937F938F939F938A
:1006A000AF93BF93EF93FF936091C60082EB94E00A
:1006B0000E94CD03FF91EF91BF91AF919F918F91D8
:1006C0007F916F915F914F913F912F910F900FBE4E
:1006D0000F901F9018959091C00095FFFCCF8093CC
:1006E000C6000895FC019081992351F031968091C4
:1006F000C00085FFFCCF9093C60091919111F7CF78
:100700000895CF93DF9300D000D000D00F92CDB7E3
:10071000DEB7362F272F4AE0BE016F5F7F4F832F52
:10072000922F0E942E099981992359F0FE01329649
:100730008091C00085FFFCCF9093C60091919111EC
:10074000F7CF27960FB6F894DEBF0FBECDBFDF916F
:10075000CF910895882341F08091C00085FFFCCFA0
:1007600081E38093C60008958091C00085FFFCCF8F
:1007700080E38093C6000895FC01CA015187408739
:100780005583448357834683138212827183608327
:10079000860F971F938782870895FC01F8948281C2
:1007A0009381208131818217930780F4019693838E
:1007B0008283A681B7816C93868197810196978306
:1007C0008683228533858217930711F078940895E4
:1007D000808591859783868378940895CF93DF935E
:1007E000FC01CA01009751F1DB01AB01480F591F11
:1007F00004C07894A417B50709F16D91F89482812B
:100800009381208131818217930798F70196938312
:100810008283C681D7816883868197810196978379
:100820008683228533858217930719F78085918502
:10083000978386837894A417B507F9F6DF91CF9153
:100840000895FC01F894228133812115310581F04E
:10085000A481B5818D912150310933832283B583E1
:10086000A48322853385A217B30729F078940895CD
:10087000789480E0089520853185358324837894A9
:100880000895FC01F894828193817894892BD1F3A7
:10089000F894228133812115310581F0A481B5813D
:1008A0008D912150310933832283B583A48322851E
:1008B0003385A217B30729F078940895789480E0DF
:1008C0000895208531853583248378940895CF93C6
:1008D000DF93FC01CA01009711F1DB01AB01480F66
:1008E000591F12C0C481D5812991019793838283B6
:1008F000D583C48382859385C817D90799F07894E6
:100900002D93A417B50759F0F8948281938100972D
:1009100049F7789420E02D93A417B507A9F7DF9144
:10092000CF9108958085918595838483E8CFFC01DC
:10093000F894A481B581A60FB71F82859385A81767
:10094000B90720F080819181A81BB90B8281938126
:10095000892B19F078948C910895789480E008950B
:10096000FC01F8948281938178940895FC01808140
:100970009181F894228133817894821B930B08959E
:10098000219A0895DC0195B145B1E62FEE0FE60FEF
:100990009D7F42602D9145B9000027FF95B9000069
:1009A000000095B900000000000045B9000026FFD6
:1009B00095B90000000095B900000000000045B99D
:1009C000000025FF95B90000000095B90000000067
:1009D000000045B9000024FF95B90000000095B95A
:1009E00000000000000045B9000023FF95B9000099
:1009F000000095B900000000000045B9000022FF8A
:100A000095B90000000095B900000000000045B94C
:100A1000000021FF95B90000000095B900003D914C
:100A200045B9000020FF95B9232FEA9595B909F043
:100A3000B2CF089529988FE891E00197F1F700C0AF
:100A4000000008955C9A549A5B9A539A5A9A529A63
:100A5000239A259A229A80E58CBD81E08DBD5C9811
:100A600089E98EBD0DB407FEFDCF8EB55C9A089561
:100A70008EBD0DB407FEFDCF8EB508958FEF8EBDF0
:100A80000DB407FEFDCF8EB508955C9885E08EBD50
:100A90000DB407FEFDCF8EB58FEF8EBD0DB407FEF2
:100AA000FDCF8EB55C9A08955C9889E98EBD0DB432
:100AB00007FEFDCF8EB55C9A08955C988FE98EBDD8
:100AC0000DB407FEFDCF8EB58FEF8EBD0DB407FEC2
:100AD000FDCF8EB55C9A08955C9885E08EBD0DB40F
:100AE00007FEFDCF8EB58FEF8EBD0DB407FEFDCF97
:100AF0008EB55C9A8170089525E09FEF5C982EBDBD
:100B00000DB407FEFDCF8EB59EBD0DB407FEFDCF23
:100B10008EB55C9A80FDF2CF08955C9886E08EBD1C
:100B20000DB407FEFDCF8EB55C9A08955C9826E063
:100B30002EBD0DB407FEFDCF2EB55C9A5C9820E269
:100B40002EBD0DB407FEFDCF2EB59EBD0DB407FE24
:100B5000FDCF9EB58EBD0DB407FEFDCF8EB51EBC7C
:100B60000DB407FEFDCF8EB55C9A08955C9886E0C3
:100B70008EBD0DB407FEFDCF8EB55C9A5C9887ECF8
:100B80008EBD0DB407FEFDCF8EB55C9A08959C0115
:100B9000962F872F5C9846E04EBD0DB407FEFDCF23
:100BA0004EB55C9A5C9842E04EBD0DB407FEFDCF99
:100BB0004EB53EBD0DB407FEFDCF3EB52EBD0DB406
:100BC00007FEFDCF2EB51EBC0DB407FEFDCF2EB522
:100BD000E92FF82F9F01339581918EBD0DB407FE4B
:100BE000FDCF8EB5E217F307B9F75C9A08959C0123
:100BF000962F872F5C9843E04EBD0DB407FEFDCFC6
:100C00004EB53EBD0DB407FEFDCF3EB52EBD0DB4B5
:100C100007FEFDCF2EB51EBC0DB407FEFDCF2EB5D1
:100C2000E92FF82F9F0133959FEF9EBD0DB407FE6E
:100C3000FDCF8EB58193E217F307B9F75C9A08955B
:100C40005C9823E02EBD0DB407FEFDCF2EB59EBDF2
:100C50000DB407FEFDCF9EB58EBD0DB407FEFDCFD2
:100C60008EB51EBC0DB407FEFDCF8EB5089566236C
:100C700089F0FC019C012F5F3F4F6150260F311D11
:100C80009FEF9EBD0DB407FEFDCF8EB58193E21799
:100C9000F307B9F708955C9A08955C9885E78EBDCF
:100CA0000DB407FEFDCF8EB55C9A08955C988AE777
:100CB0008EBD0DB407FEFDCF8EB55C9A08951092DF
:100CC000CB041092CA041092C9041092C804109266
:100CD000C7041092C6041092C5041092C404109266
:100CE000C3041092C20490E080E00E9496050E9426
:100CF0007C0580E190E09093BF048093BE048091D6
:100D0000C8049091C904409739F080E190E00E94B6
:100D1000960581E08093CB0408958091CA048111E7
:100D20001EC08091CB04811111C08091BE049091AE
:100D3000BF042091C8043091C9042817390771F005
:100D40000E94960581E08093CB0408950E946C0573
:100D5000882381F08091CB04882339F308950E9481
:100D60004B061092CA048091CB048823F1F20E94B2
:100D70005606D7CF1092CB048091BE049091BF0449
:100D800040969093BF048093BE04D3CF8091BE045D
:100D90009091BF042091C8043091C9048217930731
:100DA00029F00E94960581E08093CB0408958091FC
:100DB000C8049091C9042091C6043091C704820FE1
:100DC000931F9093C9048093C8041092C704109293
:100DD000C6041092C5041092C4041092C304109269
:100DE000C20408950E947C051092CB048091BE0439
:100DF0009091BF0440969093BF048093BE040895E1
:100E0000CF92DF92EF92FF920F931F93CF93DF93D6
:100E1000D82EC92E8B012091CA04211151C02091D6
:100E2000C8043091C904C091C604D091C704C20F50
:100E3000D31FE090BE04F090BF048091CB04EC1669
:100E4000FD0609F46FC0811184C06D2D7C2DCE018B
:100E50000E94C7050E947C058091C6049091C7043A
:100E600001969093C7048093C6042091C2043091E8
:100E7000C304200F311F3093C3042093C2042738CA
:100E80003105A8F08091C4049091C50401962758BB
:100E90003109582F492F019627383105C0F7509353
:100EA000C4044093C5043093C3042093C204DF916B
:100EB000CF911F910F91FF90EF90DF90CF90089509
:100EC0000E944B061092CA048091CB0481114DC040
:100ED0002091C8043091C904C091C604D091C704C0
:100EE000C20FD31F8091BE049091BF048C179D0741
:100EF00009F0ABCF7E01E216F30631F0C7010E9484
:100F0000960581E08093CB040E947C051092CB046F
:100F10008091BE049091BF0440969093BF0480934B
:100F2000BE0493CF882339F30E947C051092CB0432
:100F30008091BE049091BF0440969093BF0480932B
:100F4000BE046D2D7C2DC7010E94C7050E947C0543
:100F500083CF0E944D066D2D7C2DCE010E94C705CA
:100F60000E947C050E94560677CF0E94560657CFF6
:100F7000CF93DF9300D000D0CDB7DEB783E791E009
:100F80000E9472038091C8049091C9049C0150E0B2
:100F900040E0CA01B9010E94810381E891E00E940A
:100FA00072038091C6049091C7049C0150E040E018
:100FB000CA01B9010E94810387E991E00E9472038E
:100FC0008091C4049091C5049C0150E040E0CA01A6
:100FD000B9010E94810380EB91E00E94720380912D
:100FE000C2049091C3049C0150E040E0CA01B901E1
:100FF0000E94810386EC91E00E9472038091CB04F1
:101000000E94AA0382ED91E00E9472038091CA04BB
:101010000E94AA038EED91E00E9472038091BE04AB
:101020009091BF049C0150E040E029833A834B83B8
:101030005C83CA01B9010E9481038DEE91E00E9498
:1010400072038091CA04811112C00E946C05982F0E
:1010500081E0992381F00E94AA0389E491E00F9036
:101060000F900F900F90DF91CF910C9472038FE34C
:101070000E946B03F2CF80E0EECF8091CA04811111
:1010800015C08091CB0481110EC08091C80490914D
:10109000C9040E94200681E08093CA041092C10412
:1010A0001092C00408950E944D06EFCF0E944B0697
:1010B0001092CA048091CB04882339F30E9456060B
:1010C000E0CF1F93CF93DF93D82FC92F162F809196
:1010D000CA048823C9F02091C0043091C1048091D2
:1010E000C4049091C5042817390791F0612F8D2F02
:1010F0009C2F0E9437068091C0049091C1040196F4
:101100009093C1048093C004DF91CF911F91089503
:101110000E943D08EBCF8091CA04811101C008955F
:101120000E944B061092CA048091CB048823B9F325
:101130000C945606289A209A88B1807188B93C9AF6
:101140003A9A2FEF81EE94E0215080409040E1F7F1
:1011500000C00000449A0E94C0040E9426030E941E
:1011600022050E945F06789480E00E94AC003898C7
:10117000409A8091680082608093680080916C0042
:10118000816080936C000AEF1FEF0058124082EBE1
:1011900094E00E9441048B3AD1F780938002C1E829
:1011A000D2E082EB94E00E9441048993E2E0C638E9
:1011B000DE07B9F780918402909185028130F1E0D9
:1011C0009F0728F7C6E8D2E0009779F082EB94E019
:1011D0000E944104899398012C0F3D1F8091840245
:1011E000909185022817390788F320918302309166
:1011F0007F022317D1F02F3FC1F0069641F2C0E0E5
:1012000080E090E080589D4FFC0180810E946B033C
:10121000CF5F8C2F90E020918402309185022A5F6D
:101220003F4F8217930770F3B2CF80E892E00E949D
:10123000DA00809183028F3F29F090917F02891715
:1012400009F4A5CF8091840290918502D6CFDC016C
:1012500001C06D9341505040E0F70895BB27FB015A
:101260005527AA27880F991FAA1FA41710F0A41B9F
:1012700083955051B9F7A05DAA3308F0A95DA193F9
:10128000009779F7B111B1931192CB010C944809F1
:10129000DC01FC01672F71917723E1F7329704C0DD
:1012A0007C916D9370836291AE17BF07C8F3089568
:0412B000F894FFCFE0
:1012B400646174615B305D3A20002C206461746168
:1012C4005B315D3A20002C20646174615B325D3ACD
:1012D40020000D0A537461727465640D0A0043683A
:1012E4006970206572617365640D0A0048656C6CF1
:1012F4006F20776F726C64210D0A005772697465F0
:1013040020646F6E650D0A00526561642073746118
:10131400727465640D0A005265616420646F6E65C1
:101324000D0A00696D6167655F73746172743A20B8
:10133400002C20696D6167655F6C656E6774685F1A
:10134400706167653A20002C20696D6167655F6C88
:10135400656E6774685F636F6C756D6E733A2000B9
:101364002C20696D6167655F65787472615F62796D
:101374007465733A20002C2065726173696E673A54
:1013840020002C2072656164696E673A20002C206D
:1013940065726173655F6E6578743A20002C206213
:0613A4007573793A200088
:00000001FF
