:100000000C9434000C9451000C9451000C94510049
:100010000C9451000C9451000C9451000C9451001C
:100020000C9451000C9451000C9451000C9451000C
:100030000C9451000C9451000C9451000C945100FC
:100040000C9451000C9451000C94ED010C9451004F
:100050000C9451000C9451000C9451000C945100DC
:100060000C9451000C94510011241FBECFEFD8E026
:10007000DEBFCDBF11E0A0E0B1E0E2ECFCE002C0E9
:1000800005900D92A63AB107D9F723E0A6EAB1E0B0
:1000900001C01D92A237B207E1F70E94B9050C9486
:1000A0005F060C9400001F93CF93DF93EC0110E0E8
:1000B000812F90E02C813D812A5F3F4F821793076B
:1000C00020F0DF91CF911F9108958C0F9D1FFC01AF
:1000D00080810E9415021F5FEBCFCF93DF9300D08A
:1000E00000D000D0CDB7DEB79BEA9983811116C04E
:1000F00081EF8A831E821D828EEF8C8380912F0276
:100100008B83CE0101960E94530026960FB6F89479
:10011000DEBF0FBECDBFDF91CF91089580EFE9CF55
:10012000CF93DF93CDB7DEB768970FB6F894DEBFF5
:100130000FBECDBF682FFE01319650E040E0CF01E9
:1001400070E09B01042E02C0220F331F0A94E2F7D5
:100150003595279535952795207220831182128237
:100160004F5F5F4F33964830510559F768E00E9462
:1001700014038FEC97E00197F1F700C00000689638
:100180000FB6F894DEBF0FBECDBFDF91CF910895BB
:10019000FC0181818034E1F198F4813191F130F4F6
:1001A0008823D9F0803131F181E01CC08033E1F740
:1001B000848195810197A9F486810E949000F4CFF3
:1001C000803549F1813579F1813471F76481758128
:1001D000CF0106960E943805E7CF8481958101976B
:1001E00019F080E00C946D00868180932F0282E0EC
:1001F0000C94900084819581892B99F7289A81E04D
:10020000F7CF84819581892B61F7289884E0F0CF1E
:100210000E947E04C9CF0E94A50567E888EA91E0A4
:100220000E940505C1CF6DE288EA91E00E941403A7
:10023000F4CFEF92FF920F931F93CF93DF93CDB73D
:10024000DEB7DA950FB6F894DEBF0FBECDBF2898A3
:100250002FEF81EE94E0215080409040E1F700C004
:1002600000000E945C040E94A7042FEF80E792E048
:10027000215080409040E1F700C000000E94A70498
:100280000E9419050E94A7040E947E040E94A704F0
:1002900060E071E08E010F5F1F4FC8010E943805BA
:1002A0000E94A7040E947E040E94A70460E071E0FF
:1002B000C8010E9438050E94A70481E2E82EF12CB3
:1002C00060E071E0C8010E94380521E0E21AF108FF
:1002D000B9F70E94A704D3950FB6F894DEBF0FBEFE
:1002E000CDBFDF91CF911F910F91FF90EF900895B7
:1002F000CF93DF93CDB7DEB7C150D1400FB6F8949E
:10030000DEBF0FBECDBF289880E091E00E941C02A6
:100310000E94CB038CE091E00E941C026AE171E034
:10032000CE0101960E942E06BE016F5F7F4F81E0D5
:1003300090E00E94D30389E291E00E941C0240E019
:1003400051E068E770E0CE0101960E94270681E047
:1003500090E00E94170486E391E00E941C0261E095
:10036000CE018F5F9E4F0E942904CF5FDE4F8881B0
:10037000C150D1409FEF980F9E3F18F40E94150284
:10038000EECF0E943D0485E491E00E941C02CF5F05
:10039000DE4F0FB6F894DEBF0FBECDBFDF91CF9119
:1003A000089540E352E06CE271E08CE593E00E9436
:1003B0004E021092C5001092C40088E98093C100DB
:1003C00086E08093C2008091C6008091C00087FDC6
:1003D000FACF82EC8093C00008951F920F920FB65F
:1003E0000F9211242F933F934F935F936F937F93BB
:1003F0008F939F93AF93BF93EF93FF936091C6004A
:100400008CE593E00E945A02FF91EF91BF91AF916A
:100410009F918F917F916F915F914F913F912F911C
:100420000F900FBE0F901F9018959091C00095FFF0
:10043000FCCF8093C6000895CF93DF93EC018991A0
:10044000811103C0DF91CF9108950E941502F7CF6B
:10045000CF93DF9300D000D000D00F92CDB7DEB79E
:10046000362F272F4AE0BE016F5F7F4F832F922FD9
:100470000E943506CE0101960E941C0227960FB6F7
:10048000F894DEBF0FBECDBFDF91CF9108958823D2
:1004900019F081E30C94150280E3FCCFFC01408746
:1004A0005187448355834683578313821282718315
:1004B00060830895FC01F8948281938120813181C9
:1004C0008217930710F0789408950196938382839E
:1004D000A681B7816C9386819781019697838683E5
:1004E0004085518520813181240F351F8217930764
:1004F00051F757834683E7CFEF92FF920F931F93F5
:10050000CF93DF93F82EE92EEB018B01040F151F1B
:10051000C017D10739F4DF91CF911F910F91FF9050
:10052000EF90089569918F2D9E2D0E945A02F0CF71
:10053000FC01F89424813581D9018C914281538149
:100540004115510519F4789480E0089541505109FE
:10055000538342832F5F3F4F3583248360857185AA
:1005600040815181460F571F2417350711F47583B9
:10057000648378940895FC01F8948281938178943F
:10058000892BD1F3CF010C949802EF92FF920F9335
:100590001F93CF93DF93F82EE92EEB018B01040F0D
:1005A000151FC017D10739F4DF91CF911F910F911B
:1005B000FF90EF9008958F2D9E2D0E9498028993B1
:1005C000F0CFDC01F8941496ED91FC911597E60FAD
:1005D000F71F2D913C91119718968D919C91199729
:1005E000820F931FE817F90710F0E21BF30B129626
:1005F0008D919C91892B19F4789480E008957894DA
:1006000080810895FC01F894828193817894089503
:10061000FC0180819181F894228133817894821B3E
:10062000930B0895219A0895DC0195B145B1E62F09
:10063000EE0FE60F9D7F42602D9145B9000027FF28
:1006400095B90000000095B900000000000045B910
:10065000000026FF95B90000000095B900000000D9
:10066000000045B9000025FF95B90000000095B9CC
:1006700000000000000045B9000024FF95B900000B
:10068000000095B900000000000045B9000023FFFC
:1006900095B90000000095B900000000000045B9C0
:1006A000000022FF95B90000000095B9000000008D
:1006B000000045B9000021FF95B90000000095B980
:1006C00000003D9145B9000020FF95B9232FEA9520
:1006D00095B909F0B2CF089529988FE891E0019774
:1006E000F1F700C0000008958EBD0DB407FEFDCFE8
:1006F0008EB508958FEF8EBD0DB407FEFDCF8EB57C
:1007000008955C9885E00E9474030E947A035C9AC5
:1007100008955C9889E90E9474035C9A08955C9A34
:10072000549A5B9A539A5A9A529A239A259A229AE1
:1007300080E58CBD81E08DBD0C9489035C988FE9C8
:100740000E9474030E947A035C9A08950E948103B8
:10075000817008950E94A6038111FCCF08955C98D2
:1007600086E00E9474035C9A0895CF93DF93EC01B6
:100770000E94AF035C9880E20E9474038D2F0E9458
:1007800074038C2F0E94740380E00E9474035C9AAF
:10079000DF91CF9108950E94AF035C9887EC0E948F
:1007A00074035C9A08950F931F93CF93DF93EC012A
:1007B0008B010E94AF035C9882E00E9474038D2F2E
:1007C0000E9474038C2F0E94740380E00E947403C3
:1007D000E801139589910E947403C017D107D1F7DE
:1007E0005C9ADF91CF911F910F9108950F931F9302
:1007F000CF93DF93EC018B015C9883E00E9474033C
:100800008D2F0E9474038C2F0E94740380E00E943D
:100810007403E80113950E947A038993C017D107E6
:10082000D1F75C9ADF91CF911F910F910895CF93EB
:10083000DF93EC015C9883E00E9474038D2F0E948B
:1008400074038C2F0E94740380E0DF91CF910C948D
:1008500074030F931F93CF93DF93EC018C01060F6A
:10086000111DC017D10729F4DF91CF911F910F916E
:1008700008950E947A038993F4CF5C9A08955C9856
:1008800085E70E9474035C9A08955C988AE70E9449
:1008900074035C9A08958091660390916703209198
:1008A0006E0330916F038217930729F00E94B503FE
:1008B00081E0809371030895109271031092700388
:1008C00010926F0310926E0310926D0310926C03DE
:1008D00010926B0310926A031092690310926803DE
:1008E00090E080E00E94B5030E94AA0380E190E0BE
:1008F00090936703809366030C944B0480916E037E
:1009000090916F0320916C0330916D03820F931FC0
:1009100090936F0380936E0310926D0310926C039B
:1009200010926B0310926A0310926903109268038D
:1009300008950E94AA03109271038091660390911A
:100940006703409690936703809366030895CF935F
:10095000DF9300D000D0CDB7DEB781E591E00E94F3
:100960001C0280916E0390916F039C0150E040E067
:10097000CA01B9010E9428028FE591E00E941C0281
:1009800080916C0390916D039C0150E040E0CA019E
:10099000B9010E94280285E791E00E941C02809123
:1009A00071030E94470281E891E00E941C0280913D
:1009B00070030E9447028DE891E00E941C02809122
:1009C0006603909167039C0150E040E029833A83DD
:1009D0004B835C83CA01B9010E9428028CE991E033
:1009E0000E941C020E94A603982F81E0911101C071
:1009F00080E00E94470287E291E00F900F900F90F5
:100A00000F90DF91CF910C941C0220917003211163
:100A10000C942904089580917003882349F00E9462
:100A20003D04109270038091710381110C94450470
:100A300008958091700381110E940B0580917103CC
:100A4000882379F00E94A60381110DC010927103D2
:100A5000809166039091670340969093670380931B
:100A600066030C944B04809171038823D1F308959D
:100A7000CF92DF92EF92FF920F931F93CF93DF936A
:100A80008C01EB018091700381110E940B05E090B5
:100A90006E03F0906F0380916C0390916D03E80EEC
:100AA000F91E80917103C0906603D0906703CE1445
:100AB000DF0471F4882349F00E949904B801C6014B
:100AC0000E94D3030E94AA030FC00E944B04F4CFDC
:100AD0008823A1F10E943F04B801C7010E94D303FB
:100AE0000E94AA030E94450480916C0390916D03BB
:100AF000019690936D0380936C03809168039091AD
:100B000069038C0F9D1F20916A0330916B03A9012B
:100B10004F5F5F4F87389105A0F4909369038093EE
:100B2000680330936B0320936A03DF91CF911F9189
:100B30000F91FF90EF90DF90CF900895B801C7011B
:100B4000BFCF875891099A01E2CF8091700381113C
:100B50000E940B058091710381110E943F048091D6
:100B60006E0390916F030E94170481E080937003DD
:100B70000895CDB7DEB7C650D1400FB6F894DEBFAA
:100B80000FBECDBF289A209A88B1807188B93C9A4F
:100B90003A9A2FEF81EE94E0215080409040E1F7A7
:100BA00000C00000449A0E9412030E94D1010E94DA
:100BB0008F03789480E00E9490007E01E7E0EE0EC3
:100BC000F11CBE2CAF2C8CE593E00E94BB028B3A4B
:100BD000D1F789838E010E5F1F4F8CE593E00E9451
:100BE000BB02F80181938F01EE15FF05B1F78D81EE
:100BF0009E818130914038F70B2D1A2DD12CC12CBC
:100C00008D819E81C816D906B8F08C8190912F02F3
:100C1000891711F08F3F21F4CE0101960E94C80080
:100C20008C818F3F21F090912F02891761F2CE01C4
:100C300001960E945300C7CF8CE593E00E94BB024F
:100C4000F80181938F01FFEFCF1ADF0AD9CFDC01C2
:100C500001C06D9341505040E0F70895FB01DC0165
:100C600001900D920020E1F70895BB27FB01552765
:100C7000AA27880F991FAA1FA41710F0A41B8395F9
:100C80005051B9F7A05DAA3308F0A95DA193009770
:100C900079F7B111B1931192CB010C944F06DC019D
:100CA000FC01672F71917723E1F7329704C07C91A3
:100CB0006D9370836291AE17BF07C8F30895F894DF
:020CC000FFCF64
:100CC2000D0A537461727465640D0A004368697099
:100CD200206572617365640D0A0048656C6C6F2053
:100CE200776F726C64210D0A005772697465206413
:100CF2006F6E650D0A0052656164207374617274CF
:100D020065640D0A005265616420646F6E650D0AA8
:100D120000696D6167655F73746172743A20002CBB
:100D220020696D6167655F6C656E6774685F70618D
:100D320067653A20002C2065726173696E673A20FC
:100D4200002C2072656164696E673A20002C206570
:100D5200726173655F6E6578743A20002C2062754B
:060D620073793A20000045
:00000001FF
