:100000000C9434000C9451000C9451000C94510049
:100010000C94DE010C9451000C9451000C9451008E
:100020000C9451000C9451000C9451000C9451000C
:100030000C9451000C9451000C9451000C945100FC
:100040000C9451000C9451000C9451030C945100E9
:100050000C9451000C9451000C9451000C945100DC
:100060000C9451000C94510011241FBECFEFD8E026
:10007000DEBFCDBF11E0A0E0B1E0E8EEF2E102C0EA
:1000800005900D92A63FB107D9F724E0A6EFB1E0A5
:1000900001C01D92AC3CB207E1F70E94A8080C9485
:1000A00072090C9400000F931F93CF938C01FC01F5
:1000B000848195810696A1F0C0E090E080E0800FF9
:1000C000911FFC0180810E947903CF5F8C2F90E00B
:1000D000F801248135812A5F3F4F8217930778F317
:1000E000CF911F910F910895EF92FF920F931F935D
:1000F000CF93DF9300D000D000D0CDB7DEB79BEA1E
:100100009983811127C081EF8A831E821D828EEF21
:100110008C8380917F028B838E010E5F1F4F7E0147
:1001200087E0E80EF11C8BEA03C0F80181918F0192
:100130000E9479030E151F05C1F726960FB6F89495
:10014000DEBF0FBECDBFDF91CF911F910F91FF900A
:10015000EF90089580EFD8CFCF93DF93CDB7DEB780
:1001600068970FB6F894DEBF0FBECDBF90E0FE01DA
:10017000319650E040E09C01042E02C0220F331F54
:100180000A94E2F7359527953595279520722083B7
:10019000118212824F5F5F4F33964830510559F7F5
:1001A00068E0CE0101960E94D0048FEC97E00197A1
:1001B000F1F700C0000068960FB6F894DEBF0FBEDE
:1001C000CDBFDF91CF910895EF92FF920F931F93D0
:1001D000CF93DF9300D000D000D0CDB7DEB7FC01C5
:1001E0009181903409F479C0A8F5913109F480C067
:1001F00008F465C09033E9F584819581019709F48D
:1002000068C08BEA898381EF8A831E821D828EEF0C
:100210008C8380917F028B838E010E5F1F4F7E0146
:10022000F7E0EF0EF11C8BEA03C0F80181918F011A
:100230000E9479030E151F05C1F726960FB6F89494
:10024000DEBF0FBECDBFDF91CF911F910F91FF9009
:10025000EF900895903509F452C0913539F56DE26B
:1002600088EF91E00E94D00467E888EF91E00E9457
:100270006F088BEA898380EF8A831E821D828EEF4E
:100280008C8380917F028B838E010E5F1F4F7E01D6
:10029000F7E0EF0EF11C8BEA03C0F80181918F01AA
:1002A0000E947903E016F106C1F7C7CF913409F730
:1002B00064817581CF0106960E940E07DACF9923DB
:1002C00079F09031B1F684819581892B01F5289AD6
:1002D000B4CF86810E94AC00CCCF0E94E506C9CF86
:1002E00084819581019781F5868180937F02A5CFD6
:1002F00084819581892B09F044C02898BACF0E9447
:100300004B0867E888EF91E00E946F08B2CF8BEA54
:10031000898381EF8A831E821D828EEF8C83809178
:100320007F028B838E010E5F1F4F7E01F7E0EF0E81
:10033000F11C8BEA03C0F80181918F010E947903BF
:10034000E016F106C1F779CF8BEA898381EF8A83C2
:100350001E821D828EEF8C8380917F028B838E01A3
:100360000E5F1F4F7E0187E0E80EF11C8BEA03C091
:10037000F80181918F010E947903E016F106C1F71F
:100380005CCF8BEA898381EF8A831E821D828EEF88
:100390008C8380917F028B838E010E5F1F4F7E01C5
:1003A000F7E0EF0EF11C8BEA03C0F80181918F0199
:1003B0000E9479030E151F05C1F73FCF1F920F92C0
:1003C0000FB60F9211242F933F934F935F936F9328
:1003D0007F938F939F93AF93BF93EF93FF938091FE
:1003E000CA04882371F088B194E0892788B96DE246
:1003F00088EF91E00E94D00467E888EF91E00E94C6
:100400006F08FF91EF91BF91AF919F918F917F9175
:100410006F915F914F913F912F910F900FBE0F9071
:100420001F9018950F931F93CF93DF93CDB7DEB72F
:10043000DA950FB6F894DEBF0FBECDBF28982FEF28
:1004400081EE94E0215080409040E1F700C0000030
:100450000E946D060E94C6072FEF80E792E02150B0
:1004600080409040E1F700C000000E94C6070E9453
:100470009B060E94C6070E94E5060E94C60760E030
:1004800071E0CE0101960E940E070E94C6070E94ED
:10049000E5060E94C60760E071E0CE0101960E9469
:1004A0000E070E94C60701E210E060E071E0CE0195
:1004B00001960E940E0701501109B9F70E94C60764
:1004C000D3950FB6F894DEBF0FBECDBFDF91CF91AD
:1004D0001F910F910895CF93DF93CDB7DEB7C4502E
:1004E000D1400FB6F894DEBF0FBECDBF8AE289833C
:1004F0008BE28A838CE28B830E946D060E94C60782
:100500000E949B060E94C6070E94E50660E071E01B
:10051000CE0101960E940E0760E170E0CE010196C7
:100520000E940E070E94C6070E944B080E94C60741
:1005300081E0898382E08A8383E08B8367E8CE0150
:1005400001960E946F0880E091E00E9480038981FB
:10055000282F30E050E040E0CA01B9010E948F032B
:100560008AE091E00E9480038A81282F30E050E0E9
:1005700040E0CA01B9010E948F0386E191E00E9428
:1005800080038B81282F30E050E040E0CA01B901A0
:100590000E948F0389E491E00E948003CC5FDE4FCC
:1005A0000FB6F894DEBF0FBECDBFDF91CF91089597
:1005B000CF93DF93CDB7DEB7C150D1400FB6F894DB
:1005C000DEBF0FBECDBF289882E291E00E9480037B
:1005D0000E94C4058EE291E00E9480038FE0ECE36C
:1005E000F1E0DE01119601900D928A95E1F7BE01CE
:1005F0006F5F7F4F81E090E00E94D5058BE491E032
:100600000E94800340E051E068E770E0CE0101966F
:100610000E94410981E090E00E942E0688E591E069
:100620000E94800302C00E94790361E0CE018F5FC7
:100630009E4F0E944506CF5FDE4F8881C150D1405A
:100640009FEF980F9E3F78F30E94590687E691E04E
:100650000E948003CF5FDE4F0FB6F894DEBF0FBE5F
:10066000CDBFDF91CF91089546E853E06CE271E091
:1006700082EB94E00E94CA031092C50081E080934F
:10068000C40088E98093C10086E08093C200809115
:10069000C6008091C00087FDFACF82EC8093C00035
:1006A00008951F920F920FB60F9211242F933F932C
:1006B0004F935F936F937F938F939F93AF93BF936A
:1006C000EF93FF936091C60082EB94E00E94DB03FE
:1006D000FF91EF91BF91AF919F918F917F916F911A
:1006E0005F914F913F912F910F900FBE0F901F90F0
:1006F00018959091C00095FFFCCF8093C600089597
:10070000FC019081992351F031968091C00085FFC2
:10071000FCCF9093C60091919111F7CF0895CF939C
:10072000DF9300D000D000D00F92CDB7DEB7362FC8
:10073000272F4AE0BE016F5F7F4F832F922F0E94C9
:1007400048099981992359F0FE0132968091C000A1
:1007500085FFFCCF9093C60091919111F7CF27961A
:100760000FB6F894DEBF0FBECDBFDF91CF910895D5
:10077000882341F08091C00085FFFCCF81E3809306
:10078000C60008958091C00085FFFCCF80E3809370
:10079000C6000895FC01CA015187408755834483F0
:1007A000578346831382128271836083860F971F5B
:1007B000938782870895FC01F89482819381208138
:1007C00031818217930780F4019693838283A681F7
:1007D000B7816C9386819781019697838683228562
:1007E00033858217930711F0789408958085918559
:1007F0009783868378940895CF93DF93FC01CA0191
:10080000009751F1DB01AB01480F591F04C07894E8
:10081000A417B50709F16D91F89482819381208125
:1008200031818217930798F7019693838283C6815B
:10083000D7816883868197810196978386832285F5
:1008400033858217930719F780859185978386836F
:100850007894A417B507F9F6DF91CF910895FC01BC
:10086000F894228133812115310581F0A481B5816D
:100870008D912150310933832283B583A48322854E
:100880003385A217B30729F078940895789480E00F
:100890000895208531853583248378940895FC015B
:1008A000F894828193817894892BD1F3F8942281F2
:1008B00033812115310581F0A481B5818D912150BD
:1008C000310933832283B583A48322853385A2171C
:1008D000B30729F078940895789480E008952085EE
:1008E00031853583248378940895CF93DF93FC0179
:1008F000CA01009711F1DB01AB01480F591F12C06B
:10090000C481D5812991019793838283D583C48340
:1009100082859385C817D90799F078942D93A417E9
:10092000B50759F0F89482819381009749F778943C
:1009300020E02D93A417B507A9F7DF91CF91089573
:100940008085918595838483E8CFFC01F894A48108
:10095000B581A60FB71F82859385A817B90720F028
:1009600080819181A81BB90B82819381892B19F019
:1009700078948C910895789480E00895FC01F8941F
:100980008281938178940895FC0180819181F8940B
:10099000228133817894821B930B0895219A0895C4
:1009A000DC0195B145B1E62FEE0FE60F9D7F426069
:1009B0002D9145B9000027FF95B90000000095B9B9
:1009C00000000000000045B9000026FF95B90000B6
:1009D000000095B900000000000045B9000025FFA7
:1009E00095B90000000095B900000000000045B96D
:1009F000000024FF95B90000000095B90000000038
:100A0000000045B9000023FF95B90000000095B92A
:100A100000000000000045B9000022FF95B9000069
:100A2000000095B900000000000045B9000021FF5A
:100A300095B90000000095B900003D9145B900004E
:100A400020FF95B9232FEA9595B909F0B2CF089503
:100A500029988FE891E00197F1F700C00000089510
:100A60005C9A549A5B9A539A5A9A529A239A259A64
:100A7000229A80E58CBD81E08DBD5C9889E98EBDB0
:100A80000DB407FEFDCF8EB55C9A08958EBD0DB4F2
:100A900007FEFDCF8EB508958FEF8EBD0DB407FE16
:100AA000FDCF8EB508955C9885E08EBD0DB407FE30
:100AB000FDCF8EB58FEF8EBD0DB407FEFDCF8EB589
:100AC0005C9A08955C9889E98EBD0DB407FEFDCF50
:100AD0008EB55C9A08955C988FE98EBD0DB407FEC3
:100AE000FDCF8EB58FEF8EBD0DB407FEFDCF8EB559
:100AF0005C9A08955C9885E08EBD0DB407FEFDCF2D
:100B00008EB58FEF8EBD0DB407FEFDCF8EB55C9A0E
:100B10008170089525E09FEF5C982EBD0DB407FE0F
:100B2000FDCF8EB59EBD0DB407FEFDCF8EB55C9A90
:100B300080FDF2CF08955C9886E08EBD0DB407FE6F
:100B4000FDCF8EB55C9A08955C9826E02EBD0DB45D
:100B500007FEFDCF2EB55C9A5C9820E22EBD0DB449
:100B600007FEFDCF2EB59EBD0DB407FEFDCF9EB591
:100B70008EBD0DB407FEFDCF8EB51EBC0DB407FEB5
:100B8000FDCF8EB55C9A08955C9886E08EBD0DB45D
:100B900007FEFDCF8EB55C9A5C9887EC8EBD0DB4D8
:100BA00007FEFDCF8EB55C9A08959C01962F872F86
:100BB0005C9846E04EBD0DB407FEFDCF4EB55C9A85
:100BC0005C9842E04EBD0DB407FEFDCF4EB53EBD74
:100BD0000DB407FEFDCF3EB52EBD0DB407FEFDCF13
:100BE0002EB51EBC0DB407FEFDCF2EB5E92FF82F94
:100BF0009F01339581918EBD0DB407FEFDCF8EB55B
:100C0000E217F307B9F75C9A08959C01962F872F96
:100C10005C9843E04EBD0DB407FEFDCF4EB53EBD22
:100C20000DB407FEFDCF3EB52EBD0DB407FEFDCFC2
:100C30002EB51EBC0DB407FEFDCF2EB5E92FF82F43
:100C40009F0133959FEF9EBD0DB407FEFDCF8EB57E
:100C50008193E217F307B9F75C9A08955C9823E053
:100C60002EBD0DB407FEFDCF2EB59EBD0DB407FE03
:100C7000FDCF9EB58EBD0DB407FEFDCF8EB51EBC5B
:100C80000DB407FEFDCF8EB50895662389F0FC01F3
:100C90009C012F5F3F4F6150260F311D9FEF9EBD7E
:100CA0000DB407FEFDCF8EB58193E217F307B9F7B8
:100CB00008955C9A08955C9885E78EBD0DB407FE93
:100CC000FDCF8EB55C9A08955C988AE78EBD0DB411
:100CD00007FEFDCF8EB55C9A08951092CB0410925A
:100CE000CA041092C9041092C8041092C70410924A
:100CF000C6041092C5041092C4041092C30410924A
:100D0000C20490E080E00E94A4050E948A0580E170
:100D100090E09093BF048093BE048091C8049091AA
:100D2000C904409739F080E190E00E94A40581E079
:100D30008093CB0408958091CA0481111EC08091D4
:100D4000CB04811111C08091BE049091BF04209109
:100D5000C8043091C9042817390771F00E94A4050E
:100D600081E08093CB0408950E947A05882381F066
:100D70008091CB04882339F308950E94590610927C
:100D8000CA048091CB048823F1F20E946406D7CF75
:100D90001092CB048091BE049091BF044096909332
:100DA000BF048093BE04D3CF8091BE049091BF0452
:100DB0002091C8043091C9048217930729F00E943A
:100DC000A40581E08093CB0408958091C80490919C
:100DD000C9042091C6043091C704820F931F9093D9
:100DE000C9048093C8041092C7041092C6041092DC
:100DF000C5041092C4041092C3041092C204089552
:100E00000E948A051092CB048091BE049091BF0489
:100E100040969093BF048093BE040895CF92DF92D2
:100E2000EF92FF920F931F93CF93DF93D82EC92E8B
:100E30008B012091CA04211151C02091C804309126
:100E4000C904C091C604D091C704C20FD31FE0905B
:100E5000BE04F090BF048091CB04EC16FD0609F4AB
:100E60006FC0811184C06D2D7C2DCE010E94D505EF
:100E70000E948A058091C6049091C70401969093C0
:100E8000C7048093C6042091C2043091C304200F8C
:100E9000311F3093C3042093C20427383105A8F0D2
:100EA0008091C4049091C504019627583109582FA8
:100EB000492F019627383105C0F75093C404409359
:100EC000C5043093C3042093C204DF91CF911F91D6
:100ED0000F91FF90EF90DF90CF9008950E945906F8
:100EE0001092CA048091CB0481114DC02091C80496
:100EF0003091C904C091C604D091C704C20FD31F5A
:100F00008091BE049091BF048C179D0709F0ABCF70
:100F10007E01E216F30631F0C7010E94A40581E0CC
:100F20008093CB040E948A051092CB048091BE046A
:100F30009091BF0440969093BF048093BE0493CFDA
:100F4000882339F30E948A051092CB048091BE0455
:100F50009091BF0440969093BF048093BE046D2D82
:100F60007C2DC7010E94D5050E948A0583CF0E946F
:100F70005B066D2D7C2DCE010E94D5050E948A0551
:100F80000E94640677CF0E94640657CFCF93DF9309
:100F900000D000D0CDB7DEB783E791E00E94800398
:100FA0008091C8049091C9049C0150E040E0CA01BE
:100FB000B9010E948F0381E891E00E948003809133
:100FC000C6049091C7049C0150E040E0CA01B901F9
:100FD0000E948F0387E991E00E9480038091C404FE
:100FE0009091C5049C0150E040E0CA01B9010E9403
:100FF0008F0380EB91E00E9480038091C204909166
:10100000C3049C0150E040E0CA01B9010E948F0373
:1010100086EC91E00E9480038091CB040E94B8038B
:1010200082ED91E00E9480038091CA040E94B8037F
:101030008EED91E00E9480038091BE049091BF04E8
:101040009C0150E040E029833A834B835C83CA01D2
:10105000B9010E948F038DEE91E00E948003809180
:10106000CA04811112C00E947A05982F81E0992349
:1010700081F00E94B80389E491E00F900F900F90E7
:101080000F90DF91CF910C9480038FE30E9479033E
:10109000F2CF80E0EECF8091CA04811115C080911B
:1010A000CB0481110EC08091C8049091C9040E94A4
:1010B0002E0681E08093CA041092C1041092C004ED
:1010C00008950E945B06EFCF0E9459061092CA0451
:1010D0008091CB04882339F30E946406E0CF1F93EC
:1010E000CF93DF93D82FC92F162F8091CA0488235E
:1010F000C9F02091C0043091C1048091C404909142
:10110000C5042817390791F0612F8D2F9C2F0E945D
:1011100045068091C0049091C10401969093C1044A
:101120008093C004DF91CF911F9108950E944B08D6
:10113000EBCF8091CA04811101C008950E94590625
:101140001092CA048091CB048823B9F30C946406EE
:10115000289A209A88B1807188B93C9A3A9A2FEFE0
:1011600081EE94E0215080409040E1F700C0000003
:10117000449A0E94CE040E9434030E9430050E94CB
:101180006D0678948FEF0E94AC00EFEFF4E32CE053
:10119000E150F0402040E1F700C0000080E00E94F4
:1011A000AC003898409A8091680082608093680013
:1011B00080916C00816080936C000AEF1FEF0058F3
:1011C000124082EB94E00E944F048B3AD1F7809357
:1011D0008002C1E8D2E082EB94E00E944F04899340
:1011E00082E0C638D807B9F78091840290918502D1
:1011F0008130E1E09E0728F7C6E8D2E0009779F059
:1012000082EB94E00E944F04899398012C0F3D1FBC
:1012100080918402909185022817390788F32091E4
:10122000830230917F022317D1F02F3FC1F0069641
:1012300041F2C0E080E090E080589D4FFC01808149
:101240000E947903CF5F8C2F90E02091840230912F
:1012500085022A5F3F4F8217930770F3B2CF80E871
:1012600092E00E94E400809183028F3F29F09091E8
:101270007F02891709F4A5CF80918402909185029D
:10128000D6CFDC0101C06D9341505040E0F7089586
:10129000BB27FB015527AA27880F991FAA1FA41750
:1012A00010F0A41B83955051B9F7A05DAA3308F044
:1012B000A95DA193009779F7B111B1931192CB0178
:1012C0000C946209DC01FC01672F71917723E1F72F
:1012D000329704C07C916D9370836291AE17BF0703
:0812E000C8F30895F894FFCF54
:1012E800646174615B305D3A20002C206461746134
:1012F8005B315D3A20002C20646174615B325D3A99
:1013080020000D0A537461727465640D0A00436805
:101318006970206572617365640D0A0048656C6CBC
:101328006F20776F726C64210D0A005772697465BB
:1013380020646F6E650D0A005265616420737461E4
:10134800727465640D0A005265616420646F6E658D
:101358000D0A00696D6167655F73746172743A2084
:10136800002C20696D6167655F6C656E6774685FE6
:10137800706167653A20002C20696D6167655F6C54
:10138800656E6774685F636F6C756D6E733A200085
:101398002C20696D6167655F65787472615F627939
:1013A8007465733A20002C2065726173696E673A20
:1013B80020002C2072656164696E673A20002C2039
:1013C80065726173655F6E6578743A20002C2062DF
:0613D8007573793A200054
:00000001FF
