:100000000C94B1000C94CE000C94CE000C94CE0055
:100010000C94CE000C94CE000C94CE000C94CE0028
:100020000C94CE000C94CE000C94CE000C94CE0018
:100030000C94CE000C94CE000C94CE000C94CE0008
:100040000C94CE000C94CE000C9491010C94CE0034
:100050000C94CE000C94CE000C94CE000C94CE00E8
:100060000C94CE000C94CE0000407A10F35A00A0FD
:10007000724E18090010A5D4E80000E87648170071
:1000800000E40B54020000CA9A3B000000E1F505B1
:10009000000080969800000040420F000000A086FB
:1000A00001000000102700000000E803000000002D
:1000B0006400000000000A000000000001000000D1
:1000C00000002C76D888DC674F0823DFC1DFAE59EB
:1000D000E1B1B796E5E3E453C63AE651997696E87E
:1000E000E6C28426EB898C9B62ED407C6FFCEFBC02
:1000F0009C9F40F2BAA56FA5F490055A2AF75C932D
:100100006B6CF9676DC11BFCE0E40D47FEF520E662
:10011000B500D0ED902E0300943577050080841E45
:10012000080000204E0A000000C80C333333330FA0
:10013000986E12831141EF8D2114893BE65516CF3D
:10014000FEE6DB18D1844B381BF77C1D901DA4BB49
:10015000E424203284725E228100C9F124ECA1E5FE
:100160003D2711241FBECFEFD8E0DEBFCDBF11E089
:10017000A0E0B1E0E6E9F0E102C005900D92A23501
:10018000B107D9F722E0A2E5B1E001C01D92A03984
:10019000B207E1F70E94BF040C9449080C940000D8
:1001A0001F93CF93DF93EC0110E0812F90E02C811F
:1001B0003D812A5F3F4F8217930720F0DF91CF9157
:1001C0001F9108958C0F9D1FFC0180810E94B90131
:1001D0001F5FEBCFCF93DF9300D000D000D0CDB71F
:1001E000DEB79BEA9983811116C081EF8A831E8254
:1001F0001D828EEF8C83809152018B83CE010196FC
:100200000E94D00026960FB6F894DEBF0FBECDBF79
:10021000DF91CF91089580EFE9CFCF93DF93CDB7F2
:10022000DEB768970FB6F894DEBF0FBECDBF682F5C
:10023000FE01319650E040E0CF0170E09B01042EBA
:1002400002C0220F331F0A94E2F7359527953595A2
:10025000279520722083118212824F5F5F4F339661
:100260004830510559F768E00E94DA028FEC97E0B8
:100270000197F1F700C0000068960FB6F894DEBF52
:100280000FBECDBFDF91CF910895FC0181818131F7
:1002900029F130F4882371F08031C9F081E00FC07A
:1002A0008033E1F784819581019741F486810E9432
:1002B0000D01F4CF84819581019719F080E00C94B1
:1002C000EA0086818093520182E00C940D018481C2
:1002D0009581892B99F7289A81E0F7CF84819581C0
:1002E000892B61F7289884E0F0CF43E551E06CE278
:1002F00071E08FE792E00E9414021092C500109204
:10030000C40088E98093C10086E08093C200809198
:10031000C6008091C00087FDFACF82EC8093C000B8
:1003200008951F920F920FB60F9211242F933F93AF
:100330004F935F936F937F938F939F93AF93BF93ED
:10034000EF93FF936091C6008FE792E00E94200236
:10035000FF91EF91BF91AF919F918F917F916F919D
:100360005F914F913F912F910F900FBE0F901F9073
:1003700018959091C00095FFFCCF8093C60008951A
:10038000CF93DF93EC018991811103C0DF91CF916D
:1003900008950E94B901F7CFCF93DF9300D000D02A
:1003A00000D00F92CDB7DEB7362F272F4AE0BE011F
:1003B0006F5F7F4F832F922F0E94AD05CE01019674
:1003C0000E94C00127960FB6F894DEBF0FBECDBFC6
:1003D000DF91CF9108950F931F93CF93DF93CDB704
:1003E000DEB769970FB6F894DEBF0FBECDBF8E01A2
:1003F0000F5F1F4F2AE044E16E8B7F8B888F998FB0
:100400006E897F89888D998D0E947205C8010E942E
:10041000C00169960FB6F894DEBF0FBECDBFDF9165
:10042000CF911F910F910895FC014087518744831C
:1004300055834683578313821282718360830895A4
:10044000FC01F89482819381208131818217930786
:1004500010F078940895019693838283A681B781E2
:100460006C93868197810196978386834085518519
:1004700020813181240F351F8217930751F757834D
:100480004683E7CFEF92FF920F931F93CF93DF93B3
:10049000F82EE92EEB018B01040F151FC017D107B1
:1004A00039F4DF91CF911F910F91FF90EF90089554
:1004B00069918F2D9E2D0E942002F0CFFC01F894AF
:1004C00024813581D9018C91428153814115510597
:1004D00019F4789480E00895415051095383428380
:1004E0002F5F3F4F35832483608571854081518123
:1004F000460F571F2417350711F4758364837894CA
:100500000895FC01F894828193817894892BD1F32A
:10051000CF010C945E02EF92FF920F931F93CF9343
:10052000DF93F82EE92EEB018B01040F151FC01786
:10053000D10739F4DF91CF911F910F91FF90EF9088
:1005400008958F2D9E2D0E945E028993F0CFDC01CD
:10055000F8941496ED91FC911597E60FF71F2D91E5
:100560003C91119718968D919C911997820F931F2A
:10057000E817F90710F0E21BF30B12968D919C918E
:10058000892B19F4789480E00895789480810895F7
:10059000FC01F8948281938178940895FC01808114
:1005A0009181F894228133817894821B930B089572
:1005B000219A0895DC0195B145B1E62FEE0FE60FC3
:1005C0009D7F42602D9145B9000027FF95B900003D
:1005D000000095B900000000000045B9000026FFAA
:1005E00095B90000000095B900000000000045B971
:1005F000000025FF95B90000000095B9000000003B
:10060000000045B9000024FF95B90000000095B92D
:1006100000000000000045B9000023FF95B900006C
:10062000000095B900000000000045B9000022FF5D
:1006300095B90000000095B900000000000045B920
:10064000000021FF95B90000000095B900003D9120
:1006500045B9000020FF95B9232FEA9595B909F017
:10066000B2CF089529988FE891E00197F1F700C083
:10067000000008958EBD0DB407FEFDCF8EB5089520
:100680008FEF8EBD0DB407FEFDCF8EB508955C983B
:1006900085E00E943A030E9440035C9A08955C98AA
:1006A00089E90E943A035C9A08955C9A549A5B9A8D
:1006B000539A5A9A529A239A259A229A80E58CBD87
:1006C00081E08DBD0C944F035C988FE90E943A0342
:1006D0000E9440035C9A08950E9447038170089528
:1006E0000E946C038111FCCF08955C9886E00E9403
:1006F0003A035C9A0895CF93DF93EC010E9475034F
:100700005C9880E20E943A038D2F0E943A038C2F5E
:100710000E943A0380E00E943A035C9ADF91CF91F5
:1007200008950E9475035C9887EC0E943A035C9AD6
:1007300008950F931F93CF93DF93EC018B010E94D9
:1007400075035C9882E00E943A038D2F0E943A0361
:100750008C2F0E943A0380E00E943A03E80113952F
:1007600089910E943A03C017D107D1F75C9ADF91B3
:10077000CF911F910F9108950F931F93CF93DF9304
:10078000EC018B015C9883E00E943A038D2F0E945C
:100790003A038C2F0E943A0380E00E943A03E8015A
:1007A00013950E9440038993C017D107D1F75C9A33
:1007B000DF91CF911F910F910895CF93DF93EC01BB
:1007C0005C9883E00E943A038D2F0E943A038C2F9D
:1007D0000E943A0380E0DF91CF910C943A030F938B
:1007E0001F93CF93DF93EB018B01080F111DC017EF
:1007F000D10729F4DF91CF911F910F9108950E94A5
:1008000040038993F4CF5C9A08955C9885E70E9431
:100810003A035C9A08955C988AE70E943A035C9ACE
:10082000089510928F0210928E0210928D021092F3
:100830008C0210928B0290E080E00E947B030E9469
:10084000700380E190E090938A028093890208957A
:100850008091890290918A0220918D0230918E02BE
:100860008217930729F00E947B0381E080938F0217
:10087000089580918F02882379F00E946C03811182
:100880000DC010928F028091890290918A02409649
:1008900090938A02809389020C94280480918F029D
:1008A0008823D1F3089580918D0290918E0220913A
:1008B0008B0230918C02820F931F90938E02809353
:1008C0008D0210928C0210928B0208950E94700388
:1008D00010928F028091890290918A0240969093A3
:1008E0008A02809389020895EF92FF920F931F93DB
:1008F000CF93DF93D82FC92F00918D0210918E02D4
:1009000080918B0290918C02080F191F80918F02A9
:10091000E0908902F0908A02E016F10679F48823CB
:1009200051F00E9466046D2F7C2FC7010E9499032D
:100930000E94700310C00E942804F3CF8823D9F0CE
:100940000E9405046D2F7C2FC8010E9499030E940C
:1009500070030E940B0480918B0290918C0201968F
:1009600090938C0280938B02DF91CF911F910F9116
:10097000FF90EF9008956D2F7C2FC801D7CFCDB792
:10098000DEB7C650D2400FB6F894DEBF0FBECDBF63
:10099000289A209A88B1807188B93C9A3A9A2FEFA8
:1009A00081EE94E0215080409040E1F700C00000CB
:1009B000449A0E94D8020E9475010E9455030E9429
:1009C0001104789480E00E940D01289880E091E065
:1009D0000E94C0010E9491038CE091E00E94C0013E
:1009E0006AE171E0CE01895F9E4F0E94A605BE01BB
:1009F000695F7E4F81E090E00E94990389E291E077
:100A00000E94C00140E051E068E770E0CE01895FDC
:100A10009E4F0E949F0581E090E00E94DD0386E3E7
:100A200091E00E94C001BE016F5F7F4F81E00E9494
:100A3000EF0389819FEF980F9E3F18F40E94B90140
:100A4000F2CF0E94030485E491E00E94C0016E0190
:100A5000E7E0CE0ED11C8FE792E00E9481028B3A34
:100A6000D1F789838E010E5F1F4FCE0101967C0165
:100A70008FE792E00E948102F80181938F01CE16E8
:100A8000DF06B1F70D811E810130F1E01F0718F775
:100A900081E090E08C0F9D1F080F191FE016F106F2
:100AA000B9F48C8190915201891711F08F3F21F494
:100AB000CE0101960E9445018C818F3F21F09091DB
:100AC0005201891741F2CE0101960E94D000C3CF96
:100AD0008FE792E00E948102F7018683FFEFEF1A11
:100AE000FF0ADCCFEF920F931F93CF93DF9300D0D9
:100AF00000D00F92CDB7DEB7322F0D8354E047FD03
:100B000054E1242F27FD2195E52E032F4D81512FF0
:100B100069837A838B839C8369817A818B819C81B1
:100B20000E94D2058D81912F0F900F900F900F9002
:100B30000F90DF91CF911F910F91EF900895DC01FD
:100B400001C06D9341505040E0F70895FB01DC0176
:100B500001900D920020E1F70895BB274A3031F44F
:100B6000992322F4BDE2909581959F4F0C94B9058D
:100B7000BB27FB015527AA27880F991FAA1FA41777
:100B800010F0A41B83955051B9F7A05DAA3308F06B
:100B9000A95DA193009779F7B111B1931192CB019F
:100BA0000C940208ADE0B0E0E8EDF5E00C9412081A
:100BB0006A01F22E402E2E2C102F2BE3201708F462
:100BC0001BE31F5F012F27E0AE014F5F5F4F6A8776
:100BD0007B878C879D876A857B858C859D850E9418
:100BE0002A074C015980852D89700DE2813039F03A
:100BF0000BE221FC04C0022D017020FC00E2422D1A
:100C00004071342E952D987053FE41C083E0011140
:100C100084E08F1598F5F81A31100BC0EF2CF12CE9
:100C2000A70160E270E0C6010E949F05CE0CDF1CA8
:100C3000F12C002319F0F60101936F0186010D5F7D
:100C40001F4F22FE1DC08EE4D6018C9391E41196B5
:100C50009C93119712968C93EF2CF12CA70160E2D4
:100C600070E0C8010E949F05E00EF11ED7011C92A2
:100C70008EEF9FEF2D96E2E10C942E08F12CCCCF55
:100C80008EE6F601808391E691838283E5CF52FE62
:100C90003EC083E0011184E08F1510F49F2D981B56
:100CA00031100BC0E92EF12CA70160E270E0C60103
:100CB0000E949F05CE0CDF1C90E0002319F0F60186
:100CC00001936F017601B3E0EB0EF11C22FE14C01C
:100CD00089E4F60180838EE4818386E48283092F90
:100CE00010E0A80160E270E0C7010E949F05F701D3
:100CF000E00FF11F1082BCCF89E6D6018C938EE6FF
:100D000011968C93119786E612968C93E8CF540136
:100D100097FE02C0B12CA12C81E090E0011102C02D
:100D200090E080E095012F5F3F4F820F931F642C6E
:100D3000712C93012F5F3F4F411002C030E020E043
:100D4000820F931FF816190609F00CF45FC0F81A09
:100D500031107DC023FC0BC0EF2CF12CA70160E209
:100D600070E0C6010E949F05CE0CDF1CF12C002311
:100D700029F0F60101936F0131100BC0EF2CF12C1B
:100D8000A70160E370E0C6010E949F05CE0CDF1C46
:100D9000F12C180D9A81252D207154FE03C091333A
:100DA00009F411501116A4F5193008F018E0F401F7
:100DB000EA19FB0941E050E04C0F5D1FE40FF51FFD
:100DC000A401411B51097194619471083EE28A1497
:100DD0009B0404F14A155B05ECF48181B1E0AB1A88
:100DE000B10886010F5F1F4FA614B704ACF0D601FF
:100DF0008C93BFEFAB16BB0631F486010E5F1F4F1D
:100E0000D60111963C9331966801E1CFF12CA0CF29
:100E100011E0CDCF80E3E2CF8A149B0439F49633FE
:100E200020F4953319F4211101C081E3F601808388
:100E3000EF2CF12CA70160E270E0C8010E949F0531
:100E40000E0D1F1DD8011C9290E080E013CF011100
:100E500090CF9FCF283008F027E03327DA01990F91
:100E6000311D87FD916000966105710539F432608E
:100E70002E5F3D9330E32A95E1F708959F3F30F0D0
:100E800080387105610509F03C5F3C5F3D9391300E
:100E900008F08068911DDF93CF931F930F93FF920B
:100EA000EF92192F987F9695E92F96959695E90FD1
:100EB000FF27EE53FF4F99273327EE24FF24A70186
:100EC000E70105900894079428F4360FE71EF81EF2
:100ED000491F511D660F771F881F991F0694A1F7A0
:100EE0000590079428F4E70EF81E491F561FC11DF0
:100EF000770F881F991F661F0694A1F70590079426
:100F000028F4F80E491F561FC71FD11D880F991FBF
:100F1000661F771F0694A1F70590079420F4490FE8
:100F2000561FC71FD81F990F661F771F881F06946B
:100F3000A9F784911095177041F0D695C7955795EC
:100F40004795F794E7941A95C1F7E8E6F0E06894BE
:100F50001590159135916591959105907FE2739566
:100F6000E118F10A430B560BC90BD009C0F7E10C8D
:100F7000F11E431F561FC91FD01D7EF4703311F49C
:100F80008A95E6CFE894015030F0080F0AF4002764
:100F9000021708F4202F2395022F7A3328F079E3E3
:100FA0007D932A95E9F710C07D932A9589F60694DA
:100FB00097956795379517951794E118F10A430BA4
:100FC000560BC90BD00998F023957E9173957A330F
:100FD00008F070E37C932013B8F77E9170617D93E5
:100FE00030F0839571E37D9370E32A95E1F7112446
:100FF000EF90FF900F911F91CF91DF91992787FD7F
:1010000090950895DC01FC01672F71917723E1F73A
:10101000329704C07C916D9370836291AE17BF07C5
:10102000C8F308952F923F924F925F926F927F92F2
:101030008F929F92AF92BF92CF92DF92EF92FF92E8
:101040000F931F93CF93DF93CDB7DEB7CA1BDB0B94
:101050000FB6F894DEBF0FBECDBF09942A88398839
:1010600048885F846E847D848C849B84AA84B98440
:10107000C884DF80EE80FD800C811B81AA81B9814C
:10108000CE0FD11D0FB6F894DEBF0FBECDBFED0160
:061090000895F894FFCF63
:101096000D0A537461727465640D0A0043686970C1
:1010A600206572617365640D0A0048656C6C6F207B
:1010B600776F726C64210D0A00577269746520643B
:1010C6006F6E650D0A0052656164207374617274F7
:1010D60065640D0A005265616420646F6E650D0AD1
:0210E600000008
:00000001FF
