:100000000C9434000C9451000C9451000C94510049
:100010000C9451000C9451000C9451000C9451001C
:100020000C9451000C9451000C9451000C9451000C
:100030000C9451000C9451000C9451000C945100FC
:100040000C9451000C9451000C94C6010C94510076
:100050000C9451000C9451000C9451000C945100DC
:100060000C9451000C94510011241FBECFEFD8E026
:10007000DEBFCDBF11E0A0E0B1E0EAE9FBE002C0E5
:1000800005900D92A439B107D9F722E0A4E9B1E0B7
:1000900001C01D92A23DB207E1F70E9429050C9410
:1000A000CB050C9400001F93CF93DF93EC0110E07D
:1000B000812F90E02C813D812A5F3F4F821793076B
:1000C00020F0DF91CF911F9108958C0F9D1FFC01AF
:1000D00080810E94EE011F5FEBCFCF93DF9300D0B2
:1000E00000D000D0CDB7DEB79BEA9983811116C04E
:1000F00081EF8A831E821D828EEF8C838091940112
:100100008B83CE0101960E94530026960FB6F89479
:10011000DEBF0FBECDBFDF91CF91089580EFE9CF55
:10012000CF93DF93CDB7DEB768970FB6F894DEBFF5
:100130000FBECDBF682FFE01319650E040E0CF01E9
:1001400070E09B01042E02C0220F331F0A94E2F7D5
:100150003595279535952795207220831182128237
:100160004F5F5F4F33964830510559F768E00E9462
:10017000ED028FEC97E00197F1F700C00000689660
:100180000FB6F894DEBF0FBECDBFDF91CF910895BB
:10019000FC018181813129F130F4882371F08031B3
:1001A000C9F081E00FC08033E1F784819581019728
:1001B00041F486810E949000F4CF8481958101975B
:1001C00019F080E00C946D0086818093940182E0A8
:1001D0000C94900084819581892B99F7289A81E06D
:1001E000F7CF84819581892B61F7289884E0F0CF3F
:1001F000EF92FF920F931F93CF93DF93CDB7DEB7AC
:10020000DA950FB6F894DEBF0FBECDBF28982FEF5A
:1002100081EE94E0215080409040E1F700C0000062
:100220000E9435040E94D3042FEF80E792E0215012
:1002300080409040E1F700C000000E94D3040E947B
:100240004D040E94D3040E9467040E94D3048E01CF
:100250000F5F1F4FC8010E9488040E94D3040E94B0
:1002600067040E94D304C8010E9488040E94D3043A
:1002700081E2E82EF12CC8010E94880421E0E21AF4
:10028000F108C9F70E94D304D3950FB6F894DEBFE6
:100290000FBECDBFDF91CF911F910F91FF90EF90D7
:1002A0000895CF93DF93CDB7DEB7C150D1400FB6DD
:1002B000F894DEBF0FBECDBF289880E091E00E9489
:1002C000F5010E94A4038CE091E00E94F5016AE12F
:1002D00071E0CE0101960E949A05BE016F5F7F4FCB
:1002E00081E090E00E94AC0389E291E00E94F50178
:1002F00040E051E068E770E0CE0101960E9493056E
:1003000081E090E00E94F00386E391E00E94F50115
:10031000BE016F5F7E4F81E00E940204CF5FDE4F1F
:100320008881C150D1409FEF980F9E3F18F40E94E2
:10033000EE01EECF0E94160485E491E00E94F501E3
:10034000CF5FDE4F0FB6F894DEBF0FBECDBFDF919B
:10035000CF91089545E951E06CE271E081EC92E0C3
:100360000E9427021092C5001092C40088E9809371
:10037000C10086E08093C2008091C6008091C000D9
:1003800087FDFACF82EC8093C00008951F920F92F0
:100390000FB60F9211242F933F934F935F936F9358
:1003A0007F938F939F93AF93BF93EF93FF9360914E
:1003B000C60081EC92E00E943302FF91EF91BF9161
:1003C000AF919F918F917F916F915F914F913F91ED
:1003D0002F910F900FBE0F901F9018959091C00015
:1003E00095FFFCCF8093C6000895CF93DF93EC0177
:1003F0008991811103C0DF91CF9108950E94EE0190
:10040000F7CFCF93DF9300D000D000D00F92CDB7BD
:10041000DEB7362F272F4AE0BE016F5F7F4F832F55
:10042000922F0E94A105CE0101960E94F501279608
:100430000FB6F894DEBF0FBECDBFDF91CF91089508
:10044000882319F081E30C94EE0180E3FCCFFC01DA
:100450004087518744835583468357831382128292
:10046000718360830895FC01F894828193812081D7
:1004700031818217930710F0789408950196938341
:100480008283A681B7816C93868197810196978339
:1004900086834085518520813181240F351F821745
:1004A000930751F757834683E7CFEF92FF920F935D
:1004B0001F93CF93DF93F82EE92EEB018B01040FEE
:1004C000151FC017D10739F4DF91CF911F910F91FC
:1004D000FF90EF90089569918F2D9E2D0E94330219
:1004E000F0CFFC01F89424813581D9018C914281AF
:1004F00053814115510519F4789480E008954150D5
:100500005109538342832F5F3F4F35832483608596
:10051000718540815181460F571F2417350711F40B
:100520007583648378940895FC01F89482819381A3
:100530007894892BD1F3CF010C947102EF92FF9242
:100540000F931F93CF93DF93F82EE92EEB018B01CE
:10055000040F151FC017D10739F4DF91CF911F91F8
:100560000F91FF90EF9008958F2D9E2D0E947102A4
:100570008993F0CFDC01F8941496ED91FC911597D6
:10058000E60FF71F2D913C91119718968D919C9134
:100590001997820F931FE817F90710F0E21BF30B6E
:1005A00012968D919C91892B19F4789480E008958E
:1005B000789480810895FC01F894828193817894E5
:1005C0000895FC0180819181F8942281338178948F
:1005D000821B930B0895219A0895DC0195B145B1D2
:1005E000E62FEE0FE60F9D7F42602D9145B900008A
:1005F00027FF95B90000000095B900000000000039
:1006000045B9000026FF95B90000000095B900002B
:100610000000000045B9000025FF95B9000000006A
:1006200095B900000000000045B9000024FF95B90D
:100630000000000095B900000000000045B900006E
:1006400023FF95B90000000095B9000000000000EC
:1006500045B9000022FF95B90000000095B90000DF
:100660000000000045B9000021FF95B9000000001E
:1006700095B900003D9145B9000020FF95B9232FA1
:10068000EA9595B909F0B2CF089529988FE891E0DD
:100690000197F1F700C0000008958EBD0DB407FE6C
:1006A000FDCF8EB508958FEF8EBD0DB407FEFDCF43
:1006B0008EB508955C9885E00E944D030E94530317
:1006C0005C9A08955C9889E90E944D035C9A0895AC
:1006D0005C9A549A5B9A539A5A9A529A239A259AF8
:1006E000229A80E58CBD81E08DBD0C9462035C98FC
:1006F0008FE90E944D030E9453035C9A08950E9463
:100700005A03817008950E947F038111FCCF0895E0
:100710005C9886E00E944D035C9A0895CF93DF9326
:10072000EC010E9488035C9880E20E944D038D2FAB
:100730000E944D038C2F0E944D0380E00E944D03C8
:100740005C9ADF91CF9108950E9488035C9887ECB2
:100750000E944D035C9A08950F931F93CF93DF93EC
:10076000EC018B010E9488035C9882E00E944D039B
:100770008D2F0E944D038C2F0E944D0380E00E941C
:100780004D03E801139589910E944D03C017D107CD
:10079000D1F75C9ADF91CF911F910F9108950F933C
:1007A0001F93CF93DF93EC018B015C9883E00E9451
:1007B0004D038D2F0E944D038C2F0E944D0380E02E
:1007C0000E944D03E80113950E9453038993C017BB
:1007D000D107D1F75C9ADF91CF911F910F910895C6
:1007E000CF93DF93EC015C9883E00E944D038D2F43
:1007F0000E944D038C2F0E944D0380E0DF91CF912A
:100800000C944D030F931F93CF93DF93EB018B0158
:10081000080F111DC017D10729F4DF91CF911F9147
:100820000F9108950E9453038993F4CF5C9A089521
:100830005C9885E70E944D035C9A08955C988AE76E
:100840000E944D035C9A08958091CB029091CC0256
:100850002091CF023091D0028217930729F00E9495
:100860008E0381E08093D10208951092D1021092FC
:10087000D0021092CF021092CE021092CD0290E0E0
:1008800080E00E948E030E94830380E190E09093B9
:10089000CC028093CB020C9424048091D102882353
:1008A00079F00E947F0381110DC01092D1028091D6
:1008B000CB029091CC0240969093CC028093CB02D5
:1008C0000C9424048091D1028823D1F3089580915F
:1008D000CF029091D0022091CD023091CE02820FB2
:1008E000931F9093D0028093CF021092CE02109269
:1008F000CD0208950E9483031092D1028091CB0211
:100900009091CC0240969093CC028093CB020895B4
:10091000EF92FF920F931F93CF93DF93D82FC92F9E
:100920000091CF021091D0028091CD029091CE0221
:10093000080F191F8091D102E090CB02F090CC02F9
:10094000E016F10679F4882351F00E947A046D2FA5
:100950007C2FC7010E94AC030E94830310C00E9439
:100960002404F3CF8823D9F00E9418046D2F7C2F24
:10097000C8010E94AC030E9483030E941E04809160
:10098000CD029091CE0201969093CE028093CD023B
:10099000DF91CF911F910F91FF90EF9008956D2FF0
:1009A0007C2FC801D7CFCF93DF9300D000D0CDB735
:1009B000DEB781E591E00E94F5018091CF02909130
:1009C000D0029C0150E040E0CA01B9010E9401023E
:1009D0008FE591E00E94F5018091CD029091CE02C9
:1009E0009C0150E040E0CA01B9010E94010280E789
:1009F00091E00E94F5018091D1020E9420028CE7D3
:100A000091E00E94F5018091CB029091CC029C0173
:100A100050E040E029833A834B835C83CA01B901EB
:100A20000E9401028BE891E00E94F5010E947F0381
:100A3000982F81E0911101C080E00E94200287E29E
:100A400091E00F900F900F900F90DF91CF910C9449
:100A5000F501CDB7DEB7C650D1400FB6F894DEBF72
:100A60000FBECDBF289A209A88B1807188B93C9A70
:100A70003A9A2FEF81EE94E0215080409040E1F7C8
:100A800000C00000449A0E94EB020E94AA010E944A
:100A90006803789480E00E9490006E01E7E0CE0E3B
:100AA000D11C81EC92E00E9494028B3AD1F78983A9
:100AB0007E01F2E0EF0EF11C8E010F5F1F4F580117
:100AC00081EC92E00E949402F70181937F01EC1582
:100AD000FD05B1F7ED80FE80F1E0EF16FF0608F7A7
:100AE000E00EF11EE016F106A9F48C8190919401BC
:100AF000891711F08F3F19F4C5010E94C8008C813D
:100B00008F3F21F090919401891759F2C5010E94FD
:100B10005300C7CF81EC92E00E949402F8018683D3
:100B20000F5F1F4FDFCFDC0101C06D93415050407C
:100B3000E0F70895FB01DC0101900D920020E1F740
:100B40000895BB27FB015527AA27880F991FAA1FC5
:100B5000A41710F0A41B83955051B9F7A05DAA33D8
:100B600008F0A95DA193009779F7B111B1931192A3
:100B7000CB010C94BB05DC01FC01672F719177233D
:100B8000E1F7329704C07C916D9370836291AE1748
:0A0B9000BF07C8F30895F894FFCFE3
:100B9A000D0A537461727465640D0A0043686970C2
:100BAA00206572617365640D0A0048656C6C6F207C
:100BBA00776F726C64210D0A00577269746520643C
:100BCA006F6E650D0A0052656164207374617274F8
:100BDA0065640D0A005265616420646F6E650D0AD2
:100BEA0000696D6167655F73746172743A20002CE5
:100BFA0020696D6167655F6C656E6774683A20008D
:100C0A002C2065726173696E673A20002C20657228
:100C1A006173655F6E6578743A20002C2062757383
:040C2A00793A2000F3
:00000001FF
