:100000000C94B1000C94C3000C94C3000C94C30076
:100010000C94C3000C94C3000C94C3000C94C30054
:100020000C94C3000C94C3000C94C3000C94C30044
:100030000C94C3000C94C3000C94C3000C94C30034
:100040000C94C3000C94C3000C9486010C94C30060
:100050000C94C3000C94C3000C94C3000C94C30014
:100060000C94C3000C94C30000407A10F35A00A013
:10007000724E18090010A5D4E80000E87648170071
:1000800000E40B54020000CA9A3B000000E1F505B1
:10009000000080969800000040420F000000A086FB
:1000A00001000000102700000000E803000000002D
:1000B0006400000000000A000000000001000000D1
:1000C00000002C76D888DC674F0823DFC1DFAE59EB
:1000D000E1B1B796E5E3E453C63AE651997696E87E
:1000E000E6C28426EB898C9B62ED407C6FFCEFBC02
:1000F0009C9F40F2BAA56FA5F490055A2AF75C932D
:100100006B6CF9676DC11BFCE0E40D47FEF520E662
:10011000B500D0ED902E0300943577050080841E45
:10012000080000204E0A000000C80C333333330FA0
:10013000986E12831141EF8D2114893BE65516CF3D
:10014000FEE6DB18D1844B381BF77C1D901DA4BB49
:10015000E424203284725E228100C9F124ECA1E5FE
:100160003D2711241FBECFEFD8E0DEBFCDBF22E078
:10017000A0E0B1E001C01D92A733B207E1F70E94F1
:10018000DA030C9414070C9400001F93CF93DF93B1
:10019000EC0110E0812F90E02C813D812A5F3F4FE0
:1001A0008217930720F0DF91CF911F9108958C0F54
:1001B0009D1FFC0180810E94AE011F5FEBCFCF939A
:1001C000DF9300D000D000D0CDB7DEB79BEA998393
:1001D000811116C081EF8A831E821D828EEF8C836F
:1001E000809100018B83CE0101960E94C500269666
:1001F0000FB6F894DEBF0FBECDBFDF91CF9108954B
:1002000080EFE9CFCF93DF93CDB7DEB768970FB616
:10021000F894DEBF0FBECDBF682FFE01319650E0CF
:1002200040E0CF0170E09B01042E02C0220F331F7B
:100230000A94E2F735952795359527952072208306
:10024000118212824F5F5F4F33964830510559F744
:1002500068E00E94CF028FEC97E00197F1F700C0B1
:10026000000068960FB6F894DEBF0FBECDBFDF91D9
:10027000CF910895FC018181813129F130F48823E7
:1002800071F08031C9F081E00FC08033E1F78481E3
:100290009581019741F486810E940201F4CF848107
:1002A0009581019719F080E00C94DF00868180939E
:1002B000000182E00C94020184819581892B99F7D9
:1002C000289A81E0F7CF84819581892B61F728985E
:1002D00084E0F0CF41E051E06CE271E08DE292E029
:1002E0000E9409021092C5001092C40088E9809310
:1002F000C10086E08093C2008091C6008091C0005A
:1003000087FDFACF82EC8093C00008951F920F9270
:100310000FB60F9211242F933F934F935F936F93D8
:100320007F938F939F93AF93BF93EF93FF936091CE
:10033000C6008DE292E00E941502FF91EF91BF91FD
:10034000AF919F918F917F916F915F914F913F916D
:100350002F910F900FBE0F901F9018959091C00095
:1003600095FFFCCF8093C6000895CF93DF93EC01F7
:100370008991811103C0DF91CF9108950E94AE0150
:10038000F7CFCF93DF9300D000D000D00F92CDB73E
:10039000DEB7362F272F4AE0BE016F5F7F4F832FD6
:1003A000922F0E947104CE0101960E94B5012796FA
:1003B0000FB6F894DEBF0FBECDBFDF91CF91089589
:1003C0000F931F93CF93DF93CDB7DEB769970FB627
:1003D000F894DEBF0FBECDBF8E010F5F1F4F2AE026
:1003E00044E16E8B7F8B888F998F6E897F89888D92
:1003F000998D0E944404C8010E94B50169960FB608
:10040000F894DEBF0FBECDBFDF91CF911F910F914A
:100410000895FC0140875187448355834683578361
:1004200013821282718360830895FC01F8948281A3
:100430009381208131818217930710F07894089579
:10044000019693838283A681B7816C93868197817D
:100450000196978386834085518520813181240FC1
:10046000351F8217930751F757834683E7CFEF92E3
:10047000FF920F931F93CF93DF93F82EE92EEB019A
:100480008B01040F151FC017D10739F4DF91CF91ED
:100490001F910F91FF90EF90089569918F2D9E2DE0
:1004A0000E941502F0CFFC01F89424813581D90116
:1004B0008C91428153814115510519F4789480E063
:1004C000089541505109538342832F5F3F4F358335
:1004D00024836085718540815181460F571F241701
:1004E000350711F47583648378940895FC01F894BA
:1004F000828193817894892BD1F3CF010C9453029C
:10050000EF92FF920F931F93CF93DF93F82EE92E74
:10051000EB018B01040F151FC017D10739F4DF91D0
:10052000CF911F910F91FF90EF9008958F2D9E2DE9
:100530000E9453028993F0CFDC01F8941496ED9158
:10054000FC911597E60FF71F2D913C911197189686
:100550008D919C911997820F931FE817F90710F05E
:10056000E21BF30B12968D919C91892B19F47894D0
:1005700080E00895789480810895FC01F894828148
:10058000938178940895FC0180819181F89422816F
:1005900033817894821B930B0895219A0895DC018E
:1005A00095B145B1E62FEE0FE60F9D7F42602D918C
:1005B00045B9000027FF95B90000000095B900007B
:1005C0000000000045B9000026FF95B900000000BA
:1005D00095B900000000000045B9000025FF95B95D
:1005E0000000000095B900000000000045B90000BF
:1005F00024FF95B90000000095B90000000000003C
:1006000045B9000023FF95B90000000095B900002E
:100610000000000045B9000022FF95B9000000006D
:1006200095B900000000000045B9000021FF95B910
:100630000000000095B900003D9145B9000020FF81
:1006400095B9232FEA9595B909F0B2CF0895299865
:100650008FE891E00197F1F700C0000008955C9ADF
:10066000549A5B9A539A5A9A529A239A259A229AA2
:1006700080E58CBD81E08DBD08958EBD0DB407FE73
:10068000FDCF8EB508958FEF8EBD0DB407FEFDCF63
:100690008EB508955C9885E00E943D030E94430357
:1006A0005C9A08955C988FE90E943D030E94430381
:1006B0005C9A08950E944A03817008950E945A032B
:1006C0008111FCCF08955C9886E00E943D035C9AFE
:1006D00008950E9463035C9887EC0E943D035C9A36
:1006E0000C945E030F931F93CF93DF93EC018B0168
:1006F0000E9463035C9882E00E943D038D2F0E945C
:100700003D038C2F0E943D0380E00E943D03E801E1
:10071000139589910E943D03C017D107D1F75C9AC8
:10072000DF91CF911F910F910C945E030F931F9354
:10073000CF93DF93EC018B015C9883E00E943D0333
:100740008D2F0E943D038C2F0E943D0380E00E946C
:100750003D03E80113950E9443038993C017D10715
:10076000D1F75C9ADF91CF911F910F9108955C981A
:1007700083E00E943D0380E00E943D0380E00E94F0
:100780003D0380E00C943D030F931F93CF93DF93C1
:10079000EB018B01080F111DC017D10729F4DF9160
:1007A000CF911F910F9108950E9443038993F4CF35
:1007B0005C9A0895CDB7DEB7C650D1400FB6F89415
:1007C000DEBF0FBECDBF289A209A88B1807188B94C
:1007D0003C9A3A9A2FEF81EE94E02150804090406D
:1007E000E1F700C00000449A0E94CD020E946A0115
:1007F0000E942F03789480E00E9402016E01E7E0DE
:10080000CE0ED11C8DE292E00E9476028B3AD1F797
:1008100089837E01F2E0EF0EF11C8E010F5F1F4F06
:1008200058018DE292E00E947602F70181937F01E8
:10083000EC15FD05B1F7ED80FE80F1E0EF16FF0647
:1008400008F7E00EF11EE016F106A9F48C819091F4
:100850000001891711F08F3F19F4C5010E943A0178
:100860008C818F3F21F090910001891759F2C501C9
:100870000E94C500C7CF8DE292E00E947602F80187
:1008800086830F5F1F4FDFCFEF920F931F93CF939E
:10089000DF9300D000D00F92CDB7DEB7322F0D839B
:1008A00054E047FD54E1242F27FD2195E52E032F29
:1008B0004D81512F69837A838B839C8369817A81EF
:1008C0008B819C810E9496048D81912F0F900F90B7
:1008D0000F900F900F90DF91CF911F910F91EF909C
:1008E0000895BB274A3031F4992322F4BDE2909554
:1008F00081959F4F0C947D04BB27FB015527AA27A8
:10090000880F991FAA1FA41710F0A41B839550519C
:10091000B9F7A05DAA3308F0A95DA193009779F714
:10092000B111B1931192CB010C94CD06ADE0B0E0C2
:10093000ECE9F4E00C94DD066A01F22E402E2E2C38
:10094000102F2BE3201708F41BE31F5F012F27E074
:10095000AE014F5F5F4F6A877B878C879D876A8573
:100960007B858C859D850E94EE054C015980852DE7
:1009700089700DE2813039F00BE221FC04C0022DB8
:10098000017020FC00E2422D4071342E952D9870AC
:1009900053FE41C083E0011184E08F1598F5F81AE9
:1009A00031100BC0EF2CF12CA70160E270E0C60102
:1009B0000E94C606CE0CDF1CF12C002319F0F601B4
:1009C00001936F0186010D5F1F4F22FE1DC08EE453
:1009D000D6018C9391E411969C93119712968C9367
:1009E000EF2CF12CA70160E270E0C8010E94C6065E
:1009F000E00EF11ED7011C928EEF9FEF2D96E2E1E3
:100A00000C94F906F12CCCCF8EE6F601808391E6AA
:100A100091838283E5CF52FE3EC083E0011184E0E2
:100A20008F1510F49F2D981B31100BC0E92EF12C5F
:100A3000A70160E270E0C6010E94C606CE0CDF1C72
:100A400090E0002319F0F60101936F017601B3E005
:100A5000EB0EF11C22FE14C089E4F60180838EE4C3
:100A6000818386E48283092F10E0A80160E270E0B0
:100A7000C7010E94C606F701E00FF11F1082BCCF2C
:100A800089E6D6018C938EE611968C93119786E6B3
:100A900012968C93E8CF540197FE02C0B12CA12C82
:100AA00081E090E0011102C090E080E095012F5FAD
:100AB0003F4F820F931F642C712C93012F5F3F4F88
:100AC000411002C030E020E0820F931FF816190693
:100AD00009F00CF45FC0F81A31107DC023FC0BC084
:100AE000EF2CF12CA70160E270E0C6010E94C6065F
:100AF000CE0CDF1CF12C002329F0F60101936F01CD
:100B000031100BC0EF2CF12CA70160E370E0C6019F
:100B10000E94C606CE0CDF1CF12C180D9A81252DE3
:100B2000207154FE03C0913309F411501116A4F53D
:100B3000193008F018E0F401EA19FB0941E050E02F
:100B40004C0F5D1FE40FF51FA401411B5109719467
:100B5000619471083EE28A149B0404F14A155B0516
:100B6000ECF48181B1E0AB1AB10886010F5F1F4F31
:100B7000A614B704ACF0D6018C93BFEFAB16BB063E
:100B800031F486010E5F1F4FD60111963C933196CA
:100B90006801E1CFF12CA0CF11E0CDCF80E3E2CF0F
:100BA0008A149B0439F4963320F4953319F42111F7
:100BB00001C081E3F6018083EF2CF12CA70160E2F4
:100BC00070E0C8010E94C6060E0D1F1DD8011C92C0
:100BD00090E080E013CF011190CF9FCF283008F034
:100BE00027E03327DA01990F311D87FD91600096C8
:100BF0006105710539F432602E5F3D9330E32A952B
:100C0000E1F708959F3F30F080387105610509F0E4
:100C10003C5F3C5F3D93913008F08068911DDF930D
:100C2000CF931F930F93FF92EF92192F987F969572
:100C3000E92F96959695E90FFF27EE53FF4F9927D9
:100C40003327EE24FF24A701E701059008940794B9
:100C500028F4360FE71EF81E491F511D660F771F37
:100C6000881F991F0694A1F70590079428F4E70EB2
:100C7000F81E491F561FC11D770F881F991F661F39
:100C80000694A1F70590079428F4F80E491F561F03
:100C9000C71FD11D880F991F661F771F0694A1F7E4
:100CA0000590079420F4490F561FC71FD81F990FAE
:100CB000661F771F881F0694A9F7849110951770F7
:100CC00041F0D695C79557954795F794E7941A95AF
:100CD000C1F7E8E6F0E068941590159135916591BB
:100CE000959105907FE27395E118F10A430B560B3D
:100CF000C90BD009C0F7E10CF11E431F561FC91FD5
:100D0000D01D7EF4703311F48A95E6CFE89401503B
:100D100030F0080F0AF40027021708F4202F23955B
:100D2000022F7A3328F079E37D932A95E9F710C0F2
:100D30007D932A9589F6069497956795379517952B
:100D40001794E118F10A430B560BC90BD00998F020
:100D500023957E9173957A3308F070E37C9320138A
:100D6000B8F77E9170617D9330F0839571E37D9348
:100D700070E32A95E1F71124EF90FF900F911F91F6
:100D8000CF91DF91992787FD90950895DC0101C0EF
:100D90006D9341505040E0F70895DC01FC01672F4E
:100DA00071917723E1F7329704C07C916D93708342
:100DB0006291AE17BF07C8F308952F923F924F92EA
:100DC0005F926F927F928F929F92AF92BF92CF92DB
:100DD000DF92EF92FF920F931F93CF93DF93CDB7E4
:100DE000DEB7CA1BDB0B0FB6F894DEBF0FBECDBF5C
:100DF00009942A88398848885F846E847D848C842D
:100E00009B84AA84B984C884DF80EE80FD800C8135
:100E10001B81AA81B981CE0FD11D0FB6F894DEBF18
:0C0E20000FBECDBFED010895F894FFCF88
:00000001FF
