:100000000C9434000C9451000C9451000C94510049
:100010000C940B020C9451000C9451000C94510060
:100020000C9451000C9451000C9451000C9451000C
:100030000C9451000C9451000C9451000C945100FC
:100040000C9451000C9451000C9494030C945100A6
:100050000C9451000C9451000C9451000C945100DC
:100060000C9451000C94510011241FBECFEFD8E026
:10007000DEBFCDBF11E0A0E0B1E0E2E5F3E102C0F8
:1000800005900D92A83FB107D9F724E0A8EFB1E0A1
:1000900001C01D92AE3CB207E1F70E94E9080C9442
:1000A000A7090C9400000F931F93CF938C01FC01C0
:1000B000848195810696A1F0C0E090E080E0800FF9
:1000C000911FFC0180810E94BC03CF5F8C2F90E0C8
:1000D000F801248135812A5F3F4F8217930778F317
:1000E000CF911F910F910895EF92FF920F931F935D
:1000F000CF93DF9300D000D000D0CDB7DEB79BEA1E
:100100009983811127C081EF8A831E821D828EEF21
:100110008C83809181028B838E010E5F1F4F7E0145
:1001200087E0E80EF11C8BEA03C0F80181918F0192
:100130000E94BC030E151F05C1F726960FB6F89452
:10014000DEBF0FBECDBFDF91CF911F910F91FF900A
:10015000EF90089580EFD8CF482F50E0EAEFF1E01C
:1001600030E020E0CA01022E02C0880F991F0A94D5
:10017000E2F7959587959595879580728083118292
:1001800012822F5F3F4F33962830310559F7E2E155
:10019000F2E08FE6DF011D928A95E9F76DE28AEFC2
:1001A00091E00E9413058FEC97E00197F1F700C0F2
:1001B00000000895EF92FF920F931F93CF93DF9368
:1001C00000D000D000D0CDB7DEB7FC0191819034D3
:1001D00009F4AAC0C8F1913509F478C008F45DC0EB
:1001E00080918102903649F4248135812130310596
:1001F00009F09FC09681909300019BEA998390EF4C
:100200009A831E821D829EEF9C838B838E010E5FDC
:100210001F4F7E01F7E0EF0EF11C8BEA03C0F801DF
:1002200081918F010E94BC03E016F106C1F726966A
:100230000FB6F894DEBF0FBECDBFDF91CF911F91F7
:100240000F91FF90EF900895913109F452C098F109
:10025000903309F045C084819581019709F443C02A
:100260008BEA898381EF8A831E821D828EEF8C83C5
:10027000809181028B838E010E5F1F4F7E01F7E01C
:10028000EF0EF11C8BEA03C0F80181918F010E94EF
:10029000BC030E151F05C1F7CACF913499F19035F3
:1002A000F9F40E948C0867E88AEF91E00E94B00898
:1002B00080918102A2CF992371F1903189F48481D8
:1002C0009581892B09F050C0289AB1CF6DE28AEF51
:1002D00091E00E94130567E88AEF91E00E94B00860
:1002E000809181028ACF86810E94AC008091810238
:1002F00084CF84819581892B09F070C028988091E2
:1003000081027BCF64817581CF0106960E944F07E1
:100310008091810272CF84819581019709F041C05B
:1003200086818093810283CF0E942607809181027B
:1003300064CF9BEA998391EF9A831E821D829EEF80
:100340009C838B838E010E5F1F4F7E01F7E0EF0EC3
:10035000F11C8BEA03C0F80181918F010E94BC035C
:100360000E151F05C1F763CF8BEA898381EF8A835E
:100370001E821D828EEF8C83809181028B838E0181
:100380000E5F1F4F7E01F7E0EF0EF11C8BEA03C0FA
:10039000F80181918F010E94BC030E151F05C1F762
:1003A00046CF8BEA898381EF8A831E821D828EEF7E
:1003B0008C83809181028B838E010E5F1F4F7E01A3
:1003C00087E0E80EF11C8BEA03C0F80181918F01F0
:1003D0000E94BC03E016F106C1F729CF8BEA89839E
:1003E00081EF8A831E821D828EEF8C838091810231
:1003F0008B838E010E5F1F4F7E01F7E0EF0EF11C25
:100400008BEA03C0F80181918F010E94BC030E1595
:100410001F05C1F70CCF1F920F920FB60F92112438
:100420002F933F934F935F936F937F938F939F93FC
:10043000AF93BF93EF93FF938091CC04882331F067
:1004400080910001811113C0309B22C0FF91EF9178
:10045000BF91AF919F918F917F916F915F914F91DC
:100460003F912F910F900FBE0F901F9018956DE246
:100470008AEF91E00E9413050E946B0530990FC02E
:10048000EAEFF1E087E8DF011D928A95E9F7DECF18
:100490006DE28AEF91E00E9413050E946B0567E808
:1004A0008AEF91E00E94B008D1CF0F931F93CF93B2
:1004B000DF93CDB7DEB7DA950FB6F894DEBF0FBE87
:1004C000CDBF28982FEF81EE94E0215080409040DE
:1004D000E1F700C000000E94AE060E9407082FEF5F
:1004E00080E792E0215080409040E1F700C000009A
:1004F0000E9407080E94DC060E9407080E94260747
:100500000E94070860E071E0CE0101960E944F074B
:100510000E9407080E9426070E94070860E071E019
:10052000CE0101960E944F070E94070801E210E0E9
:1005300060E071E0CE0101960E944F070150110961
:10054000B9F70E940708D3950FB6F894DEBF0FBE27
:10055000CDBFDF91CF911F910F910895CF93DF937E
:10056000CDB7DEB7C450D1400FB6F894DEBF0FBE92
:10057000CDBF8AE289838BE28A838CE28B830E94DF
:10058000AE060E9407080E94DC060E9407080E942F
:10059000260760E071E0CE0101960E944F0760E1FE
:1005A00070E0CE0101960E944F070E9407080E944A
:1005B0008C080E94070881E0898382E08A8383E0B7
:1005C0008B8367E8CE0101960E94B00881E091E03C
:1005D0000E94C3038981282F30E050E040E0CA0127
:1005E000B9010E94D2038BE091E00E94C3038A818B
:1005F000282F30E050E040E0CA01B9010E94D20348
:1006000087E191E00E94C3038B81282F30E050E006
:1006100040E0CA01B9010E94D2038AE491E00E943D
:10062000C303CC5FDE4F0FB6F894DEBF0FBECDBF65
:10063000DF91CF910895CF93DF93CDB7DEB7C1504F
:10064000D1400FB6F894DEBF0FBECDBF289883E22D
:1006500091E00E94C3030E9405068FE291E00E9490
:10066000C3038FE0EDE3F1E0DE01119601900D92FE
:100670008A95E1F7BE016F5F7F4F81E090E00E94B5
:1006800016068CE491E00E94C30340E051E068E765
:1006900070E0CE0101960E94760981E090E00E9410
:1006A0006F0689E591E00E94C30302C00E94BC036B
:1006B00061E0CE018F5F9E4F0E948606CF5FDE4FC6
:1006C0008881C150D1409FEF980F9E3F78F30E94E0
:1006D0009A0688E691E00E94C303CF5FDE4F0FB613
:1006E000F894DEBF0FBECDBFDF91CF91089548E8EB
:1006F00053E06CE271E084EB94E00E940D041092F0
:10070000C50081E08093C40088E98093C10086E041
:100710008093C2008091C6008091C00087FDFACF0F
:1007200082EC8093C00008951F920F920FB60F9233
:1007300011242F933F934F935F936F937F938F93E6
:100740009F93AF93BF93EF93FF936091C60084EBA9
:1007500094E00E941E04FF91EF91BF91AF919F9191
:100760008F917F916F915F914F913F912F910F905A
:100770000FBE0F901F9018959091C00095FFFCCF71
:100780008093C6000895FC019081992351F0319621
:100790008091C00085FFFCCF9093C600919191118C
:1007A000F7CF0895CF93DF9300D000D000D00F9201
:1007B000CDB7DEB7362F272F4AE0BE016F5F7F4FE0
:1007C000832F922F0E947D099981992359F0FE0170
:1007D00032968091C00085FFFCCF9093C600919126
:1007E0009111F7CF27960FB6F894DEBF0FBECDBF9D
:1007F000DF91CF910895882341F08091C00085FF5B
:10080000FCCF81E38093C60008958091C00085FFEE
:10081000FCCF80E38093C6000895FC01CA01518794
:1008200040875583448357834683138212827183A2
:100830006083860F971F938782870895FC01F89441
:1008400082819381208131818217930780F4019600
:1008500093838283A681B7816C9386819781019669
:1008600097838683228533858217930711F07894C6
:100870000895808591859783868378940895CF9392
:10088000DF93FC01CA01009751F1DB01AB01480F76
:10089000591F04C07894A417B50709F16D91F89415
:1008A00082819381208131818217930798F7019685
:1008B00093838283C681D7816883868197810196DD
:1008C00097838683228533858217930719F780855E
:1008D0009185978386837894A417B507F9F6DF91FD
:1008E000CF910895FC01F8942281338121153105BF
:1008F00081F0A481B5818D91215031093383228308
:10090000B583A48322853385A217B30729F0789491
:100910000895789480E00895208531853583248377
:1009200078940895FC01F894828193817894892BBE
:10093000D1F3F894228133812115310581F0A4810E
:10094000B5818D912150310933832283B583A483EE
:1009500022853385A217B30729F0789408957894F7
:1009600080E0089520853185358324837894089527
:10097000CF93DF93FC01CA01009711F1DB01AB01BA
:10098000480F591F12C0C481D581299101979383C3
:100990008283D583C48382859385C817D90799F04C
:1009A00078942D93A417B50759F0F8948281938118
:1009B000009749F7789420E02D93A417B507A9F77D
:1009C000DF91CF9108958085918595838483E8CFC9
:1009D000FC01F894A481B581A60FB71F8285938589
:1009E000A817B90720F080819181A81BB90B8281DB
:1009F0009381892B19F078948C910895789480E0F4
:100A00000895FC01F8948281938178940895FC0103
:100A100080819181F894228133817894821B930B99
:100A20000895219A0895DC0195B145B1E62FEE0FA6
:100A3000E60F9D7F42602D9145B9000027FF95B9D3
:100A40000000000095B900000000000045B900005A
:100A500026FF95B90000000095B9000000000000D5
:100A600045B9000025FF95B90000000095B90000C8
:100A70000000000045B9000024FF95B90000000007
:100A800095B900000000000045B9000023FF95B9AA
:100A90000000000095B900000000000045B900000A
:100AA00022FF95B90000000095B900000000000089
:100AB00045B9000021FF95B90000000095B900007C
:100AC0003D9145B9000020FF95B9232FEA9595B9CE
:100AD00009F0B2CF0895299882E98A95F1F700C00C
:100AE00008955C9A549A5B9A539A5A9A529A239A06
:100AF000259A229A80E58CBD81E08DBD5C9889E9BC
:100B00008EBD0DB407FEFDCF8EB55C9A08958EBDE7
:100B10000DB407FEFDCF8EB508958FEF8EBD0DB4D9
:100B200007FEFDCF8EB508955C9885E08EBD0DB4AF
:100B300007FEFDCF8EB58FEF8EBD0DB407FEFDCF46
:100B40008EB55C9A08955C9889E98EBD0DB407FE58
:100B5000FDCF8EB55C9A08955C988FE98EBD0DB47B
:100B600007FEFDCF8EB58FEF8EBD0DB407FEFDCF16
:100B70008EB55C9A08955C9885E08EBD0DB407FE35
:100B8000FDCF8EB58FEF8EBD0DB407FEFDCF8EB5B8
:100B90005C9A8170089525E09FEF5C982EBD0DB49E
:100BA00007FEFDCF8EB59EBD0DB407FEFDCF8EB501
:100BB0005C9A80FDF2CF08955C9886E08EBD0DB4FE
:100BC00007FEFDCF8EB55C9A08955C9826E02EBD99
:100BD0000DB407FEFDCF2EB55C9A5C9820E22EBDC9
:100BE0000DB407FEFDCF2EB59EBD0DB407FEFDCFA3
:100BF0009EB58EBD0DB407FEFDCF8EB51EBC0DB4E7
:100C000007FEFDCF8EB55C9A08955C9886E08EBD98
:100C10000DB407FEFDCF8EB55C9A5C9887EC8EBD57
:100C20000DB407FEFDCF8EB55C9A08959C01962FFA
:100C3000872F5C9846E04EBD0DB407FEFDCF4EB544
:100C40005C9A5C9842E04EBD0DB407FEFDCF4EB5F8
:100C50003EBD0DB407FEFDCF3EB52EBD0DB407FE63
:100C6000FDCF2EB51EBC0DB407FEFDCF2EB5E92F6E
:100C7000F82F9F01339581918EBD0DB407FEFDCFF6
:100C80008EB5E217F307B9F75C9A08959C01962F89
:100C9000872F5C9843E04EBD0DB407FEFDCF4EB5E7
:100CA0003EBD0DB407FEFDCF3EB52EBD0DB407FE13
:100CB000FDCF2EB51EBC0DB407FEFDCF2EB5E92F1E
:100CC000F82F9F0133959FEF9EBD0DB407FEFDCF1A
:100CD0008EB58193E217F307B9F75C9A08955C9893
:100CE00023E02EBD0DB407FEFDCF2EB59EBD0DB485
:100CF00007FEFDCF9EB58EBD0DB407FEFDCF8EB5B0
:100D00001EBC0DB407FEFDCF8EB50895662389F095
:100D1000FC019C012F5F3F4F6150260F311D9FEF5B
:100D20009EBD0DB407FEFDCF8EB58193E217F3078C
:100D3000B9F708955C9A08955C9885E78EBD0DB467
:100D400007FEFDCF8EB55C9A08955C988AE78EBD4C
:100D50000DB407FEFDCF8EB55C9A08951092CD04B8
:100D60001092CC041092CB041092CA041092C904C1
:100D70001092C8041092C7041092C6041092C504C1
:100D80001092C40490E080E00E94E5050E94CB052B
:100D900080E190E09093C1048093C0048091CA04E4
:100DA0009091CB04409739F080E190E00E94E505F6
:100DB00081E08093CD0408958091CC0481111EC000
:100DC0008091CD04811111C08091C0049091C10423
:100DD0002091CA043091CB042817390771F00E9482
:100DE000E50581E08093CD0408950E94BB0588232A
:100DF00081F08091CD04882339F308950E949A06EA
:100E00001092CC048091CD048823F1F20E94A506B3
:100E1000D7CF1092CD048091C0049091C104409628
:100E20009093C1048093C004D3CF8091C00490916B
:100E3000C1042091CA043091CB048217930729F092
:100E40000E94E50581E08093CD0408958091CA0455
:100E50009091CB042091C8043091C904820F931F54
:100E60009093CB048093CA041092C9041092C804D2
:100E70001092C7041092C6041092C5041092C404C4
:100E800008950E94CB051092CD048091C0049091EA
:100E9000C10440969093C1048093C0040895CF92FA
:100EA000DF92EF92FF920F931F93CF93DF93D82E91
:100EB000C92E8B012091CC04211151C02091CA046C
:100EC0003091CB04C091C804D091C904C20FD31F84
:100ED000E090C004F090C1048091CD04EC16FD06B2
:100EE00009F46FC0811184C06D2D7C2DCE010E944C
:100EF00016060E94CB058091C8049091C904019602
:100F00009093C9048093C8042091C4043091C5040F
:100F1000200F311F3093C5042093C40427383105B6
:100F2000A8F08091C6049091C70401962758310912
:100F3000582F492F019627383105C0F75093C60422
:100F40004093C7043093C5042093C404DF91CF912C
:100F50001F910F91FF90EF90DF90CF9008950E9426
:100F60009A061092CC048091CD0481114DC020913D
:100F7000CA043091CB04C091C804D091C904C20FF7
:100F8000D31F8091C0049091C1048C179D0709F074
:100F9000ABCF7E01E216F30631F0C7010E94E505F2
:100FA00081E08093CD040E94CB051092CD04809106
:100FB000C0049091C10440969093C1048093C004F2
:100FC00093CF882339F30E94CB051092CD048091F2
:100FD000C0049091C10440969093C1048093C004D2
:100FE0006D2D7C2DC7010E9416060E94CB0583CF74
:100FF0000E949C066D2D7C2DCE010E9416060E943B
:10100000CB050E94A50677CF0E94A50657CFCF93A8
:10101000DF9300D000D0CDB7DEB784E791E00E9427
:10102000C3038091CA049091CB049C0150E040E03E
:10103000CA01B9010E94D20382E891E00E94C30371
:101040008091C8049091C9049C0150E040E0CA011D
:10105000B9010E94D20388E991E00E94C303809104
:10106000C6049091C7049C0150E040E0CA01B90158
:101070000E94D20381EB91E00E94C3038091C404DB
:101080009091C5049C0150E040E0CA01B9010E9462
:10109000D20387EC91E00E94C3038091CD040E94AB
:1010A000FB0383ED91E00E94C3038091CC040E9476
:1010B000FB038FED91E00E94C3038091C0049091E7
:1010C000C1049C0150E040E029833A834B835C8358
:1010D000CA01B9010E94D2038EEE91E00E94C303BF
:1010E0008091CC04811112C00E94BB05982F81E031
:1010F000992381F00E94FB038AE491E00F900F9006
:101100000F900F90DF91CF910C94C3038FE30E9457
:10111000BC03F2CF80E0EECF8091CC04811115C0EA
:101120008091CD0481110EC08091CA049091CB04AE
:101130000E946F0681E08093CC041092C304109249
:10114000C20408950E949C06EFCF0E949A06109256
:10115000CC048091CD04882339F30E94A506E0CF0A
:101160001F93CF93DF93D82FC92F162F8091CC04D4
:101170008823C9F02091C2043091C3048091C60431
:101180009091C7042817390791F0612F8D2F9C2F5C
:101190000E9486068091C2049091C30401969093A8
:1011A000C3048093C204DF91CF911F9108950E94E0
:1011B0008C08EBCF8091CC04811101C008950E946E
:1011C0009A061092CC048091CD048823B9F30C9434
:1011D000A506289A209A88B1807188B93C9A3A9AD3
:1011E0002FEF83ED90E3215080409040E1F700C065
:1011F0000000449A0E9411050E9477030E94710525
:101200000E94AE06789480E00E94AC003898409A24
:101210008091680082608093680080916C0081609A
:1012200080936C000AEF1FEF0258124084EB94E0A9
:101230000E9492048B3AD1F780938202C3E8D2E0F5
:1012400084EB94E00E9492048993E2E0C838DE07C0
:10125000B9F780918602909187028130F1E09F0773
:1012600028F7C8E8D2E0009779F084EB94E00E9478
:101270009204899398012C0F3D1F809186029091D2
:1012800087022817390788F320918502309181025F
:101290002317D1F02F3FC1F0069641F2C0E080E065
:1012A00090E08E579D4FFC0180810E94BC03CF5F70
:1012B0008C2F90E020918602309187022A5F3F4F69
:1012C0008217930770F3B2CF82E892E00E94DA00AF
:1012D000809185028F3F29F090918102891709F44E
:1012E000A5CF8091860290918702D6CFDC0101C004
:1012F0006D9341505040E0F70895BB27FB015527FF
:10130000AA27880F991FAA1FA41710F0A41B839562
:101310005051B9F7A05DAA3308F0A95DA1930097D9
:1013200079F7B111B1931192CB010C949709DC01BB
:10133000FC01672F71917723E1F7329704C07C910C
:101340006D9370836291AE17BF07C8F30895F89448
:02135000FFCFCD
:1013520001646174615B305D3A20002C2064617429
:10136200615B315D3A20002C20646174615B325D07
:101372003A20000D0A537461727465640D0A0043C9
:10138200686970206572617365640D0A0048656C56
:101392006C6F20776F726C64210D0A00577269744A
:1013A2006520646F6E650D0A005265616420737476
:1013B20061727465640D0A005265616420646F6E27
:1013C200650D0A00696D6167655F73746172743AD5
:1013D20020002C20696D6167655F6C656E677468BB
:1013E2005F706167653A20002C20696D6167655FF7
:1013F2006C656E6774685F636F6C756D6E733A20AF
:10140200002C20696D6167655F65787472615F6247
:10141200797465733A20002C2065726173696E6776
:101422003A20002C2072656164696E673A20002CB4
:101432002065726173655F6E6578743A20002C20B6
:08144200627573793A20000085
:00000001FF
