:100000000C9434000C9451000C9451000C94510049
:100010000C941A020C9451000C9451000C94510051
:100020000C9451000C9451000C9451000C9451000C
:100030000C9451000C9451000C9451000C945100FC
:100040000C9451000C9451000C94E6030C94510054
:100050000C9451000C9451000C9451000C945100DC
:100060000C9451000C94510011241FBECFEFD8E026
:10007000DEBFCDBF11E0A0E0B1E0E0E2FAE102C0F6
:1000800005900D92AA3FB107D9F724E0AAEFB1E09D
:1000900001C01D92A03DB207E1F70E949B0A0C949B
:1000A000DD0C0C940000EF92FF920F931F93CF93FF
:1000B000DF937C01FC0184819581069681F08701A4
:1000C000D0E0C0E0F80181918F010E940E042196DA
:1000D000F701848195810696C817D90798F3DF91B7
:1000E000CF911F910F91FF90EF900895EF92FF92A3
:1000F0000F931F93CF93DF9300D000D000D0CDB7E4
:10010000DEB79BEA9983811127C081EF8A831E8223
:100110001D828EEF8C83809183028B838E010E5F14
:100120001F4F7E0187E0E80EF11C8BEA03C0F80147
:1001300081918F010E940E040E151F05C1F72696AE
:100140000FB6F894DEBF0FBECDBFDF91CF911F91E8
:100150000F91FF90EF90089580EFD8CF482F50E097
:10016000ECEFF1E030E020E0CA01022E02C0880F7F
:10017000991F0A94E2F795958795959587958072D2
:100180008083118212822F5F3F4F339628303105D2
:1001900059F7E4E1F2E08FE6DF011D928A95E9F775
:1001A0006DE28CEF91E00E9465058FEC97E001977E
:1001B000F1F700C000000895EF92FF920F931F9394
:1001C000CF93DF9300D000D000D0CDB7DEB7DC01F5
:1001D0001196EC911197E13678F4E033B0F1E053E9
:1001E000E13350F4F0E0E152F34F0C94710B0E94B4
:1001F0005D0980E00E94AE00809183029BEA9983B2
:1002000090EF9A831E821D829EEF9C838B838E01CA
:100210000E5F1F4F7E01F7E0EF0EF11C8BEA03C06B
:10022000F80181918F010E940E04E016F106C1F7DA
:1002300026960FB6F894DEBF0FBECDBFDF91CF91EB
:100240001F910F91FF90EF900895E03109F471C074
:10025000E13151F414968D919C91892B09F095C050
:10026000289880918302CACFE111C6CF14968D9150
:100270009C911597019709F06BC016968C9180930D
:100280008302D6CF14966D917C9106960E94BD078D
:1002900080918302B3CF0E94920780918302AECFF8
:1002A0008091830214962D913C9115972130310550
:1002B00009F088C016969C91909300019FCF0E94F0
:1002C000050967E88CEF91E00E942909809183027B
:1002D00095CF6DE28CEF91E00E94650567E88CEFA9
:1002E00091E00E9429098091830288CF14968D9114
:1002F0009C911597019729F18BEA898381EF8A8375
:100300001E821D828EEF8C83809183028B838E01EF
:100310000E5F1F4F7E01F7E0EF0EF11C8BEA03C06A
:10032000F80181918F010E940E040E151F05C1F77F
:100330007FCF14968D919C91892B09F05EC0289AED
:1003400077CF16968C910E94AE008091830256CF93
:100350008BEA898381EF8A831E821D828EEF8C83D4
:10036000809183028B838E010E5F1F4F7E0187E099
:10037000E80EF11C8BEA03C0F80181918F010E9405
:100380000E040E151F05C1F753CF8BEA898381EF49
:100390008A831E821D828EEF8C83809183028B83E1
:1003A0008E010E5F1F4F7E01F7E0EF0EF11C8BEA0E
:1003B00003C0F80181918F010E940E040E151F05E4
:1003C000C1F736CF9BEA998391EF9A831E821D82F3
:1003D0009EEF9C838B838E010E5F1F4F7E01F7E0A3
:1003E000EF0EF11C8BEA03C0F80181918F010E948E
:1003F0000E040E151F05C1F71BCF8BEA898381EF11
:100400008A831E821D828EEF8C83809183028B8370
:100410008E010E5F1F4F7E01F7E0EF0EF11C8BEA9D
:1004200003C0F80181918F010E940E040E151F0573
:10043000C1F7FECE1F920F920FB60F9211242F9389
:100440003F934F935F936F937F938F939F93AF935C
:10045000BF93EF93FF938091CE04882331F0809176
:100460000001811113C0309B22C0FF91EF91BF9119
:10047000AF919F918F917F916F915F914F913F913C
:100480002F910F900FBE0F901F9018956DE28CEF7B
:1004900091E00E9465050E94BD0530990FC0ECEF08
:1004A000F1E087E8DF011D928A95E9F7DECF6DE282
:1004B0008CEF91E00E9465050E94BD0567E88CEF16
:1004C00091E00E942909D1CF0F931F93CF93DF931F
:1004D000CDB7DEB7DA950FB6F894DEBF0FBECDBF4D
:1004E00028982FEF81EE94E0215080409040E1F772
:1004F00000C000000E9403070E9480082FEF80E7E1
:1005000092E0215080409040E1F700C000000E943E
:1005100080080E9442070E9480080E9492070E9461
:10052000800860E071E0CE0101960E94BD070E9444
:1005300080080E9492070E94800860E071E0CE016E
:1005400001960E94BD070E94800801E210E060E071
:1005500071E0CE0101960E94BD0701501109B9F763
:100560000E948008D3950FB6F894DEBF0FBECDBFB2
:10057000DF91CF911F910F910895CF93DF93CDB766
:10058000DEB7C450D1400FB6F894DEBF0FBECDBF6A
:100590008AE289838BE28A838CE28B830E94030741
:1005A0000E9480080E9442070E9480080E949207D1
:1005B00060E071E0CE0101960E94BD0760E170E04D
:1005C000CE0101960E94BD070E9480080E94050985
:1005D0000E94800881E0898382E08A8383E08B83A4
:1005E00067E8CE0101960E94290981E091E00E940E
:1005F00015048981282F30E050E040E0CA01B9019C
:100600000E9424048BE091E00E9415048A81282F27
:1006100030E050E040E0CA01B9010E94240487E1C3
:1006200091E00E9415048B81282F30E050E040E0DB
:10063000CA01B9010E9424048AE491E00E941504D1
:10064000CC5FDE4F0FB6F894DEBF0FBECDBFDF919B
:10065000CF910895CF93DF93CDB7DEB7C150D1408E
:100660000FB6F894DEBF0FBECDBF289883E291E0AD
:100670000E9415040E945A068FE291E00E94150420
:100680008FE0EDE3F1E0DE01119601900D928A9585
:10069000E1F7BE016F5F7F4F81E090E00E946B0643
:1006A0008CE491E00E94150440E051E068E770E0BE
:1006B000CE0101960E94A10C81E090E00E94C40648
:1006C00089E591E00E94150402C00E940E0461E0D9
:1006D000CE018F5F9E4F0E94DB06CF5FDE4F888189
:1006E000C150D1409FEF980F9E3F78F30E94EF06D4
:1006F00088E691E00E941504CF5FDE4F0FB6F894B4
:10070000DEBF0FBECDBFDF91CF910895CF93DF93B2
:1007100000D000D0CDB7DEB780917A00806480939E
:100720007A0080917A0086FDFCCF2091780030918C
:10073000790080917A00806180937A00C901B0E0ED
:10074000A0E089839A83AB83BC83B901CD010E9469
:10075000A60B25E83BEE45E051E469837A838B8361
:100760009C8369817A818B819C810E940C0C6983B6
:100770007A838B839C8369817A818B819C810E949F
:10078000770BCB010F900F900F900F90DF91CF91CF
:1007900008954AE853E06CE271E086EB94E00E9431
:1007A0005F041092C50081E08093C40088E98093C3
:1007B000C10086E08093C2008091C6008091C00095
:1007C00087FDFACF82EC8093C00008951F920F92AC
:1007D0000FB60F9211242F933F934F935F936F9314
:1007E0007F938F939F93AF93BF93EF93FF9360910A
:1007F000C60086EB94E00E947004FF91EF91BF91D8
:10080000AF919F918F917F916F915F914F913F91A8
:100810002F910F900FBE0F901F9018959091C000D0
:1008200095FFFCCF8093C6000895FC019081992329
:1008300051F031968091C00085FFFCCF9093C600A7
:1008400091919111F7CF0895CF93DF9300D000D00D
:1008500000D00F92CDB7DEB7362F272F4AE0BE016A
:100860006F5F7F4F832F922F0E94B30C9981992342
:1008700059F0FE0132968091C00085FFFCCF909325
:10088000C60091919111F7CF27960FB6F894DEBF6D
:100890000FBECDBFDF91CF910895882341F08091A5
:1008A000C00085FFFCCF81E38093C600089580914E
:1008B000C00085FFFCCF80E38093C6000895FC0153
:1008C000CA015187408755834483578346831382E7
:1008D000128271836083860F971F938782870895A2
:1008E000FC01F894828193812081318182179307E2
:1008F00080F4019693838283A681B7816C9386816D
:100900009781019697838683228533858217930783
:1009100011F07894089580859185978386837894E3
:100920000895CF93DF93FC01CA01009751F1DB01D9
:10093000AB01480F591F04C07894A417B50709F1FB
:100940006D91F89482819381208131818217930780
:1009500098F7019693838283C681D78168838681C5
:100960009781019697838683228533858217930723
:1009700019F780859185978386837894A417B507A6
:10098000F9F6DF91CF910895FC01F894228133812B
:100990002115310581F0A481B5818D912150310956
:1009A00033832283B583A48322853385A217B307BB
:1009B00029F078940895789480E008952085318511
:1009C0003583248378940895FC01F894828193817F
:1009D0007894892BD1F3F894228133812115310544
:1009E00081F0A481B5818D91215031093383228317
:1009F000B583A48322853385A217B30729F07894A1
:100A00000895789480E00895208531853583248386
:100A100078940895CF93DF93FC01CA01009711F1F8
:100A2000DB01AB01480F591F12C0C481D581299148
:100A3000019793838283D583C48382859385C81766
:100A4000D90799F078942D93A417B50759F0F89425
:100A500082819381009749F7789420E02D93A41721
:100A6000B507A9F7DF91CF9108958085918595838A
:100A70008483E8CFFC01F894A481B581A60FB71F49
:100A800082859385A817B90720F080819181A81BE2
:100A9000B90B82819381892B19F078948C910895F8
:100AA000789480E00895FC01F89482819381789491
:100AB0000895FC0180819181F8942281338178949A
:100AC000821B930B0895219A0895DC0195B145B1DD
:100AD000E62FEE0FE60F9D7F42602D9145B9000095
:100AE00027FF95B90000000095B900000000000044
:100AF00045B9000026FF95B90000000095B9000037
:100B00000000000045B9000025FF95B90000000075
:100B100095B900000000000045B9000024FF95B918
:100B20000000000095B900000000000045B9000079
:100B300023FF95B90000000095B9000000000000F7
:100B400045B9000022FF95B90000000095B90000EA
:100B50000000000045B9000021FF95B90000000029
:100B600095B900003D9145B9000020FF95B9232FAC
:100B7000EA9595B909F0B2CF0895299808958EBDE8
:100B80000DB407FEFDCF8EB508958FEF8EBD0DB469
:100B900007FEFDCF8EB508955C9885E08EBD0DB43F
:100BA00007FEFDCF8EB58FEF8EBD0DB407FEFDCFD6
:100BB0008EB55C9A08955C9886E68EBD0DB407FEEE
:100BC000FDCF8EB55C9A5C9889E98EBD0DB407FEA9
:100BD000FDCF8EB55C9A87EC90E00197F1F700C0ED
:100BE000000008955C9A549A5B9A539A5A9A529AC2
:100BF000239A259A229A80E58CBD81E08DBD0C94C4
:100C0000DB055C988FE98EBD0DB407FEFDCF8EB578
:100C10008FEF8EBD0DB407FEFDCF8EB55C9A0895A3
:100C20005C9885E08EBD0DB407FEFDCF8EB58FEFCD
:100C30008EBD0DB407FEFDCF8EB55C9A8170089510
:100C400025E09FEF5C982EBD0DB407FEFDCF8EB55D
:100C50009EBD0DB407FEFDCF8EB55C9A80FDF2CF30
:100C600008955C9886E08EBD0DB407FEFDCF8EB56D
:100C70005C9A08955C9826E02EBD0DB407FEFDCF6A
:100C80002EB55C9A5C9820E22EBD0DB407FEFDCF18
:100C90002EB59EBD0DB407FEFDCF9EB58EBD0DB425
:100CA00007FEFDCF8EB51EBC0DB407FEFDCF8EB581
:100CB0005C9A08955C9886E08EBD0DB407FEFDCF6A
:100CC0008EB55C9A5C9887EC8EBD0DB407FEFDCFA7
:100CD0008EB55C9A08959C01962F872F5C9846E00C
:100CE0004EBD0DB407FEFDCF4EB55C9A5C9842E058
:100CF0004EBD0DB407FEFDCF4EB53EBD0DB407FE93
:100D0000FDCF3EB52EBD0DB407FEFDCF2EB51EBCEA
:100D10000DB407FEFDCF2EB5E92FF82F9F013395B7
:100D200081918EBD0DB407FEFDCF8EB5E217F3079E
:100D3000B9F75C9A08959C01962F872F5C9843E041
:100D40004EBD0DB407FEFDCF4EB53EBD0DB407FE42
:100D5000FDCF3EB52EBD0DB407FEFDCF2EB51EBC9A
:100D60000DB407FEFDCF2EB5E92FF82F9F01339567
:100D70009FEF9EBD0DB407FEFDCF8EB58193E217A8
:100D8000F307B9F75C9A08955C9823E02EBD0DB483
:100D900007FEFDCF2EB59EBD0DB407FEFDCF9EB55F
:100DA0008EBD0DB407FEFDCF8EB51EBC0DB407FE83
:100DB000FDCF8EB50895662389F0FC019C012F5F5D
:100DC0003F4F6150260F311D9FEF9EBD0DB407FEB2
:100DD000FDCF8EB58193E217F307B9F708955C9ABA
:100DE00008955C9885E78EBD0DB407FEFDCF8EB5E6
:100DF0005C9A08955C988AE78EBD0DB407FEFDCF1E
:100E00008EB55C9A08951092CF041092CE04109281
:100E1000CD041092CC041092C3041092C20410921C
:100E2000CB041092CA041092C9041092C804109204
:100E3000C7041092C60490E080E00E943A060E9427
:100E400020061092CF048091C2049091C304409672
:100E50009F719093C3048093C2042091CC0430917D
:100E6000CD04207F2817390761F0AC01405F5F4F48
:100E70005F712417350729F00E943A0681E08093BC
:100E8000CF0408958091CE04811125C08091CF04B4
:100E9000811119C08091C2049091C3042091CC04A7
:100EA0003091CD04207F28173907A9F0AC01405FAD
:100EB0005F4F5F712417350771F00E943A0681E099
:100EC0008093CF0408950E941006882329F0809112
:100ED000CF048823F9F208951092CF048091C204C0
:100EE0009091C30440969F719093C3048093C20471
:100EF000D5CF2091CC043091CD04207F8091C204C5
:100F00009091C3048217930761F0AC01405F5F4F7B
:100F10005F714217530729F00E943A0681E08093DF
:100F2000CF0408958091CC049091CD042091CA04FF
:100F30003091CB04820F931F9F719093CD048093C7
:100F4000CC041092CB041092CA041092C9041092DF
:100F5000C8041092C7041092C60408950E94200687
:100F60001092CF048091C2049091C30440969F7167
:100F70009093C3048093C2040895CF92DF92EF92BE
:100F8000FF920F931F93CF93DF93F82EE92E8B01DF
:100F90002091CE04211152C02091CC043091CD0477
:100FA000C091CA04D091CB04C20FD31FDF71C0908F
:100FB000C204D090C3048091CF04CC16DD0609F49E
:100FC00078C081118EC06F2D7E2DCE010E946B06E0
:100FD0000E9420068091CA049091CB0401969093C0
:100FE000CB048093CA042091C6043091C704200F1B
:100FF000311F3093C7042093C60427383105A8F069
:101000008091C8049091C904019627583109582F3E
:10101000492F019627383105C0F75093C8044093F3
:10102000C9043093C7042093C604DF91CF911F9168
:101030000F91FF90EF90DF90CF9008950E94EF0600
:101040001092CE048091CF04811157C02091CC041E
:101050003091CD04C091CA04D091CB04C20FD31FEC
:10106000DF718091C2049091C3048C179D0709F031
:10107000AACF6E01207F2C153D0561F0C601409678
:101080009F712817390731F0C6010E943A0681E0A6
:101090008093CF040E9420061092CF048091C20456
:1010A0009091C30440969F719093C3048093C204AF
:1010B0008ACF8823F9F20E9420061092CF048091F3
:1010C000C2049091C30440969F719093C30480938F
:1010D000C2046F2D7E2DC6010E946B060E94200661
:1010E00079CF0E94F1066F2D7E2DCE010E946B06F6
:1010F0000E9420060E94FA066DCF0E94FA064CCF8D
:10110000CF93DF9300D000D0CDB7DEB784E791E076
:101110000E9415048091CC049091CD049C0150E074
:1011200040E0CA01B9010E94240482E891E00E94D3
:1011300015048091CA049091CB049C0150E040E0DA
:10114000CA01B9010E94240488E991E00E941504B3
:101150008091C8049091C9049C0150E040E0CA010C
:10116000B9010E94240481EB91E00E941504809152
:10117000C6049091C7049C0150E040E0CA01B90147
:101180000E94240487EC91E00E9415048091CF0412
:101190000E944D0483ED91E00E9415048091CE04DD
:1011A0000E944D048FED91E00E9415048091C204CD
:1011B0009091C3049C0150E040E029833A834B8323
:1011C0005C83CA01B9010E9424048EEE91E00E9462
:1011D00015048091CE04811112C00E941006982F30
:1011E00081E0992381F00E944D048AE491E00F9000
:1011F0000F900F900F90DF91CF910C9415048FE317
:101200000E940E04F2CF80E0EECF8091CE048111D7
:1012100015C08091CF0481110EC08091CC049091B3
:10122000CD040E94C40681E08093CE041092C504D0
:101230001092C40408950E94F106EFCF0E94EF06B9
:101240001092CE048091CF04882339F30E94FA06CD
:10125000E0CF1F93CF93DF93D82FC92F162F809104
:10126000CE048823C9F02091C4043091C504809134
:10127000C8049091C9042817390791F0612F8D2F68
:101280009C2F0E94DB068091C4049091C5040196B6
:101290009093C5048093C404DF91CF911F9108956A
:1012A0000E94EF068091CC049091CD040E94C40668
:1012B0001092C5041092C404E1CF8091CE04811134
:1012C00001C008950E94EF061092CE048091CF04D1
:1012D0008823B9F30C94FA06399A419A08954198F3
:1012E00045E84A95F1F7000028E030E091E009C0B8
:1012F000419A45E84A95F1F70000990F21503109CC
:1013000029F0482F4923A1F74198F3CF419A87EC60
:1013100090E00197F1F700C000000895CF93DF93AC
:10132000EC018881882331F021960E946F09899110
:101330008111FBCFDF91CF9108950F931F93CF932E
:10134000DF9300D000D000D00F92CDB7DEB7362F9C
:10135000272F4AE0BE016F5F7F4F832F922F0E949D
:10136000A80C8981882351F08E010E5F1F4F0E94C7
:101370006F09F80181918F018111F9CF27960FB67E
:10138000F894DEBF0FBECDBFDF91CF911F910F91BB
:101390000895EF92FF920F931F93CF93DF9300D0A6
:1013A00000D00F92CDB7DEB79C01FE0136968E01BC
:1013B0000F5F1F4FBDEC4DEC5CECA5E0822F8F70F2
:1013C000B901729562956F7067277F7067276F709C
:1013D000860F932F9F70890F932F92959F70890F7F
:1013E0008B9F912D1124692F669566959C77960F9A
:1013F000891B90E0281B390B249FB001259F700D9D
:10140000349F700D11247B0121E0E222FF24AE9D68
:101410009001AF9D300D1124820F931F82939B0189
:1014200036952795E017F10749F6780185E0E80E33
:10143000F11CF80181918F01805D0E946F09E01617
:10144000F106B9F70F900F900F900F900F90DF916A
:10145000CF911F910F91FF90EF900895EF92FF921F
:101460000F931F93CF93DF9300D000D0CDB7DEB79B
:101470009C01FE0135968E010F5F1F4F822F8F70EA
:101480008293329522952F7023273F702327E017F0
:10149000F107A1F788EFE82E81E0F82E80E30E94A3
:1014A0006F09F70181917F018111F9CF7801F4E093
:1014B000EF0EF11CF80181918F018A308CF4805D70
:1014C0000E946F09E016F106A9F70F900F900F9098
:1014D0000F90DF91CF911F910F91FF90EF900895A2
:1014E000895C0E946F09EECF0F931F93CF93DF9318
:1014F000182F082F0F7012951F70C8EFD1E080E3EE
:101500000E946F0989918111FBCF1A3078F087E32F
:10151000810F0E946F0987E30A300CF480E3800F8B
:10152000DF91CF911F910F910C946F0980E3810F90
:101530000E946F09F0CF00D000D000D0CDB7DEB749
:10154000289A209A88B1807188B93C9A3A9A399A37
:10155000429A2FEF83ED90E3215080409040E1F7D5
:1015600000C00000449A0E9463050E94C9030E94C3
:101570006C090E94F2050E940307789487EC80931F
:101580007C0087E880937A000E948603AFE1BEE486
:101590001197F1F700C0000080E00E94AE0038987B
:1015A000409A8091680082608093680080916C000E
:1015B000816080936C00EAEFFFEFE458F240FE8315
:1015C000ED8386EB94E00E94C4048B3A09F444C096
:1015D0000E94420780917A00806480937A00809113
:1015E0007A0086FDFCCF20917800309179008091BF
:1015F0007A00806180937A00C901B0E0A0E089831D
:101600009A83AB83BC83B901CD010E94A60B25E868
:101610003BEE45E051E469837A838B839C83698147
:101620007A818B819C810E940C0C69837A838B83E5
:101630009C8369817A818B819C810E94770B69836D
:101640007A838B839C83A981BA81A037B74108F044
:10165000B8CFF8944498FFCF8093840205E812E055
:1016600086EB94E00E94E404D8018D938D01B2E0F2
:101670000A381B07A9F7809188029091890281306E
:10168000E1E09E0708F09DCF892BA1F00AE812E067
:1016900086EB94E00E94E404D8018D938D018D8146
:1016A0009E818A0F9B1F20918802309189028217A8
:1016B000930770F38091870290918302891739F024
:1016C0008F3F29F084E892E00E9453007ACF84E8AB
:1016D00092E00E94DC00809187028F3F09F071CF79
:1016E000F1CFEE0FFF1F0590F491E02D09940E94B9
:1016F000EB0B88F09F5798F0B92F9927B751B0F0AE
:10170000E1F0660F771F881F991F1AF0BA95C9F785
:1017100014C0B13091F00E94050CB1E008950C9412
:10172000050C672F782F8827B85F39F0B93FCCF3C5
:10173000869577956795B395D9F73EF49095809502
:10174000709561957F4F8F4F9F4F0895E89409C022
:1017500097FB3EF490958095709561957F4F8F4FE4
:101760009F4F9923A9F0F92F96E9BB279395F695FA
:10177000879577956795B795F111F8CFFAF4BB0F78
:1017800011F460FF1BC06F5F7F4F8F4F9F4F16C0DC
:10179000882311F096E911C0772321F09EE8872F66
:1017A000762F05C0662371F096E8862F70E060E022
:1017B0002AF09A95660F771F881FDAF7880F96959B
:1017C000879597F9089557FD9058440F551F59F084
:1017D0005F3F71F04795880F97FB991F61F09F3F1E
:1017E00079F087950895121613061406551FF2CF47
:1017F0004695F1DF08C0161617061806991FF1CF97
:1018000086957105610508940895E894BB276627BD
:101810007727CB0197F908950E941F0C0C94900C28
:101820000E94820C38F00E94890C20F0952311F060
:101830000C94790C0C947F0C11240C94060C0E94CF
:10184000E30B70F3959FC1F3950F50E0551F629F16
:10185000F001729FBB27F00DB11D639FAA27F00D09
:10186000B11DAA1F649F6627B00DA11D661F829F30
:101870002227B00DA11D621F739FB00DA11D621F15
:10188000839FA00D611D221F749F3327A00D611D32
:10189000231F849F600D211D822F762F6A2F112414
:1018A0009F5750409AF0F1F088234AF0EE0FFF1F47
:1018B000BB1F661F771F881F91505040A9F79E3F9E
:1018C000510580F00C94790C0C94060C5F3FE4F306
:1018D000983ED4F3869577956795B795F795E795F4
:1018E0009F5FC1F7FE2B880F911D9695879597F9FD
:1018F000089597F99F6780E870E060E008959FEF92
:1019000080EC089500240A94161617061806090696
:10191000089500240A941216130614060506089565
:10192000092E0394000C11F4882352F0BB0F40F4ED
:10193000BF2B11F460FF04C06F5F7F4F8F4F9F4F2D
:101940000895DC0101C06D9341505040E0F70895C7
:10195000BB274A3031F4992322F4BDE2909581955A
:101960009F4F0C94B40CBB27FB015527AA27880F67
:10197000991FAA1FA41710F0A41B83955051B9F703
:10198000A05DAA3308F0A95DA193009779F7B11182
:10199000B1931192CB010C94CD0CDC01FC01672FAB
:1019A00071917723E1F7329704C07C916D93708336
:1019B0006291AE17BF07C8F30895F894FFCF760180
:1019C000FC00FC00FC00FC00FC00FC00FC00FC0037
:1019D000FC00FC00FC00FC00FC00FC00FC004B01D7
:1019E0004201FC00FC00FC00FC00FC00FC00FC00D0
:1019F000FC00FC00FC00FC00FC00FC00FC005F01A3
:101A00006901F700FC00FC00FC00FC00FC00FC008D
:101A1000FC00FC00FC00FC00FC00FC00FC00500191
:101A200001646174615B305D3A20002C2064617454
:101A3000615B315D3A20002C20646174615B325D32
:101A40003A20000D0A537461727465640D0A0043F4
:101A5000686970206572617365640D0A0048656C81
:101A60006C6F20776F726C64210D0A005772697475
:101A70006520646F6E650D0A0052656164207374A1
:101A800061727465640D0A005265616420646F6E52
:101A9000650D0A00696D6167655F73746172743A00
:101AA00020002C20696D6167655F6C656E677468E6
:101AB0005F706167653A20002C20696D6167655F22
:101AC0006C656E6774685F636F6C756D6E733A20DA
:101AD000002C20696D6167655F65787472615F6273
:101AE000797465733A20002C2065726173696E67A2
:101AF0003A20002C2072656164696E673A20002CE0
:101B00002065726173655F6E6578743A20002C20E1
:0A1B1000627573793A200030780006
:00000001FF
