:100000000C9434000C9451000C9451000C94510049
:100010000C9424020C9451000C9451000C94510047
:100020000C9451000C9451000C9451000C9451000C
:100030000C9451000C9451000C9451000C945100FC
:100040000C9451000C9451000C94F0030C9451004A
:100050000C9451000C9451000C9451000C945100DC
:100060000C9451000C94510011241FBECFEFD8E026
:10007000DEBFCDBF11E0A0E0B1E0E4E1F8E102C0F5
:1000800005900D92A83FB107D9F724E0A8EFB1E0A1
:1000900001C01D92AF3CB207E1F70E949D090C948C
:1000A000D70B0C940000EF92FF920F931F93CF9306
:1000B000DF937C01FC0184819581069681F08701A4
:1000C000D0E0C0E0F80181918F010E9418042196D0
:1000D000F701848195810696C817D90798F3DF91B7
:1000E000CF911F910F91FF90EF900895EF92FF92A3
:1000F0000F931F93CF93DF9300D000D000D0CDB7E4
:10010000DEB79BEA9983811127C081EF8A831E8223
:100110001D828EEF8C83809181028B838E010E5F16
:100120001F4F7E0187E0E80EF11C8BEA03C0F80147
:1001300081918F010E9418040E151F05C1F72696A4
:100140000FB6F894DEBF0FBECDBFDF91CF911F91E8
:100150000F91FF90EF90089580EFD8CF482F50E097
:10016000EAEFF1E030E020E0CA01022E02C0880F81
:10017000991F0A94E2F795958795959587958072D2
:100180008083118212822F5F3F4F339628303105D2
:1001900059F7E2E1F2E08FE6DF011D928A95E9F777
:1001A0006DE28AEF91E00E946F058FEC97E0019776
:1001B000F1F700C000000895EF92FF920F931F9394
:1001C000CF93DF9300D000D000D0CDB7DEB7DC01F5
:1001D0001196EC911197E13650F4E033B0F1E05311
:1001E000E13350F4F0E0E752F44F0C94760AE03E2D
:1001F00019F481E080938202809181029BEA9983C5
:1002000090EF9A831E821D829EEF9C838B838E01CA
:100210000E5F1F4F7E01F7E0EF0EF11C8BEA03C06B
:10022000F80181918F010E941804E016F106C1F7D0
:1002300026960FB6F894DEBF0FBECDBFDF91CF91EB
:100240001F910F91FF90EF900895E03109F47BC06A
:10025000E13151F414968D919C91892B09F09FC046
:10026000289880918102CACFE111C6CF14968D9152
:100270009C911597019709F075C016968C91809303
:100280008102D6CF14966D917C9106960E94EE075E
:1002900080918102B3CF0E94C30780918102AECFCB
:1002A0008091810214962D913C9115972130310552
:1002B00009F092C016969C91909300019FCF4298AE
:1002C0000E94360967E88AEF91E00E945A098091FE
:1002D000810294CF6DE28AEF91E00E946F0567E89A
:1002E0008AEF91E00E945A098091810287CF429A59
:1002F0000E948E0980E00E94AE00809181027ECF34
:1003000014968D919C911597019729F18BEA898319
:1003100081EF8A831E821D828EEF8C838091810201
:100320008B838E010E5F1F4F7E01F7E0EF0EF11CF5
:100330008BEA03C0F80181918F010E9418040E1509
:100340001F05C1F775CF14968D919C91892B09F0EB
:100350005EC0289A6DCF16968C910E94AE00809157
:1003600081024CCF8BEA898381EF8A831E821D82B2
:100370008EEF8C83809181028B838E010E5F1F4FE5
:100380007E0187E0E80EF11C8BEA03C0F801819141
:100390008F010E9418040E151F05C1F749CF8BEA83
:1003A000898381EF8A831E821D828EEF8C838091E8
:1003B00081028B838E010E5F1F4F7E01F7E0EF0EEF
:1003C000F11C8BEA03C0F80181918F010E9418048F
:1003D0000E151F05C1F72CCF9BEA998391EF9A83E5
:1003E0001E821D829EEF9C838B838E010E5F1F4FAA
:1003F0007E01F7E0EF0EF11C8BEA03C0F80181915A
:100400008F010E9418040E151F05C1F711CF8BEA4A
:10041000898381EF8A831E821D828EEF8C83809177
:1004200081028B838E010E5F1F4F7E01F7E0EF0E7E
:10043000F11C8BEA03C0F80181918F010E9418041E
:100440000E151F05C1F7F4CE1F920F920FB60F9233
:1004500011242F933F934F935F936F937F938F93C9
:100460009F93AF93BF93EF93FF938091CD04882325
:1004700031F080910001811113C0309B22C0FF91A7
:10048000EF91BF91AF919F918F917F916F915F910C
:100490004F913F912F910F900FBE0F901F90189585
:1004A0006DE28AEF91E00E946F050E94C7053099C6
:1004B0000FC0EAEFF1E087E8DF011D928A95E9F7C6
:1004C000DECF6DE28AEF91E00E946F050E94C705C2
:1004D00067E88AEF91E00E945A09D1CF0F931F93EA
:1004E000CF93DF93CDB7DEB7DA950FB6F894DEBFC2
:1004F0000FBECDBF28982FEF81EE94E021508040B1
:100500009040E1F700C000000E9434070E94B1084B
:100510002FEF80E792E0215080409040E1F700C04B
:1005200000000E94B1080E9473070E94B1080E9457
:10053000C3070E94B10860E071E0CE0101960E94FD
:10054000EE070E94B1080E94C3070E94B10860E054
:1005500071E0CE0101960E94EE070E94B10801E20F
:1005600010E060E071E0CE0101960E94EE070150BC
:100570001109B9F70E94B108D3950FB6F894DEBF00
:100580000FBECDBFDF91CF911F910F910895CF93F3
:10059000DF93CDB7DEB7C450D1400FB6F894DEBFBD
:1005A0000FBECDBF8AE289838BE28A838CE28B8384
:1005B0000E9434070E94B1080E9473070E94B1088C
:1005C0000E94C30760E071E0CE0101960E94EE0731
:1005D00060E170E0CE0101960E94EE070E94B10832
:1005E0000E9436090E94B10881E0898382E08A83F3
:1005F00083E08B8367E8CE0101960E945A0981E06F
:1006000091E00E941F048981282F30E050E040E0F3
:10061000CA01B9010E942E048BE091E00E941F04E0
:100620008A81282F30E050E040E0CA01B9010E94E1
:100630002E0487E191E00E941F048B81282F30E077
:1006400050E040E0CA01B9010E942E048AE491E022
:100650000E941F04CC5FDE4F0FB6F894DEBF0FBEC2
:10066000CDBFDF91CF910895CF93DF93CDB7DEB7A4
:10067000C150D1400FB6F894DEBF0FBECDBF289851
:1006800083E291E00E941F040E9473068FE291E0D2
:100690000E941F048FE0EDE3F1E0DE01119601906E
:1006A0000D928A95E1F7BE016F5F7F4F81E090E088
:1006B0000E9484068CE491E00E941F0440E051E017
:1006C00068E770E0CE0101960E94A60B81E090E001
:1006D0000E94DD0689E591E00E941F0402C00E948D
:1006E000180461E0CE018F5F9E4F0E94F406CF5F39
:1006F000DE4F8881C150D1409FEF980F9E3F78F325
:100700000E94080788E691E00E941F04CF5FDE4F39
:100710000FB6F894DEBF0FBECDBFDF91CF91089525
:10072000CF93DF9300D000D0CDB7DEB780917A00B1
:10073000806480937A0080917A0086FDFCCF2091BE
:1007400078003091790080917A00806180937A00FE
:10075000C901B0E0A0E089839A83AB83BC83B9016F
:10076000CD010E94AB0A25E83BEE45E051E46983E8
:100770007A838B839C8369817A818B819C810E949F
:10078000110B69837A838B839C8369817A818B8146
:100790009C810E947C0ACB010F900F900F900F90CC
:1007A000DF91CF91089549E853E06CE271E085EB69
:1007B00094E00E9469041092C50081E08093C40017
:1007C00088E98093C10086E08093C2008091C600D2
:1007D0008091C00087FDFACF82EC8093C00008951D
:1007E0001F920F920FB60F9211242F933F934F93A6
:1007F0005F936F937F938F939F93AF93BF93EF9389
:10080000FF936091C60085EB94E00E947A04FF910B
:10081000EF91BF91AF919F918F917F916F915F9178
:100820004F913F912F910F900FBE0F901F901895F1
:100830009091C00095FFFCCF8093C6000895FC0105
:100840009081992351F031968091C00085FFFCCFB3
:100850009093C60091919111F7CF0895CF93DF93B4
:1008600000D000D000D00F92CDB7DEB7362F272FA3
:100870004AE0BE016F5F7F4F832F922F0E94AD0B26
:100880009981992359F0FE0132968091C00085FF2D
:10089000FCCF9093C60091919111F7CF27960FB698
:1008A000F894DEBF0FBECDBFDF91CF9108958823AE
:1008B00041F08091C00085FFFCCF81E38093C600AA
:1008C00008958091C00085FFFCCF80E38093C6002F
:1008D0000895FC01CA01518740875583448357839B
:1008E00046831382128271836083860F971F9387DA
:1008F00082870895FC01F89482819381208131815F
:100900008217930780F4019693838283A681B7812F
:100910006C938681978101969783868322853385A0
:100920008217930711F078940895808591859783B5
:10093000868378940895CF93DF93FC01CA010097D2
:1009400051F1DB01AB01480F591F04C07894A41783
:10095000B50709F16D91F8948281938120813181ED
:100960008217930798F7019693838283C681D78174
:100970006883868197810196978386832285338554
:100980008217930719F780859185978386837894DA
:10099000A417B507F9F6DF91CF910895FC01F894FB
:1009A000228133812115310581F0A481B5818D919A
:1009B0002150310933832283B583A4832285338573
:1009C000A217B30729F078940895789480E00895E9
:1009D000208531853583248378940895FC01F8942B
:1009E000828193817894892BD1F3F8942281338189
:1009F0002115310581F0A481B5818D9121503109F6
:100A000033832283B583A48322853385A217B3075A
:100A100029F078940895789480E0089520853185B0
:100A20003583248378940895CF93DF93FC01CA0122
:100A3000009711F1DB01AB01480F591F12C0C481AF
:100A4000D5812991019793838283D583C48382853D
:100A50009385C817D90799F078942D93A417B507F3
:100A600059F0F89482819381009749F7789420E0B7
:100A70002D93A417B507A9F7DF91CF91089580852D
:100A8000918595838483E8CFFC01F894A481B58196
:100A9000A60FB71F82859385A817B90720F080811C
:100AA0009181A81BB90B82819381892B19F07894CD
:100AB0008C910895789480E00895FC01F8948281E7
:100AC000938178940895FC0180819181F89422812A
:100AD00033817894821B930B0895219A0895DC0149
:100AE00095B145B1E62FEE0FE60F9D7F42602D9147
:100AF00045B9000027FF95B90000000095B9000036
:100B00000000000045B9000026FF95B90000000074
:100B100095B900000000000045B9000025FF95B917
:100B20000000000095B900000000000045B9000079
:100B300024FF95B90000000095B9000000000000F6
:100B400045B9000023FF95B90000000095B90000E9
:100B50000000000045B9000022FF95B90000000028
:100B600095B900000000000045B9000021FF95B9CB
:100B70000000000095B900003D9145B9000020FF3C
:100B800095B9232FEA9595B909F0B2CF0895299820
:100B900008958EBD0DB407FEFDCF8EB508958FEF7D
:100BA0008EBD0DB407FEFDCF8EB508955C9885E02F
:100BB0008EBD0DB407FEFDCF8EB58FEF8EBD0DB48B
:100BC00007FEFDCF8EB55C9A08955C9885E38EBDD7
:100BD0000DB407FEFDCF8EB58FEF8EBD0DB407FEB1
:100BE000FDCF8EB55C9A08955C9886E68EBD0DB4F7
:100BF00007FEFDCF8EB55C9A5C9889E98EBD0DB479
:100C000007FEFDCF8EB55C9A87EC90E00197F1F777
:100C100000C0000008955C9A549A5B9A539A5A9ABD
:100C2000529A239A259A229A80E58CBD81E08DBD47
:100C30000C94F4055C988FE98EBD0DB407FEFDCFD2
:100C40008EB58FEF8EBD0DB407FEFDCF8EB55C9ACD
:100C500008955C9885E08EBD0DB407FEFDCF8EB57E
:100C60008FEF8EBD0DB407FEFDCF8EB55C9A8170FF
:100C7000089525E09FEF5C982EBD0DB407FEFDCFD3
:100C80008EB59EBD0DB407FEFDCF8EB55C9A80FD7E
:100C9000F2CF08955C9886E08EBD0DB407FEFDCFBF
:100CA0008EB55C9A08955C9826E02EBD0DB407FEC3
:100CB000FDCF2EB55C9A5C9820E22EBD0DB407FEE8
:100CC000FDCF2EB59EBD0DB407FEFDCF9EB58EBDEA
:100CD0000DB407FEFDCF8EB51EBC0DB407FEFDCFD3
:100CE0008EB55C9A08955C9886E08EBD0DB407FEC3
:100CF000FDCF8EB55C9A5C9887EC8EBD0DB407FE77
:100D0000FDCF8EB55C9A08959C01962F872F5C9835
:100D100046E04EBD0DB407FEFDCF4EB55C9A5C9823
:100D200042E04EBD0DB407FEFDCF4EB53EBD0DB445
:100D300007FEFDCF3EB52EBD0DB407FEFDCF2EB58F
:100D40001EBC0DB407FEFDCF2EB5E92FF82F9F0175
:100D5000339581918EBD0DB407FEFDCF8EB5E217A0
:100D6000F307B9F75C9A08959C01962F872F5C983A
:100D700043E04EBD0DB407FEFDCF4EB53EBD0DB4F4
:100D800007FEFDCF3EB52EBD0DB407FEFDCF2EB53F
:100D90001EBC0DB407FEFDCF2EB5E92FF82F9F0125
:100DA00033959FEF9EBD0DB407FEFDCF8EB58193A9
:100DB000E217F307B9F75C9A08955C9823E02EBD1B
:100DC0000DB407FEFDCF2EB59EBD0DB407FEFDCFC1
:100DD0009EB58EBD0DB407FEFDCF8EB51EBC0DB405
:100DE00007FEFDCF8EB50895662389F0FC019C01B6
:100DF0002F5F3F4F6150260F311D9FEF9EBD0DB4F9
:100E000007FEFDCF8EB58193E217F307B9F708957A
:100E10005C9A08955C9885E78EBD0DB407FEFDCF02
:100E20008EB55C9A85E38A95F1F7000008955C9889
:100E300085E38EBD0DB407FEFDCF8EB58FEF8EBD61
:100E40000DB407FEFDCF8EB55C9A87FF0CC05C9891
:100E50008AE78EBD0DB407FEFDCF8EB55C9A85E3A3
:100E60008A95F1F7000008951092CE041092CD04F7
:100E70001092CC041092CB041092C2041092C104C0
:100E80001092CA041092C9041092C8041092C704A8
:100E90001092C6041092C50490E080E00E945306B0
:100EA0000E9439061092CE048091C1049091C20430
:100EB00040969F719093C2048093C1042091CB040B
:100EC0003091CC04207F2817390761F0AC01405FD6
:100ED0005F4F5F712417350729F00E94530681E0A8
:100EE0008093CE0408958091CD04811125C0809116
:100EF000CE04811119C08091C1049091C204209147
:100F0000CB043091CC04207F28173907A9F0AC011D
:100F1000405F5F4F5F712417350771F00E945306E1
:100F200081E08093CE0408950E942906882329F049
:100F30008091CE048823F9F208951092CE04809116
:100F4000C1049091C20440969F719093C204809313
:100F5000C104D5CF2091CB043091CC04207F809167
:100F6000C1049091C2048217930761F0AC01405F05
:100F70005F4F5F714217530729F00E94530681E0CB
:100F80008093CE0408958091CB049091CC0420915D
:100F9000C9043091CA04820F931F9F719093CC04AF
:100FA0008093CB041092CA041092C9041092C80412
:100FB0001092C7041092C6041092C50408950E94AE
:100FC00039061092CE048091C1049091C2044096DB
:100FD0009F719093C2048093C1040895CF92DF92D1
:100FE000EF92FF920F931F93CF93DF93F82EE92E8A
:100FF0008B012091CD04211152C02091CB0430915E
:10100000CC04C091C904D091CA04C20FD31FDF71B0
:10101000C090C104D090C2048091CE04CC16DD06ED
:1010200009F478C081118EC06F2D7E2DCE010E94F3
:1010300084060E9439068091C9049091CA040196E1
:101040009093CA048093C9042091C5043091C604CA
:10105000200F311F3093C6042093C5042738310573
:10106000A8F08091C7049091C804019627583109CF
:10107000582F492F019627383105C0F75093C704E0
:101080004093C8043093C6042093C504DF91CF91E8
:101090001F910F91FF90EF90DF90CF9008950E94E5
:1010A00008071092CD048091CE04811157C0209181
:1010B000CB043091CC04C091C904D091CA04C20FB2
:1010C000D31FDF718091C1049091C2048C179D07DA
:1010D00009F0AACF6E01207F2C153D0561F0C601F5
:1010E00040969F712817390731F0C6010E945306B8
:1010F00081E08093CE040E9439061092CE04809144
:10110000C1049091C20440969F719093C204809351
:10111000C1048ACF8823F9F20E9439061092CE04C6
:101120008091C1049091C20440969F719093C20433
:101130008093C1046F2D7E2DC6010E9484060E94FB
:10114000390679CF0E940A076F2D7E2DCE010E94AD
:1011500084060E9439060E9417076DCF0E94170768
:101160004CCFCF93DF9300D000D0CDB7DEB784E76C
:1011700091E00E941F048091CB049091CC049C01CB
:1011800050E040E0CA01B9010E942E0482E891E0DB
:101190000E941F048091C9049091CA049C0150E0F0
:1011A00040E0CA01B9010E942E0488E991E00E9442
:1011B0001F048091C7049091C8049C0150E040E056
:1011C000CA01B9010E942E0481EB91E00E941F0424
:1011D0008091C5049091C6049C0150E040E0CA0192
:1011E000B9010E942E0487EC91E00E941F048091B7
:1011F000CE040E94570483ED91E00E941F04809169
:10120000CD040E9457048FED91E00E941F0480914D
:10121000C1049091C2049C0150E040E029833A83CC
:101220004B835C83CA01B9010E942E048EEE91E0CB
:101230000E941F048091CD04811112C00E942906D2
:10124000982F81E0992381F00E9457048AE491E06D
:101250000F900F900F900F90DF91CF910C941F047F
:101260008FE30E941804F2CF80E0EECF8091CD048E
:10127000811115C08091CE0481110EC08091CB04E4
:101280009091CC040E94DD0681E08093CD04109201
:10129000C4041092C30408950E940A07EFCF0E946D
:1012A00008071092CD048091CE04882339F30E9460
:1012B0001707E0CF1F93CF93DF93D82FC92F162F97
:1012C0008091CD048823C9F02091C3043091C404D7
:1012D0008091C7049091C8042817390791F0612FB5
:1012E0008D2F9C2F0E94F4068091C3049091C4041A
:1012F00001969093C4048093C304DF91CF911F9112
:1013000008950E9408078091CB049091CC040E941C
:10131000DD061092C4041092C304E1CF8091CD0485
:10132000811101C008950E9408071092CD04809198
:10133000CE048823B9F30C94170700D000D000D056
:10134000CDB7DEB7289A209A88B1807188B93C9AC7
:101350003A9A399A429A2FEF83ED90E321508040D8
:101360009040E1F700C00000449A0E946D050E9481
:10137000D3030E940B060E943407789487EC809375
:101380007C0087E880937A000E949003AFE1BEE47E
:101390001197F1F700C0000080E00E94AE0038987D
:1013A000409A8091680082608093680080916C0010
:1013B000816080936C00EAEFFFEFE358F240FE8318
:1013C000ED8385EB94E00E94CE048B3A09F449C08A
:1013D0000E94730780917A00806480937A008091E4
:1013E0007A0086FDFCCF20917800309179008091C1
:1013F0007A00806180937A00C901B0E0A0E089831F
:101400009A83AB83BC83B901CD010E94AB0A25E866
:101410003BEE45E051E469837A838B839C83698149
:101420007A818B819C810E94110B69837A838B83E3
:101430009C8369817A818B819C810E947C0A69836B
:101440007A838B839C83A981BA81A037B74128F026
:1014500080918202882309F4B4CFF894429844988A
:10146000FFCF8093830204E812E085EB94E00E94B2
:10147000EE04D8018D938D01B2E009381B07A9F75E
:1014800080918702909188028130E1E09E0708F008
:1014900098CF892BA1F009E812E085EB94E00E9437
:1014A000EE04D8018D938D018D819E818A0F9B1F43
:1014B00020918702309188028217930770F3809100
:1014C000860290918102891739F08F3F29F083E8D5
:1014D00092E00E94530075CF83E892E00E94DC0006
:1014E000809186028F3F09F06CCFF1CFEE0FFF1F86
:1014F0000590F491E02D09940E94F00A88F09F571E
:1015000098F0B92F9927B751B0F0E1F0660F771F27
:10151000881F991F1AF0BA95C9F714C0B13091F01D
:101520000E940A0BB1E008950C940A0B672F782FE4
:101530008827B85F39F0B93FCCF3869577956795E2
:10154000B395D9F73EF490958095709561957F4F4E
:101550008F4F9F4F0895E89409C097FB3EF49095F4
:101560008095709561957F4F8F4F9F4F9923A9F07C
:10157000F92F96E9BB279395F6958795779567950B
:10158000B795F111F8CFFAF4BB0F11F460FF1BC04F
:101590006F5F7F4F8F4F9F4F16C0882311F096E9E2
:1015A00011C0772321F09EE8872F762F05C0662390
:1015B00071F096E8862F70E060E02AF09A95660F49
:1015C000771F881FDAF7880F9695879597F9089502
:1015D00057FD9058440F551F59F05F3F71F04795E4
:1015E000880F97FB991F61F09F3F79F087950895C9
:1015F000121613061406551FF2CF4695F1DF08C0E8
:10160000161617061806991FF1CF86957105610504
:1016100008940895E894BB2766277727CB0197F9AC
:1016200008950E94240B0C94950B0E94870B38F0B0
:101630000E948E0B20F0952311F00C947E0B0C94DD
:10164000840B11240C940B0B0E94E80A70F3959FF5
:10165000C1F3950F50E0551F629FF001729FBB27A9
:10166000F00DB11D639FAA27F00DB11DAA1F649F45
:101670006627B00DA11D661F829F2227B00DA11DF8
:10168000621F739FB00DA11D621F839FA00D611D7E
:10169000221F749F3327A00D611D231F849F600D9F
:1016A000211D822F762F6A2F11249F5750409AF0C8
:1016B000F1F088234AF0EE0FFF1FBB1F661F771F54
:1016C000881F91505040A9F79E3F510580F00C941F
:1016D0007E0B0C940B0B5F3FE4F3983ED4F386959E
:1016E00077956795B795F795E7959F5FC1F7FE2BBF
:1016F000880F911D9695879597F9089597F99F679B
:1017000080E870E060E008959FEF80EC0895002489
:101710000A941616170618060906089500240A9456
:1017200012161306140605060895092E0394000CDC
:1017300011F4882352F0BB0F40F4BF2B11F460FF6B
:1017400004C06F5F7F4F8F4F9F4F0895DC0101C032
:101750006D9341505040E0F70895BB27FB0155279A
:10176000AA27880F991FAA1FA41710F0A41B8395FE
:101770005051B9F7A05DAA3308F0A95DA193009775
:1017800079F7B111B1931192CB010C94C70BDC0125
:10179000FC01672F71917723E1F7329704C07C91A8
:1017A0006D9370836291AE17BF07C8F30895F894E4
:1017B000FFCF8001FC00FC00FC00FC00FC00FC00F2
:1017C000FC00FC00FC00FC00FC00FC00FC00FC0039
:1017D000FC004B014201FC00FC00FC00FC00FC0092
:1017E000FC00FC00FC00FC00FC00FC00FC00FC0019
:1017F000FC005F016A017701FC00FC00FC00FC00BA
:10180000FC00FC00FC00FC00FC00FC00FC00FC00F8
:04181000FC00500187
:1018140001646174615B305D3A20002C2064617462
:10182400615B315D3A20002C20646174615B325D40
:101834003A20000D0A537461727465640D0A004302
:10184400686970206572617365640D0A0048656C8F
:101854006C6F20776F726C64210D0A005772697483
:101864006520646F6E650D0A0052656164207374AF
:1018740061727465640D0A005265616420646F6E60
:10188400650D0A00696D6167655F73746172743A0E
:1018940020002C20696D6167655F6C656E677468F4
:1018A4005F706167653A20002C20696D6167655F30
:1018B4006C656E6774685F636F6C756D6E733A20E8
:1018C400002C20696D6167655F65787472615F6281
:1018D400797465733A20002C2065726173696E67B0
:1018E4003A20002C2072656164696E673A20002CEE
:1018F4002065726173655F6E6578743A20002C20F0
:08190400627573793A200000BE
:00000001FF
