:100000000C9434000C9451000C9451000C94510049
:100010000C940D020C9451000C9451000C9451005E
:100020000C9451000C9451000C9451000C9451000C
:100030000C9451000C9451000C9451000C945100FC
:100040000C9451000C9451000C94D9030C94510061
:100050000C9451000C9451000C9451000C945100DC
:100060000C9451000C94510011241FBECFEFD8E026
:10007000DEBFCDBF11E0A0E0B1E0E2EBF6E102C0EF
:1000800005900D92A83FB107D9F724E0A8EFB1E0A1
:1000900001C01D92AE3CB207E1F70E942A090C9400
:1000A000570B0C940000EF92FF920F931F93CF9386
:1000B000DF937C01FC0184819581069681F08701A4
:1000C000D0E0C0E0F80181918F010E9401042196E7
:1000D000F701848195810696C817D90798F3DF91B7
:1000E000CF911F910F91FF90EF900895EF92FF92A3
:1000F0000F931F93CF93DF9300D000D000D0CDB7E4
:10010000DEB79BEA9983811127C081EF8A831E8223
:100110001D828EEF8C83809181028B838E010E5F16
:100120001F4F7E0187E0E80EF11C8BEA03C0F80147
:1001300081918F010E9401040E151F05C1F72696BB
:100140000FB6F894DEBF0FBECDBFDF91CF911F91E8
:100150000F91FF90EF90089580EFD8CF482F50E097
:10016000EAEFF1E030E020E0CA01022E02C0880F81
:10017000991F0A94E2F795958795959587958072D2
:100180008083118212822F5F3F4F339628303105D2
:1001900059F7E2E1F2E08FE6DF011D928A95E9F777
:1001A0006DE28AEF91E00E9458058FEC97E001978D
:1001B000F1F700C000000895EF92FF920F931F9394
:1001C000CF93DF9300D000D000D0CDB7DEB7FC01D5
:1001D0009181903409F4AAC0C8F1913509F478C02E
:1001E00008F45DC080918102903649F42481358104
:1001F0002130310509F09FC09681909300019BEA60
:10020000998390EF9A831E821D829EEF9C838B833D
:100210008E010E5F1F4F7E01F7E0EF0EF11C8BEA9F
:1002200003C0F80181918F010E940104E016F106DC
:10023000C1F726960FB6F894DEBF0FBECDBFDF9193
:10024000CF911F910F91FF90EF900895913109F494
:1002500052C098F1903309F045C08481958101978F
:1002600009F443C08BEA898381EF8A831E821D8251
:100270008EEF8C83809181028B838E010E5F1F4FE6
:100280007E01F7E0EF0EF11C8BEA03C0F8018191CB
:100290008F010E9401040E151F05C1F7CACF9134CA
:1002A00099F19035F9F40E94CD0867E88AEF91E062
:1002B0000E94F10880918102A2CF992371F19031BF
:1002C00089F484819581892B09F050C0289AB1CF97
:1002D0006DE28AEF91E00E94580567E88AEF91E0AD
:1002E0000E94F108809181028ACF86810E94AE002F
:1002F0008091810284CF84819581892B09F070C01F
:100300002898809181027BCF64817581CF01069608
:100310000E9490078091810272CF8481958101971C
:1003200009F041C086818093810283CF0E946707D4
:100330008091810264CF9BEA998391EF9A831E8218
:100340001D829EEF9C838B838E010E5F1F4F7E016B
:10035000F7E0EF0EF11C8BEA03C0F80181918F01E9
:100360000E9401040E151F05C1F763CF8BEA898334
:1003700081EF8A831E821D828EEF8C8380918102A1
:100380008B838E010E5F1F4F7E01F7E0EF0EF11C95
:100390008BEA03C0F80181918F010E9401040E15C0
:1003A0001F05C1F746CF8BEA898381EF8A831E82BE
:1003B0001D828EEF8C83809181028B838E010E5F74
:1003C0001F4F7E0187E0E80EF11C8BEA03C0F801A5
:1003D00081918F010E9401040E151F05C1F729CFDD
:1003E0008BEA898381EF8A831E821D828EEF8C8344
:1003F000809181028B838E010E5F1F4F7E01F7E09B
:10040000EF0EF11C8BEA03C0F80181918F010E946D
:1004100001040E151F05C1F70CCF1F920F920FB6E6
:100420000F9211242F933F934F935F936F937F937A
:100430008F939F93AF93BF93EF93FF938091CC04DF
:10044000882331F080910001811113C0309B22C0BC
:10045000FF91EF91BF91AF919F918F917F916F919C
:100460005F914F913F912F910F900FBE0F901F9072
:1004700018956DE28AEF91E00E9458050E94B00540
:1004800030990FC0EAEFF1E087E8DF011D928A950D
:10049000E9F7DECF6DE28AEF91E00E9458050E94F5
:1004A000B00567E88AEF91E00E94F108D1CF0F9381
:1004B0001F93CF93DF93CDB7DEB7DA950FB6F894DD
:1004C000DEBF0FBECDBF28982FEF81EE94E0215004
:1004D00080409040E1F700C000000E94EF060E94BB
:1004E00048082FEF80E792E0215080409040E1F7EC
:1004F00000C000000E9448080E941D070E94480892
:100500000E9467070E94480860E071E0CE010196F2
:100510000E9490070E9448080E9467070E944808AE
:1005200060E071E0CE0101960E9490070E944808A9
:1005300001E210E060E071E0CE0101960E949007B8
:1005400001501109B9F70E944808D3950FB6F894E5
:10055000DEBF0FBECDBFDF91CF911F910F910895E8
:10056000CF93DF93CDB7DEB7C450D1400FB6F89428
:10057000DEBF0FBECDBF8AE289838BE28A838CE225
:100580008B830E94EF060E9448080E941D070E946C
:1005900048080E94670760E071E0CE0101960E9462
:1005A000900760E170E0CE0101960E9490070E94E2
:1005B00048080E94CD080E94480881E0898382E0B3
:1005C0008A8383E08B8367E8CE0101960E94F1085D
:1005D00081E091E00E9408048981282F30E050E0FA
:1005E00040E0CA01B9010E9417048BE091E00E942B
:1005F00008048A81282F30E050E040E0CA01B901A8
:100600000E94170487E191E00E9408048B81282F43
:1006100030E050E040E0CA01B9010E9417048AE4CA
:1006200091E00E940804CC5FDE4F0FB6F894DEBF65
:100630000FBECDBFDF91CF910895CF93DF93CDB79C
:10064000DEB7C150D1400FB6F894DEBF0FBECDBFAC
:10065000289883E291E00E9408040E9446068FE2F7
:1006600091E00E9408048FE0EDE3F1E0DE011196D5
:1006700001900D928A95E1F7BE016F5F7F4F81E097
:1006800090E00E9457068CE491E00E94080440E04C
:1006900051E068E770E0CE0101960E94260B81E0F0
:1006A00090E00E94B00689E591E00E94080402C033
:1006B0000E94010461E0CE018F5F9E4F0E94C70639
:1006C000CF5FDE4F8881C150D1409FEF980F9E3F92
:1006D00078F30E94DB0688E691E00E940804CF5F71
:1006E000DE4F0FB6F894DEBF0FBECDBFDF91CF91C6
:1006F0000895CF93DF9300D000D0CDB7DEB78091BF
:100700007A00806480937A0080917A0084FDFCCF27
:10071000209178003091790080917A0080618093F7
:100720007A00C901B0E0A0E089839A83AB83BC83DF
:10073000B901CD010E942B0A25E83BEE45E051E4CA
:1007400069837A838B839C8369817A818B819C8185
:100750000E94910A69837A838B839C8369817A8161
:100760008B819C810E94FC09CB010F900F900F9010
:100770000F90DF91CF91089548E853E06CE271E06B
:1007800084EB94E00E9452041092C50081E08093B3
:10079000C40088E98093C10086E08093C200809104
:1007A000C6008091C00087FDFACF82EC8093C00024
:1007B00008951F920F920FB60F9211242F933F931B
:1007C0004F935F936F937F938F939F93AF93BF9359
:1007D000EF93FF936091C60084EB94E00E94630462
:1007E000FF91EF91BF91AF919F918F917F916F9109
:1007F0005F914F913F912F910F900FBE0F901F90DF
:1008000018959091C00095FFFCCF8093C600089585
:10081000FC019081992351F031968091C00085FFB1
:10082000FCCF9093C60091919111F7CF0895CF938B
:10083000DF9300D000D000D00F92CDB7DEB7362FB7
:10084000272F4AE0BE016F5F7F4F832F922F0E94B8
:100850002D0B9981992359F0FE0132968091C000A9
:1008600085FFFCCF9093C60091919111F7CF279609
:100870000FB6F894DEBF0FBECDBFDF91CF910895C4
:10088000882341F08091C00085FFFCCF81E38093F5
:10089000C60008958091C00085FFFCCF80E380935F
:1008A000C6000895FC01CA015187408755834483DF
:1008B000578346831382128271836083860F971F4A
:1008C000938782870895FC01F89482819381208127
:1008D00031818217930780F4019693838283A681E6
:1008E000B7816C9386819781019697838683228551
:1008F00033858217930711F0789408958085918548
:100900009783868378940895CF93DF93FC01CA017F
:10091000009751F1DB01AB01480F591F04C07894D7
:10092000A417B50709F16D91F89482819381208114
:1009300031818217930798F7019693838283C6814A
:10094000D7816883868197810196978386832285E4
:1009500033858217930719F780859185978386835E
:100960007894A417B507F9F6DF91CF910895FC01AB
:10097000F894228133812115310581F0A481B5815C
:100980008D912150310933832283B583A48322853D
:100990003385A217B30729F078940895789480E0FE
:1009A0000895208531853583248378940895FC014A
:1009B000F894828193817894892BD1F3F8942281E1
:1009C00033812115310581F0A481B5818D912150AC
:1009D000310933832283B583A48322853385A2170B
:1009E000B30729F078940895789480E008952085DD
:1009F00031853583248378940895CF93DF93FC0168
:100A0000CA01009711F1DB01AB01480F591F12C059
:100A1000C481D5812991019793838283D583C4832F
:100A200082859385C817D90799F078942D93A417D8
:100A3000B50759F0F89482819381009749F778942B
:100A400020E02D93A417B507A9F7DF91CF91089562
:100A50008085918595838483E8CFFC01F894A481F7
:100A6000B581A60FB71F82859385A817B90720F017
:100A700080819181A81BB90B82819381892B19F008
:100A800078948C910895789480E00895FC01F8940E
:100A90008281938178940895FC0180819181F894FA
:100AA000228133817894821B930B0895219A0895B3
:100AB000DC0195B145B1E62FEE0FE60F9D7F426058
:100AC0002D9145B9000027FF95B90000000095B9A8
:100AD00000000000000045B9000026FF95B90000A5
:100AE000000095B900000000000045B9000025FF96
:100AF00095B90000000095B900000000000045B95C
:100B0000000024FF95B90000000095B90000000026
:100B1000000045B9000023FF95B90000000095B919
:100B200000000000000045B9000022FF95B9000058
:100B3000000095B900000000000045B9000021FF49
:100B400095B90000000095B900003D9145B900003D
:100B500020FF95B9232FEA9595B909F0B2CF0895F2
:100B6000299808955C9A549A5B9A539A5A9A529A81
:100B7000239A259A229A80E58CBD81E08DBD5C98F0
:100B800089E98EBD0DB407FEFDCF8EB55C9A089540
:100B90008EBD0DB407FEFDCF8EB508958FEF8EBDCF
:100BA0000DB407FEFDCF8EB508955C9885E08EBD2F
:100BB0000DB407FEFDCF8EB58FEF8EBD0DB407FED1
:100BC000FDCF8EB55C9A08955C9889E98EBD0DB411
:100BD00007FEFDCF8EB55C9A08955C988FE98EBDB7
:100BE0000DB407FEFDCF8EB58FEF8EBD0DB407FEA1
:100BF000FDCF8EB55C9A08955C9885E08EBD0DB4EE
:100C000007FEFDCF8EB58FEF8EBD0DB407FEFDCF75
:100C10008EB55C9A8170089525E09FEF5C982EBD9B
:100C20000DB407FEFDCF8EB59EBD0DB407FEFDCF02
:100C30008EB55C9A80FDF2CF08955C9886E08EBDFB
:100C40000DB407FEFDCF8EB55C9A08955C9826E042
:100C50002EBD0DB407FEFDCF2EB55C9A5C9820E248
:100C60002EBD0DB407FEFDCF2EB59EBD0DB407FE03
:100C7000FDCF9EB58EBD0DB407FEFDCF8EB51EBC5B
:100C80000DB407FEFDCF8EB55C9A08955C9886E0A2
:100C90008EBD0DB407FEFDCF8EB55C9A5C9887ECD7
:100CA0008EBD0DB407FEFDCF8EB55C9A08959C01F4
:100CB000962F872F5C9846E04EBD0DB407FEFDCF02
:100CC0004EB55C9A5C9842E04EBD0DB407FEFDCF78
:100CD0004EB53EBD0DB407FEFDCF3EB52EBD0DB4E5
:100CE00007FEFDCF2EB51EBC0DB407FEFDCF2EB501
:100CF000E92FF82F9F01339581918EBD0DB407FE2A
:100D0000FDCF8EB5E217F307B9F75C9A08959C0101
:100D1000962F872F5C9843E04EBD0DB407FEFDCFA4
:100D20004EB53EBD0DB407FEFDCF3EB52EBD0DB494
:100D300007FEFDCF2EB51EBC0DB407FEFDCF2EB5B0
:100D4000E92FF82F9F0133959FEF9EBD0DB407FE4D
:100D5000FDCF8EB58193E217F307B9F75C9A08953A
:100D60005C9823E02EBD0DB407FEFDCF2EB59EBDD1
:100D70000DB407FEFDCF9EB58EBD0DB407FEFDCFB1
:100D80008EB51EBC0DB407FEFDCF8EB5089566234B
:100D900089F0FC019C012F5F3F4F6150260F311DF0
:100DA0009FEF9EBD0DB407FEFDCF8EB58193E21778
:100DB000F307B9F708955C9A08955C9885E78EBDAE
:100DC0000DB407FEFDCF8EB55C9A08955C988AE756
:100DD0008EBD0DB407FEFDCF8EB55C9A08951092BE
:100DE000CD041092CC041092CB041092CA0410923D
:100DF000C9041092C8041092C7041092C60410923D
:100E0000C5041092C40490E080E00E9426060E946F
:100E10000C0680E190E09093C1048093C00480911F
:100E2000CA049091CB04409739F080E190E00E9491
:100E3000260681E08093CD0408958091CC04811131
:100E40001EC08091CD04811111C08091C004909189
:100E5000C1042091CA043091CB042817390771F0DE
:100E60000E94260681E08093CD0408950E94FC052F
:100E7000882381F08091CD04882339F308950E945E
:100E8000DB061092CC048091CD048823F1F20E94FD
:100E9000E606D7CF1092CD048091C0049091C10492
:100EA00040969093C1048093C004D3CF8091C00436
:100EB0009091C1042091CA043091CB04821793070A
:100EC00029F00E94260681E08093CD040895809148
:100ED000CA049091CB042091C8043091C904820FB8
:100EE000931F9093CB048093CA041092C90410926C
:100EF000C8041092C7041092C6041092C504109240
:100F0000C40408950E940C061092CD048091C00480
:100F10009091C10440969093C1048093C0040895B9
:100F2000CF92DF92EF92FF920F931F93CF93DF93B5
:100F3000D82EC92E8B012091CC04211151C02091B3
:100F4000CA043091CB04C091C804D091C904C20F27
:100F5000D31FE090C004F090C1048091CD04EC1642
:100F6000FD0609F46FC0811184C06D2D7C2DCE016A
:100F70000E9457060E940C068091C8049091C904F3
:100F800001969093C9048093C8042091C4043091C1
:100F9000C504200F311F3093C5042093C4042738A3
:100FA0003105A8F08091C6049091C7040196275896
:100FB0003109582F492F019627383105C0F7509332
:100FC000C6044093C7043093C5042093C404DF9142
:100FD000CF911F910F91FF90EF90DF90CF900895E8
:100FE0000E94DB061092CC048091CD0481114DC08B
:100FF0002091CA043091CB04C091C804D091C90497
:10100000C20FD31F8091C0049091C1048C179D071B
:1010100009F0ABCF7E01E216F30631F0C7010E9462
:10102000260681E08093CD040E940C061092CD0428
:101030008091C0049091C10440969093C104809324
:10104000C00493CF882339F30E940C061092CD047C
:101050008091C0049091C10440969093C104809304
:10106000C0046D2D7C2DC7010E9457060E940C06FE
:1010700083CF0E94DD066D2D7C2DCE010E94570688
:101080000E940C060E94E60677CF0E94E60657CF24
:10109000CF93DF9300D000D0CDB7DEB784E791E0E7
:1010A0000E9408048091CA049091CB049C0150E0F6
:1010B00040E0CA01B9010E94170482E891E00E9451
:1010C00008048091C8049091C9049C0150E040E05C
:1010D000CA01B9010E94170488E991E00E9408043E
:1010E0008091C6049091C7049C0150E040E0CA0181
:1010F000B9010E94170481EB91E00E9408048091DD
:10110000C4049091C5049C0150E040E0CA01B901BB
:101110000E94170487EC91E00E9408048091CD049E
:101120000E94400483ED91E00E9408048091CC0469
:101130000E9440048FED91E00E9408048091C00459
:101140009091C1049C0150E040E029833A834B8395
:101150005C83CA01B9010E9417048EEE91E00E94DF
:1011600008048091CC04811112C00E94FC05982FC4
:1011700081E0992381F00E9440048AE491E00F907D
:101180000F900F900F90DF91CF910C9408048FE394
:101190000E940104F2CF80E0EECF8091CC04811157
:1011A00015C08091CD0481110EC08091CA04909128
:1011B000CB040E94B00681E08093CC041092C3045B
:1011C0001092C20408950E94DD06EFCF0E94DB0654
:1011D0001092CC048091CD04882339F30E94E60656
:1011E000E0CF1F93CF93DF93D82FC92F162F809175
:1011F000CC048823C9F02091C2043091C3048091AB
:10120000C6049091C7042817390791F0612F8D2FDC
:101210009C2F0E94C7068091C2049091C30401963E
:101220009093C3048093C204DF91CF911F910895DE
:101230000E94CD08EBCF8091CC04811101C00895AC
:101240000E94DB061092CC048091CD048823B9F370
:101250000C94E60600D000D000D0CDB7DEB7289AB7
:10126000209A88B1807188B93C9A3A9A429A2FEFB5
:1012700083ED90E3215080409040E1F700C00000F2
:10128000449A0E9456050E94BC030E94B2050E9427
:10129000EF06789487EC80937C0087E880937A004F
:1012A0000E947903AFE1BEE41197F1F700C000009E
:1012B00080E00E94AE003898409A80916800826079
:1012C0008093680080916C00816080936C00EAEFED
:1012D000FFEFE258F240FE83ED8384EB94E00E943E
:1012E000B7048B3A09F443C00E941D0780917A002D
:1012F000806480937A0080917A0084FDFCCF2091F5
:1013000078003091790080917A00806180937A0032
:10131000C901B0E0A0E089839A83AB83BC83B901A3
:10132000CD010E942B0A25E83BEE45E051E469839C
:101330007A838B839C8369817A818B819C810E94D3
:10134000910A69837A838B839C8369817A818B81FB
:101350009C810E94FC0969837A838B839C83A98189
:10136000BA81A037B74108F0B8CF4498FFCF809337
:10137000820203E812E084EB94E00E94D704D801D3
:101380008D938D01B2E008381B07A9F78091860282
:10139000909187028130E1E09E0708F09ECF892B73
:1013A000A1F008E812E084EB94E00E94D704D80191
:1013B0008D938D018D819E818A0F9B1F20918602C6
:1013C000309187028217930770F380918502909184
:1013D0008102891739F08F3F29F082E892E00E945C
:1013E00053007BCF82E892E00E94DC00809185026E
:1013F0008F3F09F072CFF1CF0E94700A88F09F579B
:1014000098F0B92F9927B751B0F0E1F0660F771F28
:10141000881F991F1AF0BA95C9F714C0B13091F01E
:101420000E948A0AB1E008950C948A0A672F782FE7
:101430008827B85F39F0B93FCCF3869577956795E3
:10144000B395D9F73EF490958095709561957F4F4F
:101450008F4F9F4F0895E89409C097FB3EF49095F5
:101460008095709561957F4F8F4F9F4F9923A9F07D
:10147000F92F96E9BB279395F6958795779567950C
:10148000B795F111F8CFFAF4BB0F11F460FF1BC050
:101490006F5F7F4F8F4F9F4F16C0882311F096E9E3
:1014A00011C0772321F09EE8872F762F05C0662391
:1014B00071F096E8862F70E060E02AF09A95660F4A
:1014C000771F881FDAF7880F9695879597F9089503
:1014D00057FD9058440F551F59F05F3F71F04795E5
:1014E000880F97FB991F61F09F3F79F087950895CA
:1014F000121613061406551FF2CF4695F1DF08C0E9
:10150000161617061806991FF1CF86957105610505
:1015100008940895E894BB2766277727CB0197F9AD
:1015200008950E94A40A0C94150B0E94070B38F032
:101530000E940E0B20F0952311F00C94FE0A0C94DF
:10154000040B11240C948B0A0E94680A70F3959F77
:10155000C1F3950F50E0551F629FF001729FBB27AA
:10156000F00DB11D639FAA27F00DB11DAA1F649F46
:101570006627B00DA11D661F829F2227B00DA11DF9
:10158000621F739FB00DA11D621F839FA00D611D7F
:10159000221F749F3327A00D611D231F849F600DA0
:1015A000211D822F762F6A2F11249F5750409AF0C9
:1015B000F1F088234AF0EE0FFF1FBB1F661F771F55
:1015C000881F91505040A9F79E3F510580F00C9420
:1015D000FE0A0C948B0A5F3FE4F3983ED4F38695A1
:1015E00077956795B795F795E7959F5FC1F7FE2BC0
:1015F000880F911D9695879597F9089597F99F679C
:1016000080E870E060E008959FEF80EC089500248A
:101610000A941616170618060906089500240A9457
:1016200012161306140605060895092E0394000CDD
:1016300011F4882352F0BB0F40F4BF2B11F460FF6C
:1016400004C06F5F7F4F8F4F9F4F0895DC0101C033
:101650006D9341505040E0F70895BB27FB0155279B
:10166000AA27880F991FAA1FA41710F0A41B8395FF
:101670005051B9F7A05DAA3308F0A95DA193009776
:1016800079F7B111B1931192CB010C94470BDC01A6
:10169000FC01672F71917723E1F7329704C07C91A9
:1016A0006D9370836291AE17BF07C8F30895F894E5
:0216B000FFCF6A
:1016B20001646174615B305D3A20002C20646174C6
:1016C200615B315D3A20002C20646174615B325DA4
:1016D2003A20000D0A537461727465640D0A004366
:1016E200686970206572617365640D0A0048656CF3
:1016F2006C6F20776F726C64210D0A0057726974E7
:101702006520646F6E650D0A005265616420737412
:1017120061727465640D0A005265616420646F6EC3
:10172200650D0A00696D6167655F73746172743A71
:1017320020002C20696D6167655F6C656E67746857
:101742005F706167653A20002C20696D6167655F93
:101752006C656E6774685F636F6C756D6E733A204B
:10176200002C20696D6167655F65787472615F62E4
:10177200797465733A20002C2065726173696E6713
:101782003A20002C2072656164696E673A20002C51
:101792002065726173655F6E6578743A20002C2053
:0817A200627573793A20000022
:00000001FF
