:100000000C9434000C9446000C9446000C94D600DA
:100010000C9446000C9446000C9446000C94460048
:100020000C9446000C9446000C9446000C94460038
:100030000C9446000C944D010C9446000C94460020
:100040000C9446000C94B0000C9446000C944600AE
:100050000C9446000C9446000C9446000C94460008
:100060000C9446000C94460011241FBECFEFD8E03C
:10007000DEBFCDBF21E0A0E0B1E001C01D92A631FE
:10008000B207E1F70E947F010C9477030C94000003
:10009000219A81E080936F0082E88093800088E15C
:1000A00080938100809105019091060101979093C2
:1000B000870080938600809103019091040101974D
:1000C00090938900809388008091010190910201B2
:1000D00090930B0180930A010895CF93DF9300D092
:1000E00000D0CDB7DEB780917A00806480937A002B
:1000F00080917A0086FDFCCF2091780030917900C4
:1001000080917A00806180937A00C901B0E0A0E01C
:1001100089839A83AB83BC83B901CD010E947C02A1
:1001200025E83BEE45E051E469837A838B839C8329
:1001300069817A818B819C810E94E20269837A8342
:100140008B839C8369817A818B819C810E944D0283
:10015000CB010F900F900F900F90DF91CF910895EA
:100160002F932FB72F933F938F939F93EF93FF93EB
:1001700020911501822F90E03EB5FC01E25FFE4F19
:100180003083263050F4885F9E4FFC0180818EBD05
:10019000809115018F5F80931501FF91EF919F91E1
:1001A0008F913F912F912FBF2F9118951F921FB6BE
:1001B0001F9211248F939F931A9B66C01092150172
:1001C00080910E018823C1F080910F019091100160
:1001D0009093060180930501809111019091120185
:1001E0009093040180930301809113019091140175
:1001F000909302018093010180910E0182FB882778
:1002000080F98093000180910E0180FD0FC08091E4
:100210000E0181FF05C0809181008D7F8093810058
:100220009F918F911F901FBE1F901895219A81E07A
:1002300080936F0082E88093800088E18093810042
:10024000809105019091060101979093870080931A
:100250008600809103019091040101979093890099
:1002600080938800809101019091020190930B018D
:1002700080930A0180918100826080938100809147
:100280000E0181FFCDCFC7CF809107018EBD9F9119
:100290008F911F901FBE1F9018958F938FB78F93CC
:1002A0009F9388B194E0892788B980910A01909141
:1002B0000B01019790930B0180930A0180910A0131
:1002C00090910B01009761F480910001882369F0FF
:1002D000809101019091020190930B0180930A019A
:1002E0009F918F918FBF8F911895809181008D7F05
:1002F000809381009F918F918FBF8F91189500D02F
:1003000000D0CDB7DEB73A9A389A40983998419ADA
:100310003B9A439824E130E094E04FEF50E782E0CD
:10032000415050408040E1F700C0000088B189276B
:1003300088B92150310989F7429A439A2A9A8091C3
:10034000680081608093680080916B008460809376
:100350006B00249A80EC8CBD87EC80937C0087E84E
:1003600080937A000E946D00AFE1BEE41197F1F72F
:1003700000C0000088EE93E0909306018093050191
:1003800084EF91E090930401809303018AE090E070
:100390009093020180930101109200010E94480095
:1003A0008091810082608093810010920C0181E332
:1003B0008093070181E480930D01789410E000E0C0
:1003C00080917A00806480937A0080917A0086FD23
:1003D000FCCF209178003091790080917A00806183
:1003E00080937A00C901B0E0A0E089839A83AB834F
:1003F000BC83B901CD010E947C0225E83BEE45E0BB
:1004000051E469837A838B839C8369817A818B81B0
:100410009C810E94E20269837A838B839C83698139
:100420007A818B819C810E944D02462F572FCA01F1
:100430001A9B04C0509309014093080180379741EB
:1004400090F0013DB7E01B0770F4319909C00F5FD0
:100450001F4FAFECB7E01197F1F700C00000B0CF2D
:1004600010E000E0F6CF21E020930C01409A429882
:1004700026E930E04FEF50E782E0415050408040A5
:10048000E1F700C0000088B194E0892788B92150C5
:10049000310981F742984398D8CF0E94C10288F071
:1004A0009F5798F0B92F9927B751B0F0E1F0660F38
:1004B000771F881F991F1AF0BA95C9F714C0B13079
:1004C00091F00E94DB02B1E008950C94DB02672FEB
:1004D000782F8827B85F39F0B93FCCF386957795A8
:1004E0006795B395D9F73EF4909580957095619591
:1004F0007F4F8F4F9F4F0895E89409C097FB3EF4BC
:1005000090958095709561957F4F8F4F9F4F992360
:10051000A9F0F92F96E9BB279395F69587957795DE
:100520006795B795F111F8CFFAF4BB0F11F460FF9E
:100530001BC06F5F7F4F8F4F9F4F16C0882311F0F6
:1005400096E911C0772321F09EE8872F762F05C00A
:10055000662371F096E8862F70E060E02AF09A95A5
:10056000660F771F881FDAF7880F9695879597F99A
:10057000089557FD9058440F551F59F05F3F71F093
:100580004795880F97FB991F61F09F3F79F08795FA
:100590000895121613061406551FF2CF4695F1DF83
:1005A00008C0161617061806991FF1CF8695710513
:1005B000610508940895E894BB2766277727CB0147
:1005C00097F908950E94F5020C9466030E9458035F
:1005D00038F00E945F0320F0952311F00C944F0334
:1005E0000C94550311240C94DC020E94B90270F3A0
:1005F000959FC1F3950F50E0551F629FF001729FC8
:10060000BB27F00DB11D639FAA27F00DB11DAA1FD6
:10061000649F6627B00DA11D661F829F2227B00D23
:10062000A11D621F739FB00DA11D621F839FA00DAE
:10063000611D221F749F3327A00D611D231F849FFE
:10064000600D211D822F762F6A2F11249F57504055
:100650009AF0F1F088234AF0EE0FFF1FBB1F661FD0
:10066000771F881F91505040A9F79E3F510580F099
:100670000C944F030C94DC025F3FE4F3983ED4F3F8
:10068000869577956795B795F795E7959F5FC1F73D
:10069000FE2B880F911D9695879597F9089597F9E8
:1006A0009F6780E870E060E008959FEF80EC089518
:1006B00000240A9416161706180609060895002441
:1006C0000A9412161306140605060895092E0394BB
:1006D000000C11F4882352F0BB0F40F4BF2B11F42F
:1006E00060FF04C06F5F7F4F8F4F9F4F0895F89456
:0206F000FFCF3A
:00000001FF
